{
	"contractName": "Launchpad",
	"abi": [
		{
			"inputs": [
				{
					"internalType": "address",
					"name": "_launchpadGenerator",
					"type": "address"
				},
				{
					"internalType": "address",
					"name": "_wbnb",
					"type": "address"
				},
				{
					"internalType": "address",
					"name": "_launchpadSettings",
					"type": "address"
				},
				{
					"internalType": "address",
					"name": "_launchpadLockForwarder",
					"type": "address"
				},
				{
					"internalType": "address",
					"name": "_pancakeDev",
					"type": "address"
				}
			],
			"stateMutability": "nonpayable",
			"type": "constructor"
		},
		{
			"inputs": [],
			"name": "CONTRACT_VERSION",
			"outputs": [
				{
					"internalType": "uint256",
					"name": "",
					"type": "uint256"
				}
			],
			"stateMutability": "view",
			"type": "function"
		},
		{
			"inputs": [],
			"name": "LAUNCHPAD_GENERATOR",
			"outputs": [
				{
					"internalType": "address",
					"name": "",
					"type": "address"
				}
			],
			"stateMutability": "view",
			"type": "function"
		},
		{
			"inputs": [],
			"name": "WBNB",
			"outputs": [
				{
					"internalType": "contract IWBNB",
					"name": "",
					"type": "address"
				}
			],
			"stateMutability": "view",
			"type": "function"
		},
		{
			"inputs": [
				{
					"internalType": "address",
					"name": "",
					"type": "address"
				}
			],
			"name": "buyers",
			"outputs": [
				{
					"internalType": "uint256",
					"name": "baseDeposited",
					"type": "uint256"
				},
				{
					"internalType": "uint256",
					"name": "tokensOwed",
					"type": "uint256"
				}
			],
			"stateMutability": "view",
			"type": "function"
		},
		{
			"inputs": [],
			"name": "launchpadFeeInfo",
			"outputs": [
				{
					"internalType": "uint256",
					"name": "pancakeTokenFee",
					"type": "uint256"
				},
				{
					"internalType": "uint256",
					"name": "referralFee",
					"type": "uint256"
				},
				{
					"internalType": "address payable",
					"name": "baseFeeAddress",
					"type": "address"
				},
				{
					"internalType": "address payable",
					"name": "tokenFeeAddress",
					"type": "address"
				},
				{
					"internalType": "address payable",
					"name": "referralFeeAddress",
					"type": "address"
				}
			],
			"stateMutability": "view",
			"type": "function"
		},
		{
			"inputs": [],
			"name": "launchpadInfo",
			"outputs": [
				{
					"internalType": "address payable",
					"name": "launchpadOwner",
					"type": "address"
				},
				{
					"internalType": "contract IERC20",
					"name": "sToken",
					"type": "address"
				},
				{
					"internalType": "contract IERC20Meta",
					"name": "bToken",
					"type": "address"
				},
				{
					"internalType": "uint256",
					"name": "amount",
					"type": "uint256"
				},
				{
					"internalType": "uint256",
					"name": "tokenPrice",
					"type": "uint256"
				},
				{
					"internalType": "uint256",
					"name": "maxSpendPerBuyer",
					"type": "uint256"
				},
				{
					"internalType": "uint256",
					"name": "softCap",
					"type": "uint256"
				},
				{
					"internalType": "uint256",
					"name": "hardcap",
					"type": "uint256"
				},
				{
					"internalType": "uint256",
					"name": "liquidityPercentage",
					"type": "uint256"
				},
				{
					"internalType": "uint256",
					"name": "listingRate",
					"type": "uint256"
				},
				{
					"components": [
						{
							"internalType": "uint256",
							"name": "lockPeriod",
							"type": "uint256"
						},
						{
							"internalType": "uint256",
							"name": "startTime",
							"type": "uint256"
						},
						{
							"internalType": "uint256",
							"name": "endTime",
							"type": "uint256"
						}
					],
					"internalType": "struct Launchpad.LaunchpadTimePeriod",
					"name": "_launchpadTimePeriod",
					"type": "tuple"
				},
				{
					"internalType": "bool",
					"name": "isBNB",
					"type": "bool"
				}
			],
			"stateMutability": "view",
			"type": "function"
		},
		{
			"inputs": [],
			"name": "launchpadLockForwarder",
			"outputs": [
				{
					"internalType": "contract ILaunchpadLockForwarder",
					"name": "",
					"type": "address"
				}
			],
			"stateMutability": "view",
			"type": "function"
		},
		{
			"inputs": [],
			"name": "launchpadSettings",
			"outputs": [
				{
					"internalType": "contract ILaunchpadSettings",
					"name": "",
					"type": "address"
				}
			],
			"stateMutability": "view",
			"type": "function"
		},
		{
			"inputs": [],
			"name": "launchpadStatus",
			"outputs": [
				{
					"internalType": "bool",
					"name": "forceFailed",
					"type": "bool"
				},
				{
					"internalType": "bool",
					"name": "lpGenerationComplete",
					"type": "bool"
				},
				{
					"internalType": "bool",
					"name": "whitelistOnly",
					"type": "bool"
				},
				{
					"internalType": "uint256",
					"name": "lpGenerationTimestamp",
					"type": "uint256"
				},
				{
					"internalType": "uint256",
					"name": "totalBaseCollected",
					"type": "uint256"
				},
				{
					"internalType": "uint256",
					"name": "totalBaseWithdrawn",
					"type": "uint256"
				},
				{
					"internalType": "uint256",
					"name": "totalTokensSold",
					"type": "uint256"
				},
				{
					"internalType": "uint256",
					"name": "totalTokensWithdrawn",
					"type": "uint256"
				},
				{
					"internalType": "uint256",
					"name": "numBuyers",
					"type": "uint256"
				},
				{
					"internalType": "uint256",
					"name": "round1Length",
					"type": "uint256"
				}
			],
			"stateMutability": "view",
			"type": "function"
		},
		{
			"inputs": [
				{
					"internalType": "address",
					"name": "",
					"type": "address"
				}
			],
			"name": "rewardTokens",
			"outputs": [
				{
					"internalType": "uint256",
					"name": "",
					"type": "uint256"
				}
			],
			"stateMutability": "view",
			"type": "function"
		},
		{
			"inputs": [
				{
					"internalType": "address payable",
					"name": "_launchpadOwner",
					"type": "address"
				},
				{
					"internalType": "uint256",
					"name": "_amount",
					"type": "uint256"
				},
				{
					"internalType": "uint256",
					"name": "_tokenPrice",
					"type": "uint256"
				},
				{
					"internalType": "uint256",
					"name": "_maxSpendPerBuyer",
					"type": "uint256"
				},
				{
					"internalType": "uint256",
					"name": "_hardcap",
					"type": "uint256"
				},
				{
					"internalType": "uint256",
					"name": "_softcap",
					"type": "uint256"
				},
				{
					"internalType": "uint256",
					"name": "_liquidityPercent",
					"type": "uint256"
				},
				{
					"internalType": "uint256",
					"name": "_listingRate",
					"type": "uint256"
				},
				{
					"internalType": "uint256",
					"name": "_startTime",
					"type": "uint256"
				},
				{
					"internalType": "uint256",
					"name": "_endTime",
					"type": "uint256"
				},
				{
					"internalType": "uint256",
					"name": "_lockPeriod",
					"type": "uint256"
				}
			],
			"name": "init1",
			"outputs": [],
			"stateMutability": "nonpayable",
			"type": "function"
		},
		{
			"inputs": [
				{
					"internalType": "contract IERC20Meta",
					"name": "_baseToken",
					"type": "address"
				},
				{
					"internalType": "contract IERC20",
					"name": "_launchpadToken",
					"type": "address"
				},
				{
					"internalType": "uint256",
					"name": "_pancakeTokenFee",
					"type": "uint256"
				},
				{
					"internalType": "uint256",
					"name": "_referralFee",
					"type": "uint256"
				},
				{
					"internalType": "address payable",
					"name": "_baseFeeAddress",
					"type": "address"
				},
				{
					"internalType": "address payable",
					"name": "_tokenFeeAddress",
					"type": "address"
				},
				{
					"internalType": "address payable",
					"name": "_referralAddress",
					"type": "address"
				}
			],
			"name": "init2",
			"outputs": [],
			"stateMutability": "nonpayable",
			"type": "function"
		},
		{
			"inputs": [],
			"name": "addLiquidity",
			"outputs": [],
			"stateMutability": "nonpayable",
			"type": "function"
		},
		{
			"inputs": [],
			"name": "forceFailIfPairExists",
			"outputs": [],
			"stateMutability": "nonpayable",
			"type": "function"
		},
		{
			"inputs": [
				{
					"internalType": "uint256",
					"name": "_amount",
					"type": "uint256"
				},
				{
					"internalType": "address[]",
					"name": "reffers",
					"type": "address[]"
				},
				{
					"internalType": "bytes[]",
					"name": "reffersSign",
					"type": "bytes[]"
				}
			],
			"name": "userDeposit",
			"outputs": [],
			"stateMutability": "payable",
			"type": "function"
		},
		{
			"inputs": [],
			"name": "userWithdrawBaseTokens",
			"outputs": [],
			"stateMutability": "nonpayable",
			"type": "function"
		},
		{
			"inputs": [],
			"name": "userWithdrawTokens",
			"outputs": [],
			"stateMutability": "nonpayable",
			"type": "function"
		},
		{
			"inputs": [],
			"name": "withdrawRewardTokens",
			"outputs": [],
			"stateMutability": "nonpayable",
			"type": "function"
		},
		{
			"inputs": [
				{
					"internalType": "address[]",
					"name": "_users",
					"type": "address[]"
				},
				{
					"internalType": "bool",
					"name": "_add",
					"type": "bool"
				}
			],
			"name": "editWhitelist",
			"outputs": [],
			"stateMutability": "nonpayable",
			"type": "function"
		},
		{
			"inputs": [],
			"name": "ownerWithdrawTokens",
			"outputs": [],
			"stateMutability": "nonpayable",
			"type": "function"
		},
		{
			"inputs": [
				{
					"internalType": "bool",
					"name": "_flag",
					"type": "bool"
				}
			],
			"name": "setWhitelistFlag",
			"outputs": [],
			"stateMutability": "nonpayable",
			"type": "function"
		},
		{
			"inputs": [
				{
					"internalType": "uint256",
					"name": "_startTime",
					"type": "uint256"
				},
				{
					"internalType": "uint256",
					"name": "_endTime",
					"type": "uint256"
				}
			],
			"name": "updateDuration",
			"outputs": [],
			"stateMutability": "nonpayable",
			"type": "function"
		},
		{
			"inputs": [
				{
					"internalType": "uint256",
					"name": "_maxSpend",
					"type": "uint256"
				}
			],
			"name": "updateMaxSpendLimit",
			"outputs": [],
			"stateMutability": "nonpayable",
			"type": "function"
		},
		{
			"inputs": [],
			"name": "forceFailByPancake",
			"outputs": [],
			"stateMutability": "nonpayable",
			"type": "function"
		},
		{
			"inputs": [],
			"name": "getLaunchpadStatus",
			"outputs": [
				{
					"internalType": "uint256",
					"name": "",
					"type": "uint256"
				}
			],
			"stateMutability": "view",
			"type": "function"
		},
		{
			"inputs": [
				{
					"internalType": "address",
					"name": "_user",
					"type": "address"
				}
			],
			"name": "getUserWhitelistStatus",
			"outputs": [
				{
					"internalType": "bool",
					"name": "",
					"type": "bool"
				}
			],
			"stateMutability": "view",
			"type": "function"
		},
		{
			"inputs": [
				{
					"internalType": "uint256",
					"name": "_index",
					"type": "uint256"
				}
			],
			"name": "getWhitelistedUserAtIndex",
			"outputs": [
				{
					"internalType": "address",
					"name": "",
					"type": "address"
				}
			],
			"stateMutability": "view",
			"type": "function"
		},
		{
			"inputs": [],
			"name": "getWhitelistedUsersLength",
			"outputs": [
				{
					"internalType": "uint256",
					"name": "",
					"type": "uint256"
				}
			],
			"stateMutability": "view",
			"type": "function"
		},
		{
			"inputs": [
				{
					"internalType": "address",
					"name": "_reffer",
					"type": "address"
				},
				{
					"internalType": "address",
					"name": "_launchpadAddress",
					"type": "address"
				}
			],
			"name": "getMessageHash",
			"outputs": [
				{
					"internalType": "bytes32",
					"name": "",
					"type": "bytes32"
				}
			],
			"stateMutability": "pure",
			"type": "function"
		},
		{
			"inputs": [
				{
					"internalType": "bytes32",
					"name": "_messageHash",
					"type": "bytes32"
				}
			],
			"name": "getEthSignedMessageHash",
			"outputs": [
				{
					"internalType": "bytes32",
					"name": "",
					"type": "bytes32"
				}
			],
			"stateMutability": "pure",
			"type": "function"
		},
		{
			"inputs": [
				{
					"internalType": "address",
					"name": "_refferal",
					"type": "address"
				},
				{
					"internalType": "address",
					"name": "_launchpadAddress",
					"type": "address"
				},
				{
					"internalType": "bytes",
					"name": "signature",
					"type": "bytes"
				}
			],
			"name": "verify",
			"outputs": [
				{
					"internalType": "bool",
					"name": "",
					"type": "bool"
				}
			],
			"stateMutability": "pure",
			"type": "function"
		},
		{
			"inputs": [
				{
					"internalType": "bytes32",
					"name": "_ethSignedMessageHash",
					"type": "bytes32"
				},
				{
					"internalType": "bytes",
					"name": "_signature",
					"type": "bytes"
				}
			],
			"name": "recoverSigner",
			"outputs": [
				{
					"internalType": "address",
					"name": "",
					"type": "address"
				}
			],
			"stateMutability": "pure",
			"type": "function"
		},
		{
			"inputs": [
				{
					"internalType": "bytes",
					"name": "sig",
					"type": "bytes"
				}
			],
			"name": "splitSignature",
			"outputs": [
				{
					"internalType": "bytes32",
					"name": "r",
					"type": "bytes32"
				},
				{
					"internalType": "bytes32",
					"name": "s",
					"type": "bytes32"
				},
				{
					"internalType": "uint8",
					"name": "v",
					"type": "uint8"
				}
			],
			"stateMutability": "pure",
			"type": "function"
		}
	],
	"bytecode": "0x6101206040523480156200001257600080fd5b506040516200321e3803806200321e8339810160408190526200003591620000fa565b60016000556001600160a01b038516158015906200005b57506001600160a01b03841615155b80156200007057506001600160a01b03831615155b80156200008557506001600160a01b03821615155b80156200009a57506001600160a01b03811615155b620000c25760405162461bcd60e51b8152600401620000b99062000179565b60405180910390fd5b6001600160601b0319606095861b811660e05293851b841660c05291841b831660a052831b821660805290911b1661010052620001b8565b600080600080600060a0868803121562000112578081fd5b85516200011f816200019f565b602087015190955062000132816200019f565b604087015190945062000145816200019f565b606087015190935062000158816200019f565b60808701519092506200016b816200019f565b809150509295509295909350565b6020808252600c908201526b5a45524f204144445245535360a01b604082015260600190565b6001600160a01b0381168114620001b557600080fd5b50565b60805160601c60a05160601c60c05160601c60e05160601c6101005160601c612fdb6200024360003980610d9d525080610c21528061120c5280611432525080610c735280610f5852806115e55250806106965280610a925280610d055280610e745250806110b852806114e8528061166a52806116eb52806117235280611ab25250612fdb6000f3fe6080604052600436106101ee5760003560e01c8063927ac44d1161010d578063bba88631116100a0578063e8078d941161006f578063e8078d941461055a578063e86e63401461056f578063f5ab16cc14610584578063fa540801146105a4578063fe8121de146105c4576101ee565b8063bba88631146104f0578063bff75f5314610505578063c39e7dbb14610530578063d1ab011e14610545576101ee565b8063a7bb5803116100dc578063a7bb58031461046c578063a94e7e801461049b578063b93ac792146104b0578063b9863a44146104d0576101ee565b8063927ac44d146103e957806397a993aa1461040957806397aba7f914610437578063a19ab11614610457576101ee565b806342920a461161018557806380e8a1511161015457806380e8a1511461036e578063899548861461038e5780638c301df8146103b45780638dd95002146103d4576101ee565b806342920a46146102dd5780634bb18e3f1461030a5780636933eb151461031f578063706b63c614610341576101ee565b806338b90333116101c157806338b903331461025d57806339848cd1146102885780633d296122146102a85780634200e4fc146102bd576101ee565b80630d648888146101f357806324ef1bc7146102085780632ad1f1db14610228578063370243dc14610248575b600080fd5b610206610201366004612680565b6105d9565b005b34801561021457600080fd5b5061020661022336600461254d565b610a05565b34801561023457600080fd5b50610206610243366004612768565b610a34565b34801561025457600080fd5b50610206610b54565b34801561026957600080fd5b50610272610c11565b60405161027f919061296c565b60405180910390f35b34801561029457600080fd5b506102066102a33660046125e5565b610c16565b3480156102b457600080fd5b50610206610d92565b3480156102c957600080fd5b506102066102d8366004612515565b610dd6565b3480156102e957600080fd5b506102fd6102f8366004612401565b610e1c565b60405161027f919061291a565b34801561031657600080fd5b50610272610e60565b34801561032b57600080fd5b50610334610e72565b60405161027f9190612820565b34801561034d57600080fd5b50610356610e96565b60405161027f9c9b9a99989796959493929190612834565b34801561037a57600080fd5b506102726103893660046123c9565b610ef2565b34801561039a57600080fd5b506103a3610f26565b60405161027f959493929190612f0a565b3480156103c057600080fd5b506103346103cf36600461254d565b610f49565b3480156103e057600080fd5b50610334610f56565b3480156103f557600080fd5b50610206610404366004612461565b610f7a565b34801561041557600080fd5b50610429610424366004612333565b61102e565b60405161027f929190612efc565b34801561044357600080fd5b50610334610452366004612565565b611047565b34801561046357600080fd5b506103346110b6565b34801561047857600080fd5b5061048c6104873660046125aa565b6110da565b60405161027f93929190612975565b3480156104a757600080fd5b5061020661111e565b3480156104bc57600080fd5b506102066104cb36600461234f565b611201565b3480156104dc57600080fd5b506102fd6104eb366004612333565b611296565b3480156104fc57600080fd5b506102726112a3565b34801561051157600080fd5b5061051a611336565b60405161027f9a99989796959493929190612925565b34801561053c57600080fd5b50610206611374565b34801561055157600080fd5b50610334611430565b34801561056657600080fd5b50610206611454565b34801561057b57600080fd5b50610206611a5e565b34801561059057600080fd5b5061027261059f366004612333565b611b50565b3480156105b057600080fd5b506102726105bf36600461254d565b611b62565b3480156105d057600080fd5b50610206611b92565b600260005414156106055760405162461bcd60e51b81526004016105fc90612ea0565b60405180910390fd5b60026000556106126112a3565b6001146106315760405162461bcd60e51b81526004016105fc90612c98565b60145462010000900460ff16156106695761064d601e33611c44565b6106695760405162461bcd60e51b81526004016105fc90612cbc565b601b54600c5461067891611c60565b42101561073757604051634a6da48160e01b81526001600160a01b037f00000000000000000000000000000000000000000000000000000000000000001690634a6da481906106cb903390600401612820565b60206040518083038186803b1580156106e357600080fd5b505afa1580156106f7573d6000803e3d6000fd5b505050506040513d601f19601f8201168201806040525081019061071b9190612531565b6107375760405162461bcd60e51b81526004016105fc906129e4565b336000908152601c60205260408120600e5490919060ff16610759578561075b565b345b825460065491925060009161076f91611c85565b60165460085491925060009161078491611c85565b90508082116107935781610795565b805b9150818311156107a3578192505b6005546000906107c5906107bf86670de0b6b3a7640000611cad565b90611ce7565b9050600081116107e75760405162461bcd60e51b81526004016105fc90612ed7565b84546107f757601a805460010190555b84546108039085611c60565b855560018501546108149082611c60565b60018601556000600388111561083c5760405162461bcd60e51b81526004016105fc90612c20565b8651881461085c5760405162461bcd60e51b81526004016105fc90612a25565b87156109625760005b88811015610954576108ab8a8a8381811061087c57fe5b90506020020160208101906108919190612333565b308a848151811061089e57fe5b6020026020010151610e1c565b6108c75760405162461bcd60e51b81526004016105fc90612b17565b6108d86127106107bf856064611cad565b915060008a8a838181106108e857fe5b90506020020160208101906108fd9190612333565b6001600160a01b03161461094c5781601d60008c8c8581811061091c57fe5b90506020020160208101906109319190612333565b6001600160a01b031681526020810191909152604001600020555b600101610865565b5061095f8189611cad565b90505b60165461096f9086611c60565b60165560185461098190838301611c60565b601855600e5460ff16801561099557503485105b156109d257336108fc6109a83488611c85565b6040518115909202916000818181858888f193505050501580156109d0573d6000803e3d6000fd5b505b600e5460ff166109f4576003546109f4906001600160a01b0316333088611d19565b505060016000555050505050505050565b6001546001600160a01b03163314610a2f5760405162461bcd60e51b81526004016105fc90612df8565b600655565b6001546001600160a01b03163314610a5e5760405162461bcd60e51b81526004016105fc90612df8565b610a666112a3565b158015610a745750600c5442105b610a905760405162461bcd60e51b81526004016105fc90612dca565b7f00000000000000000000000000000000000000000000000000000000000000006001600160a01b031663cef6fc0b6040518163ffffffff1660e01b815260040160206040518083038186803b158015610ae957600080fd5b505afa158015610afd573d6000803e3d6000fd5b505050506040513d601f19601f82011682018060405250810190610b219190612668565b610b2b8284611c85565b1115610b495760405162461bcd60e51b81526004016105fc90612ac7565b600c91909155600d55565b60026000541415610b775760405162461bcd60e51b81526004016105fc90612ea0565b6002600055601454610100900460ff16610ba35760405162461bcd60e51b81526004016105fc90612d2c565b336000908152601d602052604090205480610bd05760405162461bcd60e51b81526004016105fc90612b85565b601954610bdd9082611c60565b601955336000818152601d6020526040812055600254610c09916001600160a01b039091169083611e0a565b506001600055565b600181565b336001600160a01b037f00000000000000000000000000000000000000000000000000000000000000001614610c5e5760405162461bcd60e51b81526004016105fc90612ce5565b600e805460ff19166001600160a01b038981167f00000000000000000000000000000000000000000000000000000000000000008216811492909217909255600280548984166001600160a01b031991821617909155600380548216909217909155600f8790556010869055601180548684169083161790556012805485841690831617905560138054848416921691909117905560408051635564890b60e11b815290517f00000000000000000000000000000000000000000000000000000000000000009092169163aac9121691600481810192602092909190829003018186803b158015610d4e57600080fd5b505afa158015610d62573d6000803e3d6000fd5b505050506040513d601f19601f82011682018060405250810190610d869190612668565b601b5550505050505050565b336001600160a01b037f00000000000000000000000000000000000000000000000000000000000000001614610dc757600080fd5b6014805460ff19166001179055565b6001546001600160a01b03163314610e005760405162461bcd60e51b81526004016105fc90612df8565b60148054911515620100000262ff000019909216919091179055565b600080610e298585610ef2565b90506000610e3682611b62565b9050856001600160a01b0316610e4c8286611047565b6001600160a01b0316149695505050505050565b6000610e6c601e611ef8565b90505b90565b7f000000000000000000000000000000000000000000000000000000000000000081565b600154600254600354600454600554600654600754600854600954600a5460408051606081018252600b548152600c546020820152600d5491810191909152600e546001600160a01b039b8c169b9a8b169a9099169860ff168c565b60008282604051602001610f0792919061278f565b6040516020818303038152906040528051906020012090505b92915050565b600f546010546011546012546013546001600160a01b0392831692918216911685565b6000610f20601e83611f03565b7f000000000000000000000000000000000000000000000000000000000000000081565b6001546001600160a01b03163314610fa45760405162461bcd60e51b81526004016105fc90612df8565b8015610fec5760005b8251811015610fe657610fdd838281518110610fc557fe5b6020026020010151601e611f0f90919063ffffffff16565b50600101610fad565b5061102a565b60005b82518110156110285761101f83828151811061100757fe5b6020026020010151601e611f2490919063ffffffff16565b50600101610fef565b505b5050565b601c602052600090815260409020805460019091015482565b600080600080611056856110da565b9250925092506001868285856040516000815260200160405260405161107f949392919061298e565b6020604051602081039080840390855afa1580156110a1573d6000803e3d6000fd5b5050604051601f190151979650505050505050565b7f000000000000000000000000000000000000000000000000000000000000000081565b600080600083516041146111005760405162461bcd60e51b81526004016105fc90612e25565b50505060208101516040820151606090920151909260009190911a90565b6001546001600160a01b031633146111485760405162461bcd60e51b81526004016105fc90612df8565b6111506112a3565b60031461116f5760405162461bcd60e51b81526004016105fc90612d08565b6002546001546040516370a0823160e01b81526111ff926001600160a01b0390811692169082906370a08231906111aa903090600401612820565b60206040518083038186803b1580156111c257600080fd5b505afa1580156111d6573d6000803e3d6000fd5b505050506040513d601f19601f820116820180604052508101906111fa9190612668565b611e0a565b565b336001600160a01b037f000000000000000000000000000000000000000000000000000000000000000016146112495760405162461bcd60e51b81526004016105fc90612ce5565b600180546001600160a01b0319166001600160a01b039c909c169b909b17909a55600498909855600596909655600694909455600892909255600755600955600a55600c55600d55600b55565b6000610f20601e83611c44565b60145460009060ff16156112b957506003610e6f565b600d54421180156112cd5750600754601654105b156112da57506003610e6f565b600854601654106112ed57506002610e6f565b600d5442118015611302575060075460165410155b1561130f57506002610e6f565b600c5442108015906113235750600d544211155b1561133057506001610e6f565b50600090565b601454601554601654601754601854601954601a54601b5460ff8089169861010081048216986201000090910490911696909590949093909290918a565b600260005414156113975760405162461bcd60e51b81526004016105fc90612ea0565b60026000556113a46112a3565b6003146113c35760405162461bcd60e51b81526004016105fc90612d08565b336000908152601c602052604090208054806113f15760405162461bcd60e51b81526004016105fc90612b85565b81546017546113ff91611c60565b60175560008255600354600e54611427916001600160a01b0316903390849060ff1615611f39565b50506001600055565b7f000000000000000000000000000000000000000000000000000000000000000081565b600260005414156114775760405162461bcd60e51b81526004016105fc90612ea0565b6002600055601454610100900460ff16156114a45760405162461bcd60e51b81526004016105fc90612d9d565b6114ac6112a3565b6002146114cb5760405162461bcd60e51b81526004016105fc90612af2565b60025460035460405163b2b6d1a560e01b81526001600160a01b037f000000000000000000000000000000000000000000000000000000000000000081169363b2b6d1a593611522939183169216906004016128dc565b60206040518083038186803b15801561153a57600080fd5b505afa15801561154e573d6000803e3d6000fd5b505050506040513d601f19601f820116820180604052508101906115729190612531565b15611589576014805460ff19166001179055611a57565b600f546016546000916115a4916103e8916107bf9190611cad565b905060006115d56103e86107bf6001600801546115cf86601460020154611c8590919063ffffffff16565b90611cad565b600e5490915060ff1615611658577f00000000000000000000000000000000000000000000000000000000000000006001600160a01b031663d0e30db0826040518263ffffffff1660e01b81526004016000604051808303818588803b15801561163e57600080fd5b505af1158015611652573d6000803e3d6000fd5b50505050505b60035461168f906001600160a01b03167f000000000000000000000000000000000000000000000000000000000000000083612067565b600f546018546000916116aa916103e8916107bf9190611cad565b600954600a546018549293506000926116d692620186a0926107bf926115cf9160640390829089611c85565b600254909150611710906001600160a01b03167f000000000000000000000000000000000000000000000000000000000000000083612067565b600354600254600b546001600160a01b037f0000000000000000000000000000000000000000000000000000000000000000811693632277d0e3939082169291169087908690611761904290611c60565b6001546040516001600160e01b031960e089901b1681526117939695949392916001600160a01b0316906004016129ac565b600060405180830381600087803b1580156117ad57600080fd5b505af11580156117c1573d6000803e3d6000fd5b50506013546001600160a01b031615915061187e90505760006117f86103e86107bf600f6001015488611cad90919063ffffffff16565b600354601354600e54929350611823926001600160a01b039283169290911690849060ff1615611f39565b61182d8582611c85565b9450600061184f6103e86107bf600f6001015487611cad90919063ffffffff16565b60025460135491925061186f916001600160a01b03918216911683611e0a565b6118798482611c85565b935050505b600354601154600e546118a4926001600160a01b03908116921690879060ff1615611f39565b6002546012546118c1916001600160a01b03908116911684611e0a565b6002546040516370a0823160e01b81526000916001600160a01b0316906370a08231906118f2903090600401612820565b60206040518083038186803b15801561190a57600080fd5b505afa15801561191e573d6000803e3d6000fd5b505050506040513d601f19601f820116820180604052508101906119429190612668565b60185490915081111561197e57601854600090611960908390611c85565b60025490915061197c906001600160a01b031661dead83611e0a565b505b600e5460009060ff16611a10576003546040516370a0823160e01b81526001600160a01b03909116906370a08231906119bb903090600401612820565b60206040518083038186803b1580156119d357600080fd5b505afa1580156119e7573d6000803e3d6000fd5b505050506040513d601f19601f82011682018060405250810190611a0b9190612668565b611a12565b475b600354600154600e54929350611a3d926001600160a01b039283169290911690849060ff1615611f39565b50506014805461ff00191661010017905550504260155550505b6001600055565b601454610100900460ff16158015611a79575060145460ff16155b611a955760405162461bcd60e51b81526004016105fc90612dca565b60025460035460405163b2b6d1a560e01b81526001600160a01b037f000000000000000000000000000000000000000000000000000000000000000081169363b2b6d1a593611aec939183169216906004016128dc565b60206040518083038186803b158015611b0457600080fd5b505afa158015611b18573d6000803e3d6000fd5b505050506040513d601f19601f82011682018060405250810190611b3c9190612531565b156111ff576014805460ff19166001179055565b601d6020526000908152604090205481565b600081604051602001611b7591906127ef565b604051602081830303815290604052805190602001209050919050565b60026000541415611bb55760405162461bcd60e51b81526004016105fc90612ea0565b6002600055601454610100900460ff16611be15760405162461bcd60e51b81526004016105fc90612d2c565b336000908152601c60205260409020600181015480611c125760405162461bcd60e51b81526004016105fc90612b85565b6001820154601954611c2391611c60565b60195560006001830155600254611427906001600160a01b03163383611e0a565b6000611c59836001600160a01b03841661214e565b9392505050565b600082820183811015611c595760405162461bcd60e51b81526004016105fc90612b4e565b600082821115611ca75760405162461bcd60e51b81526004016105fc90612be9565b50900390565b600082611cbc57506000610f20565b82820282848281611cc957fe5b0414611c595760405162461bcd60e51b81526004016105fc90612d5c565b6000808211611d085760405162461bcd60e51b81526004016105fc90612c61565b818381611d1157fe5b049392505050565b60006060856001600160a01b03166323b872dd868686604051602401611d41939291906128f6565b6040516020818303038152906040529060e01b6020820180516001600160e01b038381831617835250505050604051611d7a91906127b6565b6000604051808303816000865af19150503d8060008114611db7576040519150601f19603f3d011682016040523d82523d6000602084013e611dbc565b606091505b5091509150818015611de6575080511580611de6575080806020019051810190611de69190612531565b611e025760405162461bcd60e51b81526004016105fc90612e5c565b505050505050565b60006060846001600160a01b031663a9059cbb8585604051602401611e309291906128c3565b6040516020818303038152906040529060e01b6020820180516001600160e01b038381831617835250505050604051611e6991906127b6565b6000604051808303816000865af19150503d8060008114611ea6576040519150601f19603f3d011682016040523d82523d6000602084013e611eab565b606091505b5091509150818015611ed5575080511580611ed5575080806020019051810190611ed59190612531565b611ef15760405162461bcd60e51b81526004016105fc90612a90565b5050505050565b6000610f2082612166565b6000611c59838361216a565b6000611c59836001600160a01b0384166121af565b6000611c59836001600160a01b0384166121f9565b80611f7a576040516001600160a01b0384169083156108fc029084906000818181858888f19350505050158015611f74573d6000803e3d6000fd5b50612061565b60006060856001600160a01b031663a9059cbb8686604051602401611fa09291906128c3565b6040516020818303038152906040529060e01b6020820180516001600160e01b038381831617835250505050604051611fd991906127b6565b6000604051808303816000865af19150503d8060008114612016576040519150601f19603f3d011682016040523d82523d6000602084013e61201b565b606091505b50915091508180156120455750805115806120455750808060200190518101906120459190612531565b611e025760405162461bcd60e51b81526004016105fc90612a90565b50505050565b60006060846001600160a01b031663095ea7b3858560405160240161208d9291906128c3565b6040516020818303038152906040529060e01b6020820180516001600160e01b0383818316178352505050506040516120c691906127b6565b6000604051808303816000865af19150503d8060008114612103576040519150601f19603f3d011682016040523d82523d6000602084013e612108565b606091505b50915091508180156121325750805115806121325750808060200190518101906121329190612531565b611ef15760405162461bcd60e51b81526004016105fc90612bb2565b60009081526001919091016020526040902054151590565b5490565b8154600090821061218d5760405162461bcd60e51b81526004016105fc90612a4e565b82600001828154811061219c57fe5b9060005260206000200154905092915050565b60006121bb838361214e565b6121f157508154600181810184556000848152602080822090930184905584548482528286019093526040902091909155610f20565b506000610f20565b600081815260018301602052604081205480156122b5578354600019808301919081019060009087908390811061222c57fe5b906000526020600020015490508087600001848154811061224957fe5b60009182526020808320909101929092558281526001898101909252604090209084019055865487908061227957fe5b60019003818190600052602060002001600090559055866001016000878152602001908152602001600020600090556001945050505050610f20565b6000915050610f20565b8035610f2081612f97565b600082601f8301126122da578081fd5b813567ffffffffffffffff8111156122f0578182fd5b612303601f8201601f1916602001612f38565b915080825283602082850101111561231a57600080fd5b8060208401602084013760009082016020015292915050565b600060208284031215612344578081fd5b8135611c5981612f7f565b60008060008060008060008060008060006101608c8e031215612370578687fd5b8b3561237b81612f7f565b9d60208d01359d5060408d01359c60608101359c5060808101359b5060a08101359a5060c0810135995060e08101359850610100810135975061012081013596506101400135945092505050565b600080604083850312156123db578182fd5b82356123e681612f7f565b915060208301356123f681612f7f565b809150509250929050565b600080600060608486031215612415578283fd5b833561242081612f7f565b9250602084013561243081612f7f565b9150604084013567ffffffffffffffff81111561244b578182fd5b612457868287016122ca565b9150509250925092565b60008060408385031215612473578182fd5b823567ffffffffffffffff811115612489578283fd5b8301601f81018513612499578283fd5b80356124ac6124a782612f5f565b612f38565b8082825260208083019250808501898283870288010111156124cc578788fd5b8795505b848610156124f75780356124e381612f7f565b8452600195909501949281019281016124d0565b5081965061250789828a016122bf565b955050505050509250929050565b600060208284031215612526578081fd5b8135611c5981612f97565b600060208284031215612542578081fd5b8151611c5981612f97565b60006020828403121561255e578081fd5b5035919050565b60008060408385031215612577578182fd5b82359150602083013567ffffffffffffffff811115612594578182fd5b6125a0858286016122ca565b9150509250929050565b6000602082840312156125bb578081fd5b813567ffffffffffffffff8111156125d1578182fd5b6125dd848285016122ca565b949350505050565b600080600080600080600060e0888a0312156125ff578081fd5b873561260a81612f7f565b9650602088013561261a81612f7f565b95506040880135945060608801359350608088013561263881612f7f565b925060a088013561264881612f7f565b915060c088013561265881612f7f565b8091505092959891949750929550565b600060208284031215612679578081fd5b5051919050565b60008060008060608587031215612695578182fd5b8435935060208086013567ffffffffffffffff808211156126b4578485fd5b818801915088601f8301126126c7578485fd5b8135818111156126d5578586fd5b898485830285010111156126e7578586fd5b918301955090935060408701359080821115612701578384fd5b508601601f81018813612712578283fd5b80356127206124a782612f5f565b81815283810190838501865b84811015612755576127438d8884358901016122ca565b8452928601929086019060010161272c565b5050809550505050505092959194509250565b6000806040838503121561277a578182fd5b50508035926020909101359150565b15159052565b6bffffffffffffffffffffffff19606093841b811682529190921b16601482015260280190565b60008251815b818110156127d657602081860181015185830152016127bc565b818111156127e45782828501525b509190910192915050565b7f19457468657265756d205369676e6564204d6573736167653a0a3332000000008152601c810191909152603c0190565b6001600160a01b0391909116815260200190565b60006101c08201905060018060a01b03808f168352808e166020840152808d166040840152508a60608301528960808301528860a08301528760c08301528660e083015285610100830152846101208301528351610140830152602084015161016083015260408401516101808301526128b26101a0830184612789565b9d9c50505050505050505050505050565b6001600160a01b03929092168252602082015260400190565b6001600160a01b0392831681529116602082015260400190565b6001600160a01b039384168152919092166020820152604081019190915260600190565b901515815260200190565b9915158a5297151560208a015295151560408901526060880194909452608087019290925260a086015260c085015260e08401526101008301526101208201526101400190565b90815260200190565b928352602083019190915260ff16604082015260600190565b93845260ff9290921660208401526040830152606082015260800190565b6001600160a01b039687168152948616602086015260408501939093526060840191909152608083015290911660a082015260c00190565b60208082526021908201527f494e535546464943454e5420524f554e44203120544f4b454e2042414c414e436040820152604560f81b606082015260800190565b6020808252600f908201526e0d8cadccee8d040dad2e6dac2e8c6d608b1b604082015260600190565b60208082526022908201527f456e756d657261626c655365743a20696e646578206f7574206f6620626f756e604082015261647360f01b606082015260800190565b6020808252601f908201527f5472616e7366657248656c7065723a205452414e534645525f4641494c454400604082015260600190565b6020808252601190820152704455524154494f4e20544f4f204c4f4e4760781b604082015260600190565b6020808252600b908201526a4e4f54205355434345535360a81b604082015260600190565b6020808252601c908201527f526566666572616c20766572696669636174696f6e206661696c656400000000604082015260600190565b6020808252601b908201527f536166654d6174683a206164646974696f6e206f766572666c6f770000000000604082015260600190565b6020808252601390820152724e4f5448494e4720544f20574954484452415760681b604082015260600190565b6020808252601e908201527f5472616e7366657248656c7065723a20415050524f56455f4641494c45440000604082015260600190565b6020808252601e908201527f536166654d6174683a207375627472616374696f6e206f766572666c6f770000604082015260600190565b60208082526021908201527f726566667265616c206e6f74206265206d6f7265207468616e2033206c6576656040820152601b60fa1b606082015260800190565b6020808252601a908201527f536166654d6174683a206469766973696f6e206279207a65726f000000000000604082015260600190565b6020808252600a90820152694e4f542041435449564560b01b604082015260600190565b6020808252600f908201526e1393d50815d2125511531254d51151608a1b604082015260600190565b6020808252600990820152682327a92124a22222a760b91b604082015260600190565b6020808252600a90820152691393d50811905253115160b21b604082015260600190565b60208082526016908201527520aba0a4aa24a7239026281023a2a722a920aa24a7a760511b604082015260600190565b60208082526021908201527f536166654d6174683a206d756c7469706c69636174696f6e206f766572666c6f6040820152607760f81b606082015260800190565b60208082526013908201527247454e45524154494f4e20434f4d504c45544560681b604082015260600190565b6020808252601490820152734c41554e4348504144204e4f542041435449564560601b604082015260600190565b6020808252601390820152722727aa102620aaa721a42820a21027aba722a960691b604082015260600190565b60208082526018908201527f696e76616c6964207369676e6174757265206c656e6774680000000000000000604082015260600190565b60208082526024908201527f5472616e7366657248656c7065723a205452414e534645525f46524f4d5f46416040820152631253115160e21b606082015260800190565b6020808252601f908201527f5265656e7472616e637947756172643a207265656e7472616e742063616c6c00604082015260600190565b6020808252600b908201526a5a45524f20544f4b454e5360a81b604082015260600190565b918252602082015260400190565b94855260208501939093526001600160a01b0391821660408501528116606084015216608082015260a00190565b60405181810167ffffffffffffffff81118282101715612f5757600080fd5b604052919050565b600067ffffffffffffffff821115612f75578081fd5b5060209081020190565b6001600160a01b0381168114612f9457600080fd5b50565b8015158114612f9457600080fdfea26469706673582212209b908331f127843558f59975f05a628aa4c417ba4d1800261b5c39101b45b22a64736f6c634300060c0033",
	"immutableReferences": {
		"1064": [
			{
				"length": 32,
				"start": 4280
			},
			{
				"length": 32,
				"start": 5352
			},
			{
				"length": 32,
				"start": 5738
			},
			{
				"length": 32,
				"start": 5867
			},
			{
				"length": 32,
				"start": 5923
			},
			{
				"length": 32,
				"start": 6834
			}
		],
		"1066": [
			{
				"length": 32,
				"start": 1686
			},
			{
				"length": 32,
				"start": 2706
			},
			{
				"length": 32,
				"start": 3333
			},
			{
				"length": 32,
				"start": 3700
			}
		],
		"1068": [
			{
				"length": 32,
				"start": 3187
			},
			{
				"length": 32,
				"start": 3928
			},
			{
				"length": 32,
				"start": 5605
			}
		],
		"1070": [
			{
				"length": 32,
				"start": 3105
			},
			{
				"length": 32,
				"start": 4620
			},
			{
				"length": 32,
				"start": 5170
			}
		],
		"1072": [
			{
				"length": 32,
				"start": 3485
			}
		]
	},
	"source": "// SPDX-License-Identifier: MIT\n\n/**\n * @title Launchpad of Pancake launchpad enviroment\n * @dev This contract represents a launchpad. A launchpad can be created and initilized by a\n * launchpad generator. Users can deposit base token if the launchpad is active and get an\n * amount of sale token in raltion to the token price. The sale tokens can be withdrawn if the\n * the launchpad is successful. Otherwise the users and the launchpad owner get back their\n * vested tokens. On launchpad success a pancakeswap liquidity pair will be created and the\n * specified amount of liquidity will be locked in pancake locker contract.\n */\n\npragma solidity 0.6.12;\npragma experimental ABIEncoderV2;\nimport \"@openzeppelin/contracts/utils/EnumerableSet.sol\";\nimport \"@openzeppelin/contracts/math/SafeMath.sol\";\nimport \"@openzeppelin/contracts/utils/ReentrancyGuard.sol\";\nimport \"@openzeppelin/contracts/token/ERC20/IERC20.sol\";\nimport \"../interfaces/IERC20Meta.sol\";\nimport \"../interfaces/ILaunchpadLockForwarder.sol\";\nimport \"../interfaces/ILaunchpadSettings.sol\";\nimport \"../interfaces/IWBNB.sol\";\nimport \"./TransferHelper.sol\";\n\n\n\ncontract Launchpad is ReentrancyGuard {\n    using SafeMath for uint256;\n    using EnumerableSet for EnumerableSet.AddressSet;\n\n    uint256 public constant CONTRACT_VERSION = 1;\n\n    /*---------------------------------------------------------------------------------------------\n     * ------------------------------------Structs definitions-------------------------------------\n     */\n\n    // struct holding accounting information about a buyer\n    struct BuyerInfo {\n        uint256 baseDeposited; // amount of deposited base tokens\n        uint256 tokensOwed; // amount of owed sale tokens\n    }\n\n    // struct holding information about the fees during the ilo\n    struct LaunchpadFeeInfo {\n        uint256 pancakeTokenFee; // fee on adding liquidity calculated on sale token (in parts per 1000)\n        uint256 referralFee; // fee on adding liquidity calculated on baseFee and token fee (in parts per 1000)\n        address payable baseFeeAddress; // address receiving base token fee amount\n        address payable tokenFeeAddress; // address receiving sale token fee amount\n        address payable referralFeeAddress; // address receiving referral fee amount in base and sale token\n    }\n\n  \n   struct LaunchpadTimePeriod{\n        uint256 lockPeriod; // duration of the token lock in seconds (min 1 year)\n        uint256 startTime; // the timestamp to start the launchpad\n        uint256 endTime; // the timestamp to end the launchpad (max length of settings contract must be met)\n   }\n    // struct holding information about the launchpad\n    struct LaunchpadInfo {\n        address payable launchpadOwner; // the owner address of the launchpad\n        IERC20 sToken; // token to be sold in the launchpad (sale token)\n        IERC20Meta bToken; // token to purchase the sale token (base token)\n        uint256 amount; // min 10 000\n        uint256 tokenPrice; // the amount of sale tokens received for one base token\n        uint256 maxSpendPerBuyer; // the maximum amount to be spent by a specific buyer\n        uint256 softCap; // minimum sold amount reached at end time for successful ilo\n        uint256 hardcap; // amount to be reached for successful ilo\n        uint256 liquidityPercentage; // min 250(=25%) max 1000(=100%)\n        uint256 listingRate; // listing price of sale token on pancakeswap\n        LaunchpadTimePeriod _launchpadTimePeriod ;\n        bool isBNB; // if the base token is native currency\n    }\n\n    // struct with information about the current launchpad status\n    struct LaunchpadStatus {\n        bool forceFailed; // if the ilo failed (is invalid)\n        bool lpGenerationComplete; // if the lp generation was successful\n        bool whitelistOnly; // allow deposits only for whitelisted users\n        uint256 lpGenerationTimestamp; // set to block.timestamp when lpGenerationComplete is set to true\n        uint256 totalBaseCollected; // tracks total collected amount of base tokens\n        uint256 totalBaseWithdrawn; // tracks withdraws base tokens after failed ilo\n        uint256 totalTokensSold; // tracks the total sold sale tokens\n        uint256 totalTokensWithdrawn; // tracks withdraws sale tokens after successful ilo\n        uint256 numBuyers; // total number of sale token buyers\n        uint256 round1Length; // the length of round 1 in seconds\n    }\n\n    // struct ReffrealDetails {\n    //     address[3] reffers;\n    //     bytes32[3] reffersSign;\n    // }\n\n    /*---------------------------------------------------------------------------------------------\n     * --------------------------------------Global Variables--------------------------------------\n     */\n    // struct variables holding launchpad information\n    LaunchpadInfo public launchpadInfo;\n    LaunchpadFeeInfo public launchpadFeeInfo;\n    LaunchpadStatus public launchpadStatus;\n\n    // interface variables\n    ILaunchpadLockForwarder public immutable launchpadLockForwarder;\n    ILaunchpadSettings public immutable launchpadSettings;\n    IWBNB public immutable WBNB;\n\n    // addresses used for access control\n    address public immutable LAUNCHPAD_GENERATOR;\n    address immutable KINKO_DEV;\n\n    // variables holding information about users\n    mapping(address => BuyerInfo) public buyers;\n    mapping(address => uint256) public rewardTokens;\n\n\n\n    EnumerableSet.AddressSet private whitelist;\n\n    /*---------------------------------------------------------------------------------------------\n     * ------------------------------------Initilize functions-------------------------------------\n     */\n\n    /**\n     * @dev sets initially contract dependend addresses\n     * @param _launchpadGenerator address of the launchpad generator\n     * @param _wbnb address of the wrapped bnb contract\n     * @param _launchpadSettings address of the settings contract\n     * @param _launchpadLockForwarder address of LanchpadLockForwarder contract\n     * @param _pancakeDev address of the developer account\n     */\n    constructor(\n        address _launchpadGenerator,\n        address _wbnb,\n        address _launchpadSettings,\n        address _launchpadLockForwarder,\n        address _pancakeDev\n    ) public {\n        require(\n            _launchpadGenerator != address(0) &&\n                _wbnb != address(0) &&\n                _launchpadSettings != address(0) &&\n                _launchpadLockForwarder != address(0) &&\n                _pancakeDev != address(0),\n            \"ZERO ADDRESS\"\n        );\n        LAUNCHPAD_GENERATOR = _launchpadGenerator;\n        WBNB = IWBNB(_wbnb);\n        launchpadSettings = ILaunchpadSettings(_launchpadSettings);\n        launchpadLockForwarder = ILaunchpadLockForwarder(\n            _launchpadLockForwarder\n        );\n        KINKO_DEV = _pancakeDev;\n    }\n\n    /**\n     * @notice first initilize function sets launchpad information by the launchpad generator\n     * @dev this function can only be called by the launchpad generator\n     * @param _launchpadOwner the owner address of the launchpad\n     * @param _amount the total amount of sale tokens (min 10 000)\n     * @param _tokenPrice the amount of sale tokens for one base token\n     * @param _maxSpendPerBuyer the total amount of base token a specific buyer can spend\n     * @param _hardcap the maximum amount of tokens to be reached for success\n     * @param _softcap the minumum amount of tokens to be reached until end time for success\n     * @param _liquidityPercent the percent of locked liquidity in parts per 1000 (min 250)\n     * @param _listingRate the listing rate on pancakeswap\n     * @param _startTime the timestamp to start launchpad\n     * @param _endTime the timestamp of the launchpad end\n     * @param _lockPeriod the duration of the locking period in seconds\n     */\n     function init1(\n        address payable _launchpadOwner,\n        uint256 _amount,\n        uint256 _tokenPrice,\n        uint256 _maxSpendPerBuyer,\n        uint256 _hardcap,\n        uint256 _softcap,\n        uint256 _liquidityPercent,\n        uint256 _listingRate,\n        uint256 _startTime,\n        uint256 _endTime,\n        uint256 _lockPeriod\n    ) external {\n        require(msg.sender == LAUNCHPAD_GENERATOR, \"FORBIDDEN\");\n        launchpadInfo.launchpadOwner = _launchpadOwner;\n        launchpadInfo.amount = _amount;\n        launchpadInfo.tokenPrice = _tokenPrice;\n        launchpadInfo.maxSpendPerBuyer = _maxSpendPerBuyer;\n        launchpadInfo.hardcap = _hardcap;\n        launchpadInfo.softCap = _softcap;\n        launchpadInfo.liquidityPercentage = _liquidityPercent;\n        launchpadInfo.listingRate = _listingRate;\n        launchpadInfo._launchpadTimePeriod.startTime = _startTime;\n        launchpadInfo._launchpadTimePeriod.endTime = _endTime;\n        launchpadInfo._launchpadTimePeriod.lockPeriod = _lockPeriod;\n    }\n\n    /**\n     * @notice second initilize function sets launchpad information by the launchpad generator\n     * @dev this function can only be called by the launchpad generator\n     * @param _baseToken the token to purchase the sale token\n     * @param _launchpadToken the token to be sold in the launchpad (sale token)\n     * @param _pancakeTokenFee the fee on the sale token by adding liquidity in parts per 1000\n     * @param _referralFee the fee calculated on base fee an token fee in parts per 1000\n     * @param _baseFeeAddress the receiver of the base token fee amount\n     * @param _tokenFeeAddress the receiver of the sale token fee amount\n     * @param _referralAddress the receiver of the sale and base token referral fee amounts\n     */\n    function init2(\n        IERC20Meta _baseToken,\n        IERC20 _launchpadToken,\n        uint256 _pancakeTokenFee,\n        uint256 _referralFee,\n        address payable _baseFeeAddress,\n        address payable _tokenFeeAddress,\n        address payable _referralAddress\n    ) external {\n        require(msg.sender == LAUNCHPAD_GENERATOR, \"FORBIDDEN\");\n\n        launchpadInfo.isBNB = address(_baseToken) == address(WBNB);\n        launchpadInfo.sToken = _launchpadToken;\n        launchpadInfo.bToken = _baseToken;\n        launchpadFeeInfo.pancakeTokenFee = _pancakeTokenFee;\n        launchpadFeeInfo.referralFee = _referralFee;\n\n        launchpadFeeInfo.baseFeeAddress = _baseFeeAddress;\n        launchpadFeeInfo.tokenFeeAddress = _tokenFeeAddress;\n        launchpadFeeInfo.referralFeeAddress = _referralAddress;\n        launchpadStatus.round1Length = launchpadSettings.getRound1Length();\n    }\n\n\n    /*---------------------------------------------------------------------------------------------\n     * -----------------------------------External user functions----------------------------------\n     */\n    /**\n     * @notice has to be called after the launchpad was successful to end the launchpad.\n     * @dev it creates a liquidity pair, locks liquidty and enables the withdraw of users sale tokens.\n     */\n     function addLiquidity() external nonReentrant {\n        require(!launchpadStatus.lpGenerationComplete, \"GENERATION COMPLETE\");\n        require(getLaunchpadStatus() == 2, \"NOT SUCCESS\");\n\n        // abort the launch and set launchpad to failed if a pair already exists on pancakeswap\n        if (\n            launchpadLockForwarder.pancakeswapPairIsInitialised(\n                address(launchpadInfo.sToken),\n                address(launchpadInfo.bToken)\n            )\n        ) {\n            launchpadStatus.forceFailed = true;\n            return;\n        }\n\n        // calculate eneryFi fee on base token\n        uint256 pancakeBaseFee = launchpadStatus\n            .totalBaseCollected\n            .mul(launchpadFeeInfo.pancakeTokenFee)\n            .div(1000);\n\n        // calculate liquidity amount of base token\n        uint256 baseLiquidity = launchpadStatus\n            .totalBaseCollected\n            .sub(pancakeBaseFee)\n            .mul(launchpadInfo.liquidityPercentage)\n            .div(1000);\n\n        // wrap BNB if base token is BNB\n        if (launchpadInfo.isBNB) {\n            WBNB.deposit{value: baseLiquidity}();\n        }\n\n        // approve lock forwarder with base token liquidity amount\n        TransferHelper.safeApprove(\n            address(launchpadInfo.bToken),\n            address(launchpadLockForwarder),\n            baseLiquidity\n        );\n\n        // calculate pancake sale token fee amount\n        uint256 pancakeTokenFee = launchpadStatus\n            .totalTokensSold\n            .mul(launchpadFeeInfo.pancakeTokenFee)\n            .div(1000);\n\n        // calculate equivalent sale token liquidity amount\n        uint256 tokenLiquidity = launchpadStatus\n            .totalTokensSold\n            .sub(pancakeTokenFee)\n            .mul(100 - launchpadInfo.listingRate)\n            .mul(launchpadInfo.liquidityPercentage)\n            .div(100000);\n\n        // approve lock forwarder with sale token liquidity amount\n        TransferHelper.safeApprove(\n            address(launchpadInfo.sToken),\n            address(launchpadLockForwarder),\n            tokenLiquidity\n        );\n\n        // create liquidity pool and lock liquidity\n        launchpadLockForwarder.lockLiquidity(\n            launchpadInfo.bToken,\n            launchpadInfo.sToken,\n            baseLiquidity,\n            tokenLiquidity,\n            block.timestamp.add(launchpadInfo._launchpadTimePeriod.lockPeriod),\n            launchpadInfo.launchpadOwner\n        );\n\n        // calculate referral fee on pancake base fee and kinko token fee\n        if (launchpadFeeInfo.referralFeeAddress != address(0)) {\n            // calculate base token referral fee\n            uint256 referralBaseFee = pancakeBaseFee\n                .mul(launchpadFeeInfo.referralFee)\n                .div(1000);\n            // send base token referral fee to referral receiver address\n            TransferHelper.safeTransferBaseToken(\n                address(launchpadInfo.bToken),\n                launchpadFeeInfo.referralFeeAddress,\n                referralBaseFee,\n                !launchpadInfo.isBNB\n            );\n            pancakeBaseFee = pancakeBaseFee.sub(referralBaseFee);\n\n            // calculate sale token referral fee\n            uint256 referralTokenFee = pancakeTokenFee\n                .mul(launchpadFeeInfo.referralFee)\n                .div(1000);\n            // send sale token referral fee to referral receiver address\n            TransferHelper.safeTransfer(\n                address(launchpadInfo.sToken),\n                launchpadFeeInfo.referralFeeAddress,\n                referralTokenFee\n            );\n            pancakeTokenFee = pancakeTokenFee.sub(referralTokenFee);\n        }\n        // transfer pancake base token fee to base token fee receiver\n        TransferHelper.safeTransferBaseToken(\n            address(launchpadInfo.bToken),\n            launchpadFeeInfo.baseFeeAddress,\n            pancakeBaseFee,\n            !launchpadInfo.isBNB\n        );\n        // transfer pancake sale token fee to sale token fee receiver\n        TransferHelper.safeTransfer(\n            address(launchpadInfo.sToken),\n            launchpadFeeInfo.tokenFeeAddress,\n            pancakeTokenFee\n        );\n\n        uint256 remainingSBalance = launchpadInfo.sToken.balanceOf(\n            address(this)\n        );\n\n        // burn unsold amount of sale tokens\n        if (remainingSBalance > launchpadStatus.totalTokensSold) {\n            uint256 burnAmount = remainingSBalance.sub(\n                launchpadStatus.totalTokensSold\n            );\n            TransferHelper.safeTransfer(\n                address(launchpadInfo.sToken),\n                0x000000000000000000000000000000000000dEaD,\n                burnAmount\n            );\n        }\n\n        // send remaining base token balance to launchpad owner\n        uint256 remainingBaseBalance = launchpadInfo.isBNB\n            ? address(this).balance\n            : launchpadInfo.bToken.balanceOf(address(this));\n        TransferHelper.safeTransferBaseToken(\n            address(launchpadInfo.bToken),\n            launchpadInfo.launchpadOwner,\n            remainingBaseBalance,\n            !launchpadInfo.isBNB\n        );\n\n        // end launchpad by setting pair generation to true\n        launchpadStatus.lpGenerationComplete = true;\n        launchpadStatus.lpGenerationTimestamp = block.timestamp;\n    }\n\n\n    /**\n     * @notice set the status of the launchpad to failed, if a the liquidity pair exists on\n     * pancakeswap before the launchpad is successfully finished\n     * @dev this function can be called by anyone and requires the launchpad to be active\n     */\n    function forceFailIfPairExists() external {\n        require(\n            !launchpadStatus.lpGenerationComplete &&\n                !launchpadStatus.forceFailed,\n            \"LAUNCHPAD NOT ACTIVE\"\n        );\n        if (\n            launchpadLockForwarder.pancakeswapPairIsInitialised(\n                address(launchpadInfo.sToken),\n                address(launchpadInfo.bToken)\n            )\n        ) {\n            launchpadStatus.forceFailed = true;\n        }\n    }\n\n    /**\n     * @notice deposits the given amount of base tokens and calculates the equivalent amount\n     * of sale tokens owed by the caller.\n     * @dev this function uses msg.value and ignores _amount param for BNB as base token.\n     * The correct amount is required for ERC20 base tokens\n     * @param _amount the amount of base token to deposit\n     */\n    function userDeposit(uint256 _amount,  address[] calldata reffers,\n        bytes[] memory reffersSign)\n        external\n        payable\n        nonReentrant\n    {\n        require(getLaunchpadStatus() == 1, \"NOT ACTIVE\");\n\n        // check for whitelisted auction\n        if (launchpadStatus.whitelistOnly) {\n            require(whitelist.contains(msg.sender), \"NOT WHITELISTED\");\n        }\n\n        // check if token balance for round 1 deposit is met\n        // round 1 deposits require the user to hold a specific token and balance\n        if (\n            block.timestamp <\n            launchpadInfo._launchpadTimePeriod.startTime.add(launchpadStatus.round1Length)\n        ) {\n            require(\n                launchpadSettings.userHoldsSufficientRound1Token(msg.sender),\n                \"INSUFFICENT ROUND 1 TOKEN BALANCE\"\n            );\n        }\n     \n\n        // check if user is allowed to spend the desired token and calculate max amount\n        BuyerInfo storage buyer = buyers[msg.sender];\n        uint256 amount_in = launchpadInfo.isBNB ? msg.value : _amount;\n        uint256 allowance = launchpadInfo.maxSpendPerBuyer.sub(\n            buyer.baseDeposited\n        );\n        uint256 remaining = launchpadInfo.hardcap.sub(\n            launchpadStatus.totalBaseCollected\n        );\n        allowance = allowance > remaining ? remaining : allowance;\n        if (amount_in > allowance) {\n            amount_in = allowance;\n        }\n\n        // calculate amount of sale token for deposit\n        uint256 tokensSold = amount_in.mul(10**18).div(\n            launchpadInfo.tokenPrice\n        );\n        require(tokensSold > 0, \"ZERO TOKENS\");\n\n        // increase total number of buyers\n        if (buyer.baseDeposited == 0) {\n            launchpadStatus.numBuyers++;\n        }\n\n        // update buyer token information\n        buyer.baseDeposited = buyer.baseDeposited.add(amount_in);\n        buyer.tokensOwed = buyer.tokensOwed.add(tokensSold);\n\n        //  calculate and add reward for lauchpad prompts\n        uint256 reward = 0;\n        require(reffers.length<=3,\"reffreal not be more than 3 level\");\n        require(reffers.length==reffersSign.length,\"length mismatch\");\n\n        if (reffers.length >0) {\n            for (uint256 i = 0; i < reffers.length; i++) {\n                require(verify(reffers[i],address(this),reffersSign[i]),\"Refferal verification failed\");\n                reward = tokensSold.mul(100).div(10000);\n\n                if (reffers[i] != address(0)) {\n                    rewardTokens[reffers[i]] = reward;\n                }\n            }\n            reward = reward.mul(reffers.length);\n        }\n\n        // update launchpad token information\n        launchpadStatus.totalBaseCollected = launchpadStatus\n            .totalBaseCollected\n            .add(amount_in);\n        launchpadStatus.totalTokensSold = launchpadStatus.totalTokensSold.add(\n            tokensSold + reward\n        );\n\n        // transfer unused BNB back to user if base token is BNB\n        if (launchpadInfo.isBNB && amount_in < msg.value) {\n            msg.sender.transfer(msg.value.sub(amount_in));\n        }\n\n        // transfer non BNB base token to launchpad\n        if (!launchpadInfo.isBNB) {\n            TransferHelper.safeTransferFrom(\n                address(launchpadInfo.bToken),\n                msg.sender,\n                address(this),\n                amount_in\n            );\n        }\n    }\n\n    /**\n     * @notice withdraws deposited base tokens of the caller if the launchpad failed\n     */\n    function userWithdrawBaseTokens() external nonReentrant {\n        require(getLaunchpadStatus() == 3, \"NOT FAILED\");\n\n        // calculate user base tokens to be withdrawn\n        BuyerInfo storage buyer = buyers[msg.sender];\n        uint256 baseDeposited = buyer.baseDeposited;\n        require(baseDeposited > 0, \"NOTHING TO WITHDRAW\");\n\n        // update deposited tokens value\n        launchpadStatus.totalBaseWithdrawn = launchpadStatus\n            .totalBaseWithdrawn\n            .add(buyer.baseDeposited);\n        buyer.baseDeposited = 0;\n\n        // tranfer base token back to the depositor\n        TransferHelper.safeTransferBaseToken(\n            address(launchpadInfo.bToken),\n            msg.sender,\n            baseDeposited,\n            !launchpadInfo.isBNB\n        );\n    }\n\n    /**\n     * @notice withdraws users sale token amount if the launchpad was successful and the\n     * liquidity pool creation is completed.\n     */\n    function userWithdrawTokens() external nonReentrant {\n        require(launchpadStatus.lpGenerationComplete, \"AWAITING LP GENERATION\");\n\n        // get sale tokens amount to withdraw\n        BuyerInfo storage buyer = buyers[msg.sender];\n        uint256 tokensOwed = buyer.tokensOwed;\n        require(tokensOwed > 0, \"NOTHING TO WITHDRAW\");\n\n        // update withdrawn sale token amount\n        launchpadStatus.totalTokensWithdrawn = launchpadStatus\n            .totalTokensWithdrawn\n            .add(buyer.tokensOwed);\n        buyer.tokensOwed = 0;\n\n        // transfer sale token to function caller\n        TransferHelper.safeTransfer(\n            address(launchpadInfo.sToken),\n            msg.sender,\n            tokensOwed\n        );\n    }\n\n    function withdrawRewardTokens() external nonReentrant {\n        require(launchpadStatus.lpGenerationComplete, \"AWAITING LP GENERATION\");\n\n        // get sale tokens amount to withdraw\n        uint256 reward = rewardTokens[msg.sender];\n        require(reward > 0, \"NOTHING TO WITHDRAW\");\n\n        // update withdrawn sale token amount\n        launchpadStatus.totalTokensWithdrawn = launchpadStatus\n            .totalTokensWithdrawn\n            .add(reward);\n        rewardTokens[msg.sender] = 0;\n\n        // transfer sale token to function caller\n        TransferHelper.safeTransfer(\n            address(launchpadInfo.sToken),\n            msg.sender,\n            reward\n        );\n    }\n\n    /*---------------------------------------------------------------------------------------------\n     * ------------------------------------Only Owner functions------------------------------------\n     */\n    modifier onlyLaunchpadOwner() {\n        require(\n            launchpadInfo.launchpadOwner == msg.sender,\n            \"NOT LAUNCHPAD OWNER\"\n        );\n        _;\n    }\n\n    /**\n     * @notice update the whitelisted users by owner. Users can be added to or removed from whitelist\n     * @param _users array of user addresses to be added to or removed from whitelist\n     * @param _add indicating if the given user(s) should be added to(=true) or removed from (=false) whitelist\n     */\n    function editWhitelist(address[] memory _users, bool _add)\n        external\n        onlyLaunchpadOwner\n    {\n        if (_add) {\n            for (uint256 i = 0; i < _users.length; i++) {\n                whitelist.add(_users[i]);\n            }\n        } else {\n            for (uint256 i = 0; i < _users.length; i++) {\n                whitelist.remove(_users[i]);\n            }\n        }\n    }\n\n    /**\n     * @notice withdraws all sale tokens by launchpad owner if the launchpad failed\n     * the sale tokens are sent to the launchpad owner address\n     */\n    function ownerWithdrawTokens() external onlyLaunchpadOwner {\n        require(getLaunchpadStatus() == 3, \"NOT FAILED\");\n        TransferHelper.safeTransfer(\n            address(launchpadInfo.sToken),\n            launchpadInfo.launchpadOwner,\n            launchpadInfo.sToken.balanceOf(address(this))\n        );\n    }\n\n    /**\n     * @notice sets if the launchpad is only for whitelisted users by launchpad owner\n     */\n    function setWhitelistFlag(bool _flag) external onlyLaunchpadOwner {\n        launchpadStatus.whitelistOnly = _flag;\n    }\n\n    /**\n     * @notice updates the start and end time of the launchpad by launchpad owner\n     */\n    function updateDuration(uint256 _startTime, uint256 _endTime)\n        external\n        onlyLaunchpadOwner\n    {\n        require(\n            getLaunchpadStatus() == 0 &&\n                launchpadInfo._launchpadTimePeriod.startTime > block.timestamp,\n            \"LAUNCHPAD NOT ACTIVE\"\n        );\n        require(\n            _endTime.sub(_startTime) <=\n                launchpadSettings.getMaxLaunchpadLength(),\n            \"DURATION TOO LONG\"\n        );\n        launchpadInfo._launchpadTimePeriod.startTime = _startTime;\n        launchpadInfo._launchpadTimePeriod.endTime = _endTime;\n    }\n\n    /**\n     * @notice updates the limit a single user can spend on the launchpad\n     */\n    function updateMaxSpendLimit(uint256 _maxSpend)\n        external\n        onlyLaunchpadOwner\n    {\n        launchpadInfo.maxSpendPerBuyer = _maxSpend;\n    }\n\n    /*---------------------------------------------------------------------------------------------\n     * ---------------------------------Only Pancake Dev functions--------------------------------\n     */\n    /**\n     * @notice enegyFi developers can force a fail in case of an unintended behaviour\n     * @dev security function to ensure the launchpad can be cancelled at any time to unlock funds\n     */\n    function forceFailByPancake() external {\n        require(msg.sender == KINKO_DEV);\n        launchpadStatus.forceFailed = true;\n    }\n\n    /*---------------------------------------------------------------------------------------------\n     * --------------------------------------Getter functions--------------------------------------\n     */\n    /**\n     * @notice returns the current status of the launchpad\n     */\n    function getLaunchpadStatus() public view returns (uint256) {\n        if (launchpadStatus.forceFailed) {\n            return 3; // launchpad failed\n        }\n        if (\n            (block.timestamp > launchpadInfo._launchpadTimePeriod.endTime) &&\n            (launchpadStatus.totalBaseCollected < launchpadInfo.softCap)\n        ) {\n            return 3; // launchpad failed - softcap not met\n        }\n        if (launchpadStatus.totalBaseCollected >= launchpadInfo.hardcap) {\n            return 2; // launchpad successful - hardcap met\n        }\n        if (\n            (block.timestamp > launchpadInfo._launchpadTimePeriod.endTime) &&\n            (launchpadStatus.totalBaseCollected >= launchpadInfo.softCap)\n        ) {\n            return 2; // launchpad successful - softcap met\n        }\n        if (\n            (block.timestamp >= launchpadInfo._launchpadTimePeriod.startTime) &&\n            (block.timestamp <= launchpadInfo._launchpadTimePeriod.endTime)\n        ) {\n            return 1; // launchpad active\n        }\n        return 0; // launchpad not active yet\n    }\n\n    /**\n     * @notice returns if a user if whitelisted\n     * @param _user address of the user to be checked\n     */\n    function getUserWhitelistStatus(address _user)\n        external\n        view\n        returns (bool)\n    {\n        return whitelist.contains(_user);\n    }\n\n    /**\n     * @notice returns the users address at the given whitelist index\n     * @param _index whitelist index\n     */\n    function getWhitelistedUserAtIndex(uint256 _index)\n        external\n        view\n        returns (address)\n    {\n        return whitelist.at(_index);\n    }\n\n    /**\n     * @notice returns the total number of whitelisted users\n     */\n    function getWhitelistedUsersLength() external view returns (uint256) {\n        return whitelist.length();\n    }\n\n\n    /*---------------------------------------------------------------------------------------------\n     * ------------------------------------Verify Refferals------------------------------------\n     */\n\n    /* 2. Get message hash to sign\n    getMessageHash(\n        0x14723A09ACff6D2A60DcdF7aA4AFf308FDDC160C,\n        123,\n        \"coffee and donuts\",\n        1\n    )\n\n    hash = \"0xcf36ac4f97dc10d91fc2cbb20d718e94a8cbfe0f82eaedc6a4aa38946fb797cd\"\n    */\n    function getMessageHash(\n        address _reffer,\n        address _launchpadAddress\n    ) public pure returns (bytes32) {\n        return keccak256(abi.encodePacked(_reffer,_launchpadAddress));\n    }   \n\n      function getEthSignedMessageHash(bytes32 _messageHash)\n        public\n        pure\n        returns (bytes32)\n    {\n        /*\n        Signature is produced by signing a keccak256 hash with the following format:\n        \"\\x19Ethereum Signed Message\\n\" + len(msg) + msg\n        */\n        return\n            keccak256(\n                abi.encodePacked(\"\\x19Ethereum Signed Message:\\n32\", _messageHash)\n            );\n    }\n\n\n\n    function verify(\n        address _refferal,\n        address _launchpadAddress,\n        bytes memory signature\n    ) public pure returns (bool) {\n        bytes32 messageHash = getMessageHash(_refferal,_launchpadAddress);\n        bytes32 ethSignedMessageHash = getEthSignedMessageHash(messageHash);\n\n        return recoverSigner(ethSignedMessageHash, signature) == _refferal;\n    }\n\n    function recoverSigner(bytes32 _ethSignedMessageHash, bytes memory  _signature)\n        public\n        pure\n        returns (address)\n    {\n        (bytes32 r, bytes32 s, uint8 v) = splitSignature(_signature);\n\n        return ecrecover(_ethSignedMessageHash, v, r, s);\n    }\n\n    function splitSignature(bytes memory  sig)\n        public\n        pure\n        returns (\n            bytes32 r,\n            bytes32 s,\n            uint8 v\n        )\n    {\n        require(sig.length == 65, \"invalid signature length\");\n\n        assembly {\n            /*\n            First 32 bytes stores the length of the signature\n\n            add(sig, 32) = pointer of sig + 32\n            effectively, skips first 32 bytes of signature\n\n            mload(p) loads next 32 bytes starting at the memory address p into memory\n            */\n\n            // first 32 bytes, after the length prefix\n            r := mload(add(sig, 32))\n            // second 32 bytes\n            s := mload(add(sig, 64))\n            // final byte (first byte of the next 32 bytes)\n            v := byte(0, mload(add(sig, 96)))\n        }\n\n        // implicitly return (r, s, v)\n    }\n}\n\n",
	"sourcePath": "/Users/apple/Desktop/datacpoy/BlockChain/kinko-contracts/contracts/Launchpad.sol",
	"compiler": {
		"name": "solc",
		"version": "0.6.12+commit.27d51765.Emscripten.clang"
	},
	"schemaVersion": "3.4.6",
	"updatedAt": "2022-07-22T07:28:11.811Z",
	"devdoc": {
		"kind": "dev",
		"methods": {
			"addLiquidity()": {
				"details": "it creates a liquidity pair, locks liquidty and enables the withdraw of users sale tokens."
			},
			"constructor": {
				"details": "sets initially contract dependend addresses",
				"params": {
					"_launchpadGenerator": "address of the launchpad generator",
					"_launchpadLockForwarder": "address of LanchpadLockForwarder contract",
					"_launchpadSettings": "address of the settings contract",
					"_pancakeDev": "address of the developer account",
					"_wbnb": "address of the wrapped bnb contract"
				}
			},
			"editWhitelist(address[],bool)": {
				"params": {
					"_add": "indicating if the given user(s) should be added to(=true) or removed from (=false) whitelist",
					"_users": "array of user addresses to be added to or removed from whitelist"
				}
			},
			"forceFailByPancake()": {
				"details": "security function to ensure the launchpad can be cancelled at any time to unlock funds"
			},
			"forceFailIfPairExists()": {
				"details": "this function can be called by anyone and requires the launchpad to be active"
			},
			"getUserWhitelistStatus(address)": {
				"params": {
					"_user": "address of the user to be checked"
				}
			},
			"getWhitelistedUserAtIndex(uint256)": {
				"params": {
					"_index": "whitelist index"
				}
			},
			"init1(address,uint256,uint256,uint256,uint256,uint256,uint256,uint256,uint256,uint256,uint256)": {
				"details": "this function can only be called by the launchpad generator",
				"params": {
					"_amount": "the total amount of sale tokens (min 10 000)",
					"_endTime": "the timestamp of the launchpad end",
					"_hardcap": "the maximum amount of tokens to be reached for success",
					"_launchpadOwner": "the owner address of the launchpad",
					"_liquidityPercent": "the percent of locked liquidity in parts per 1000 (min 250)",
					"_listingRate": "the listing rate on pancakeswap",
					"_lockPeriod": "the duration of the locking period in seconds",
					"_maxSpendPerBuyer": "the total amount of base token a specific buyer can spend",
					"_softcap": "the minumum amount of tokens to be reached until end time for success",
					"_startTime": "the timestamp to start launchpad",
					"_tokenPrice": "the amount of sale tokens for one base token"
				}
			},
			"init2(address,address,uint256,uint256,address,address,address)": {
				"details": "this function can only be called by the launchpad generator",
				"params": {
					"_baseFeeAddress": "the receiver of the base token fee amount",
					"_baseToken": "the token to purchase the sale token",
					"_launchpadToken": "the token to be sold in the launchpad (sale token)",
					"_pancakeTokenFee": "the fee on the sale token by adding liquidity in parts per 1000",
					"_referralAddress": "the receiver of the sale and base token referral fee amounts",
					"_referralFee": "the fee calculated on base fee an token fee in parts per 1000",
					"_tokenFeeAddress": "the receiver of the sale token fee amount"
				}
			},
			"userDeposit(uint256,address[],bytes[])": {
				"details": "this function uses msg.value and ignores _amount param for BNB as base token. The correct amount is required for ERC20 base tokens",
				"params": {
					"_amount": "the amount of base token to deposit"
				}
			}
		},
		"version": 1
	},
	"userdoc": {
		"kind": "user",
		"methods": {
			"addLiquidity()": {
				"notice": "has to be called after the launchpad was successful to end the launchpad."
			},
			"editWhitelist(address[],bool)": {
				"notice": "update the whitelisted users by owner. Users can be added to or removed from whitelist"
			},
			"forceFailByPancake()": {
				"notice": "enegyFi developers can force a fail in case of an unintended behaviour"
			},
			"forceFailIfPairExists()": {
				"notice": "set the status of the launchpad to failed, if a the liquidity pair exists on pancakeswap before the launchpad is successfully finished"
			},
			"getLaunchpadStatus()": {
				"notice": "returns the current status of the launchpad"
			},
			"getUserWhitelistStatus(address)": {
				"notice": "returns if a user if whitelisted"
			},
			"getWhitelistedUserAtIndex(uint256)": {
				"notice": "returns the users address at the given whitelist index"
			},
			"getWhitelistedUsersLength()": {
				"notice": "returns the total number of whitelisted users"
			},
			"init1(address,uint256,uint256,uint256,uint256,uint256,uint256,uint256,uint256,uint256,uint256)": {
				"notice": "first initilize function sets launchpad information by the launchpad generator"
			},
			"init2(address,address,uint256,uint256,address,address,address)": {
				"notice": "second initilize function sets launchpad information by the launchpad generator"
			},
			"ownerWithdrawTokens()": {
				"notice": "withdraws all sale tokens by launchpad owner if the launchpad failed the sale tokens are sent to the launchpad owner address"
			},
			"setWhitelistFlag(bool)": {
				"notice": "sets if the launchpad is only for whitelisted users by launchpad owner"
			},
			"updateDuration(uint256,uint256)": {
				"notice": "updates the start and end time of the launchpad by launchpad owner"
			},
			"updateMaxSpendLimit(uint256)": {
				"notice": "updates the limit a single user can spend on the launchpad"
			},
			"userDeposit(uint256,address[],bytes[])": {
				"notice": "deposits the given amount of base tokens and calculates the equivalent amount of sale tokens owed by the caller."
			},
			"userWithdrawBaseTokens()": {
				"notice": "withdraws deposited base tokens of the caller if the launchpad failed"
			},
			"userWithdrawTokens()": {
				"notice": "withdraws users sale token amount if the launchpad was successful and the liquidity pool creation is completed."
			}
		},
		"version": 1
	}
}