{
  "contractName": "LaunchpadGenerator",
  "abi": [
    {
      "inputs": [
        {
          "internalType": "address",
          "name": "_launchpadFactory",
          "type": "address"
        },
        {
          "internalType": "address",
          "name": "_launchpadSettings",
          "type": "address"
        },
        {
          "internalType": "address",
          "name": "_wbnb",
          "type": "address"
        },
        {
          "internalType": "address",
          "name": "_launchpadLockForwarder",
          "type": "address"
        },
        {
          "internalType": "address",
          "name": "_pancakeDev",
          "type": "address"
        }
      ],
      "stateMutability": "nonpayable",
      "type": "constructor"
    },
    {
      "inputs": [],
      "name": "KINKO_DEV",
      "outputs": [
        {
          "internalType": "address",
          "name": "",
          "type": "address"
        }
      ],
      "stateMutability": "view",
      "type": "function",
      "constant": true
    },
    {
      "inputs": [],
      "name": "LAUNCHPAD_FACTORY",
      "outputs": [
        {
          "internalType": "address",
          "name": "",
          "type": "address"
        }
      ],
      "stateMutability": "view",
      "type": "function",
      "constant": true
    },
    {
      "inputs": [],
      "name": "LAUNCHPAD_LOCK_FORWARDER",
      "outputs": [
        {
          "internalType": "address",
          "name": "",
          "type": "address"
        }
      ],
      "stateMutability": "view",
      "type": "function",
      "constant": true
    },
    {
      "inputs": [],
      "name": "LAUNCHPAD_SETTINGS",
      "outputs": [
        {
          "internalType": "contract ILaunchpadSettings",
          "name": "",
          "type": "address"
        }
      ],
      "stateMutability": "view",
      "type": "function",
      "constant": true
    },
    {
      "inputs": [],
      "name": "WBNB",
      "outputs": [
        {
          "internalType": "address",
          "name": "",
          "type": "address"
        }
      ],
      "stateMutability": "view",
      "type": "function",
      "constant": true
    },
    {
      "inputs": [
        {
          "internalType": "address payable",
          "name": "_launchpadOwner",
          "type": "address"
        },
        {
          "internalType": "contract IERC20",
          "name": "_launchpadToken",
          "type": "address"
        },
        {
          "internalType": "contract IERC20Meta",
          "name": "_baseToken",
          "type": "address"
        },
        {
          "internalType": "address payable",
          "name": "_referralAddress",
          "type": "address"
        },
        {
          "internalType": "uint256[9]",
          "name": "uint_params",
          "type": "uint256[9]"
        }
      ],
      "name": "createLaunchpad",
      "outputs": [],
      "stateMutability": "payable",
      "type": "function",
      "payable": true
    },
    {
      "inputs": [
        {
          "internalType": "uint256",
          "name": "_amount",
          "type": "uint256"
        },
        {
          "internalType": "uint256",
          "name": "_listingRate",
          "type": "uint256"
        },
        {
          "internalType": "uint256",
          "name": "_liquidityRate",
          "type": "uint256"
        }
      ],
      "name": "calculateAmountRequired",
      "outputs": [
        {
          "internalType": "uint256",
          "name": "",
          "type": "uint256"
        }
      ],
      "stateMutability": "view",
      "type": "function",
      "constant": true
    }
  ],
  "bytecode": "0x61012060405234801561001157600080fd5b50604051614039380380614039833981810160405260a081101561003457600080fd5b508051602082015160408301516060840151608090940151929391929091906001600160a01b0385161580159061007357506001600160a01b03841615155b801561008757506001600160a01b03831615155b801561009b57506001600160a01b03821615155b80156100af57506001600160a01b03811615155b6100ef576040805162461bcd60e51b815260206004820152600c60248201526b5a45524f204144445245535360a01b604482015290519081900360640190fd5b6001600160601b0319606095861b811660805293851b84166101005290841b831660a052831b821660c05290911b1660e05260805160601c60a05160601c60c05160601c60e05160601c6101005160601c613e756101c4600039806101e752806104035280610493528061051e52806105e452806106895280610738528061085952806109db5280610b9a5280610c375280610cc35280610d4f5280610ee15250806102d552806109ba5250806101c05280610a1d5250806109fc5280610f055250806102f95280610e505250613e756000f3fe6080604052600436106100705760003560e01c8063c1671c501161004e578063c1671c5014610103578063d1d45fa014610118578063d2f5640714610194578063f8619d8c146101a957610070565b8063182cc369146100755780632fb7245d146100a65780638dd95002146100ee575b600080fd5b34801561008157600080fd5b5061008a6101be565b604080516001600160a01b039092168252519081900360200190f35b3480156100b257600080fd5b506100dc600480360360608110156100c957600080fd5b50803590602081013590604001356101e2565b60408051918252519081900360200190f35b3480156100fa57600080fd5b5061008a6102d3565b34801561010f57600080fd5b5061008a6102f7565b61019260048036036101a081101561012f57600080fd5b6040805161012081810183526001600160a01b0385358116956020810135821695948101358216946060820135909216939181019290916101a08301916080840190600990839083908082843760009201919091525091945061031b9350505050565b005b3480156101a057600080fd5b5061008a610edf565b3480156101b557600080fd5b5061008a610f03565b7f000000000000000000000000000000000000000000000000000000000000000081565b6000807f00000000000000000000000000000000000000000000000000000000000000006001600160a01b031663355468506040518163ffffffff1660e01b815260040160206040518083038186803b15801561023e57600080fd5b505afa158015610252573d6000803e3d6000fd5b505050506040513d602081101561026857600080fd5b5051905060006102846103e861027e8885610f27565b90610f8a565b905060006102af6305f5e10061027e6103e88690036102a989818d60648e9003610f27565b90610f27565b905060006102c7836102c18a85610ff1565b90610ff1565b98975050505050505050565b7f000000000000000000000000000000000000000000000000000000000000000081565b7f000000000000000000000000000000000000000000000000000000000000000081565b610323611206565b815180825260208084015190830181905260408085015190840152606080850151908401526080808501519084015260a0808501519084015260c084015160e08085019190915284015161010080850191909152840151610120840152610397919061027e90670de0b6b3a7640000610f27565b60c082018190526020820151825190916103be91670de0b6b3a76400009161027e91610f27565b14610401576040805162461bcd60e51b815260206004820152600e60248201526d494e56414c494420504152414d5360901b604482015290519081900360640190fd5b7f00000000000000000000000000000000000000000000000000000000000000006001600160a01b031663be4130546040518163ffffffff1660e01b815260040160206040518083038186803b15801561045a57600080fd5b505afa15801561046e573d6000803e3d6000fd5b505050506040513d602081101561048457600080fd5b505160e0820151101561051c577f00000000000000000000000000000000000000000000000000000000000000006001600160a01b031663be4130546040518163ffffffff1660e01b815260040160206040518083038186803b1580156104ea57600080fd5b505afa1580156104fe573d6000803e3d6000fd5b505050506040513d602081101561051457600080fd5b505160e08201525b7f00000000000000000000000000000000000000000000000000000000000000006001600160a01b03166318690c016040518163ffffffff1660e01b815260040160206040518083038186803b15801561057557600080fd5b505afa158015610589573d6000803e3d6000fd5b505050506040513d602081101561059f57600080fd5b505134146105e2576040805162461bcd60e51b815260206004820152600b60248201526a119151481393d50813515560aa1b604482015290519081900360640190fd5b7f00000000000000000000000000000000000000000000000000000000000000006001600160a01b031663146c4be76040518163ffffffff1660e01b815260040160206040518083038186803b15801561063b57600080fd5b505afa15801561064f573d6000803e3d6000fd5b505050506040513d602081101561066557600080fd5b5051604080516318690c0160e01b815290516001600160a01b03928316926108fc927f0000000000000000000000000000000000000000000000000000000000000000909116916318690c0191600480820192602092909190829003018186803b1580156106d257600080fd5b505afa1580156106e6573d6000803e3d6000fd5b505050506040513d60208110156106fc57600080fd5b50516040518115909202916000818181858888f19350505050158015610726573d6000803e3d6000fd5b506001600160a01b03831615610813577f00000000000000000000000000000000000000000000000000000000000000006001600160a01b0316630b9714ca846040518263ffffffff1660e01b815260040180826001600160a01b0316815260200191505060206040518083038186803b1580156107a357600080fd5b505afa1580156107b7573d6000803e3d6000fd5b505050506040513d60208110156107cd57600080fd5b5051610813576040805162461bcd60e51b815260206004820152601060248201526f1253959053125108149151915494905360821b604482015290519081900360640190fd5b80516127101115610857576040805162461bcd60e51b81526020600482015260096024820152684d494e20444956495360b81b604482015290519081900360640190fd5b7f00000000000000000000000000000000000000000000000000000000000000006001600160a01b031663cef6fc0b6040518163ffffffff1660e01b815260040160206040518083038186803b1580156108b057600080fd5b505afa1580156108c4573d6000803e3d6000fd5b505050506040513d60208110156108da57600080fd5b50516101008201516101208301516108f19161104b565b111561093a576040805162461bcd60e51b8152602060048201526013602482015272125395905312510815125351481411549253d1606a1b604482015290519081900360640190fd5b60fa81606001511015801561095557506103e8816060015111155b61099a576040805162461bcd60e51b8152602060048201526011602482015270494e56414c4944204c495155494449545960781b604482015290519081900360640190fd5b60006109b38260000151836080015184606001516101e2565b90506000307f00000000000000000000000000000000000000000000000000000000000000007f00000000000000000000000000000000000000000000000000000000000000007f00000000000000000000000000000000000000000000000000000000000000007f0000000000000000000000000000000000000000000000000000000000000000604051610a4890611259565b6001600160a01b039586168152938516602085015291841660408085019190915290841660608401529216608082015290519081900360a001906000f080158015610a97573d6000803e3d6000fd5b509050610aa6873383856110a8565b806001600160a01b031663b93ac7928985600001518660c001518760a00151886020015189604001518a606001518b608001518c61010001518d61012001518e60e001516040518c63ffffffff1660e01b8152600401808c6001600160a01b031681526020018b81526020018a81526020018981526020018881526020018781526020018681526020018581526020018481526020018381526020018281526020019b505050505050505050505050600060405180830381600087803b158015610b6f57600080fd5b505af1158015610b83573d6000803e3d6000fd5b50505050806001600160a01b03166339848cd187897f00000000000000000000000000000000000000000000000000000000000000006001600160a01b031663355468506040518163ffffffff1660e01b815260040160206040518083038186803b158015610bf157600080fd5b505afa158015610c05573d6000803e3d6000fd5b505050506040513d6020811015610c1b57600080fd5b50516040805163f6c0812f60e01b815290516001600160a01b037f0000000000000000000000000000000000000000000000000000000000000000169163f6c0812f916004808301926020929190829003018186803b158015610c7d57600080fd5b505afa158015610c91573d6000803e3d6000fd5b505050506040513d6020811015610ca757600080fd5b50516040805163146c4be760e01b815290516001600160a01b037f0000000000000000000000000000000000000000000000000000000000000000169163146c4be7916004808301926020929190829003018186803b158015610d0957600080fd5b505afa158015610d1d573d6000803e3d6000fd5b505050506040513d6020811015610d3357600080fd5b5051604080516347a2085f60e01b815290516001600160a01b037f000000000000000000000000000000000000000000000000000000000000000016916347a2085f916004808301926020929190829003018186803b158015610d9557600080fd5b505afa158015610da9573d6000803e3d6000fd5b505050506040513d6020811015610dbf57600080fd5b5051604080516001600160e01b031960e08a901b1681526001600160a01b03978816600482015295871660248701526044860194909452606485019290925284166084840152831660a483015291891660c4820152905160e480830192600092919082900301818387803b158015610e3657600080fd5b505af1158015610e4a573d6000803e3d6000fd5b505050507f00000000000000000000000000000000000000000000000000000000000000006001600160a01b03166377eb877c826040518263ffffffff1660e01b815260040180826001600160a01b03168152602001915050600060405180830381600087803b158015610ebd57600080fd5b505af1158015610ed1573d6000803e3d6000fd5b505050505050505050505050565b7f000000000000000000000000000000000000000000000000000000000000000081565b7f000000000000000000000000000000000000000000000000000000000000000081565b600082610f3657506000610f84565b82820282848281610f4357fe5b0414610f815760405162461bcd60e51b815260040180806020018281038252602181526020018062003dfb6021913960400191505060405180910390fd5b90505b92915050565b6000808211610fe0576040805162461bcd60e51b815260206004820152601a60248201527f536166654d6174683a206469766973696f6e206279207a65726f000000000000604482015290519081900360640190fd5b818381610fe957fe5b049392505050565b600082820183811015610f81576040805162461bcd60e51b815260206004820152601b60248201527f536166654d6174683a206164646974696f6e206f766572666c6f770000000000604482015290519081900360640190fd5b6000828211156110a2576040805162461bcd60e51b815260206004820152601e60248201527f536166654d6174683a207375627472616374696f6e206f766572666c6f770000604482015290519081900360640190fd5b50900390565b604080516001600160a01b0385811660248301528481166044830152606480830185905283518084039091018152608490920183526020820180516001600160e01b03166323b872dd60e01b17815292518251600094606094938a169392918291908083835b6020831061112d5780518252601f19909201916020918201910161110e565b6001836020036101000a0380198251168184511680821785525050505050509050019150506000604051808303816000865af19150503d806000811461118f576040519150601f19603f3d011682016040523d82523d6000602084013e611194565b606091505b50915091508180156111c25750805115806111c257508080602001905160208110156111bf57600080fd5b50515b6111fe5760405162461bcd60e51b815260040180806020018281038252602481526020018062003e1c6024913960400191505060405180910390fd5b505050505050565b604051806101400160405280600081526020016000815260200160008152602001600081526020016000815260200160008152602001600081526020016000815260200160008152602001600081525090565b612b9380620012688339019056fe6101206040523480156200001257600080fd5b5060405162002b9338038062002b938339810160408190526200003591620000fa565b60016000556001600160a01b038516158015906200005b57506001600160a01b03841615155b80156200007057506001600160a01b03831615155b80156200008557506001600160a01b03821615155b80156200009a57506001600160a01b03811615155b620000c25760405162461bcd60e51b8152600401620000b99062000179565b60405180910390fd5b6001600160601b0319606095861b811660e05293851b841660c05291841b831660a052831b821660805290911b1661010052620001b8565b600080600080600060a0868803121562000112578081fd5b85516200011f816200019f565b602087015190955062000132816200019f565b604087015190945062000145816200019f565b606087015190935062000158816200019f565b60808701519092506200016b816200019f565b809150509295509295909350565b6020808252600c908201526b5a45524f204144445245535360a01b604082015260600190565b6001600160a01b0381168114620001b557600080fd5b50565b60805160601c60a05160601c60c05160601c60e05160601c6101005160601c61295062000243600039806108945250806107185280610f5a528061118052508061076a5280610d59528061133352508061058952806107fc52806109275280610a59525080610e4a528061123652806113b852806114395280611471528061180052506129506000f3fe6080604052600436106101b75760003560e01c8063927ac44d116100ec578063bff75f531161008a578063e8078d9411610064578063e8078d9414610494578063e86e6340146104a9578063f5ab16cc146104be578063fe8121de146104de576101b7565b8063bff75f531461043f578063c39e7dbb1461046a578063d1ab011e1461047f576101b7565b8063a94e7e80116100c6578063a94e7e80146103c8578063b93ac792146103dd578063b9863a44146103fd578063bba886311461042a576101b7565b8063927ac44d1461036557806397a993aa14610385578063a19ab116146103b3576101b7565b80634bb18e3f1161015957806376936e531161013357806376936e53146102f7578063899548861461030a5780638c301df8146103305780638dd9500214610350576101b7565b80634bb18e3f146102935780636933eb15146102a8578063706b63c6146102ca576101b7565b806338b903331161019557806338b903331461021357806339848cd11461023e5780633d2961221461025e5780634200e4fc14610273576101b7565b806324ef1bc7146101bc5780632ad1f1db146101de578063370243dc146101fe575b600080fd5b3480156101c857600080fd5b506101dc6101d7366004612203565b6104f3565b005b3480156101ea57600080fd5b506101dc6101f9366004612264565b61052b565b34801561020a57600080fd5b506101dc61064b565b34801561021f57600080fd5b50610228610708565b6040516102359190612888565b60405180910390f35b34801561024a57600080fd5b506101dc610259366004612180565b61070d565b34801561026a57600080fd5b506101dc610889565b34801561027f57600080fd5b506101dc61028e366004612148565b6108cd565b34801561029f57600080fd5b50610228610913565b3480156102b457600080fd5b506102bd610925565b60405161023591906122c4565b3480156102d657600080fd5b506102df610949565b6040516102359c9b9a999897969594939291906122d8565b6101dc610305366004612233565b6109a5565b34801561031657600080fd5b5061031f610d21565b60405161023595949392919061289f565b34801561033c57600080fd5b506102bd61034b366004612203565b610d44565b34801561035c57600080fd5b506102bd610d57565b34801561037157600080fd5b506101dc610380366004612089565b610d7b565b34801561039157600080fd5b506103a56103a0366004611ff3565b610e2f565b604051610235929190612891565b3480156103bf57600080fd5b506102bd610e48565b3480156103d457600080fd5b506101dc610e6c565b3480156103e957600080fd5b506101dc6103f836600461200f565b610f4f565b34801561040957600080fd5b5061041d610418366004611ff3565b610fe4565b60405161023591906123be565b34801561043657600080fd5b50610228610ff1565b34801561044b57600080fd5b50610454611084565b6040516102359a999897969594939291906123c9565b34801561047657600080fd5b506101dc6110c2565b34801561048b57600080fd5b506102bd61117e565b3480156104a057600080fd5b506101dc6111a2565b3480156104b557600080fd5b506101dc6117ac565b3480156104ca57600080fd5b506102286104d9366004611ff3565b61189e565b3480156104ea57600080fd5b506101dc6118b0565b6001546001600160a01b031633146105265760405162461bcd60e51b815260040161051d906127bb565b60405180910390fd5b600655565b6001546001600160a01b031633146105555760405162461bcd60e51b815260040161051d906127bb565b61055d610ff1565b15801561056b5750600c5442105b6105875760405162461bcd60e51b815260040161051d9061278d565b7f00000000000000000000000000000000000000000000000000000000000000006001600160a01b031663cef6fc0b6040518163ffffffff1660e01b815260040160206040518083038186803b1580156105e057600080fd5b505afa1580156105f4573d6000803e3d6000fd5b505050506040513d601f19601f82011682018060405250810190610618919061221b565b6106228284611962565b11156106405760405162461bcd60e51b815260040161051d90612502565b600c91909155600d55565b6002600054141561066e5760405162461bcd60e51b815260040161051d9061282c565b6002600055601454610100900460ff1661069a5760405162461bcd60e51b815260040161051d906126ef565b336000908152601d6020526040902054806106c75760405162461bcd60e51b815260040161051d90612589565b6019546106d4908261198a565b601955336000818152601d6020526040812055600254610700916001600160a01b0390911690836119b6565b506001600055565b600181565b336001600160a01b037f000000000000000000000000000000000000000000000000000000000000000016146107555760405162461bcd60e51b815260040161051d906126a8565b600e805460ff19166001600160a01b038981167f00000000000000000000000000000000000000000000000000000000000000008216811492909217909255600280548984166001600160a01b031991821617909155600380548216909217909155600f8790556010869055601180548684169083161790556012805485841690831617905560138054848416921691909117905560408051635564890b60e11b815290517f00000000000000000000000000000000000000000000000000000000000000009092169163aac9121691600481810192602092909190829003018186803b15801561084557600080fd5b505afa158015610859573d6000803e3d6000fd5b505050506040513d601f19601f8201168201806040525081019061087d919061221b565b601b5550505050505050565b336001600160a01b037f000000000000000000000000000000000000000000000000000000000000000016146108be57600080fd5b6014805460ff19166001179055565b6001546001600160a01b031633146108f75760405162461bcd60e51b815260040161051d906127bb565b60148054911515620100000262ff000019909216919091179055565b600061091f601e611aa4565b90505b90565b7f000000000000000000000000000000000000000000000000000000000000000081565b600154600254600354600454600554600654600754600854600954600a5460408051606081018252600b548152600c546020820152600d5491810191909152600e546001600160a01b039b8c169b9a8b169a9099169860ff168c565b600260005414156109c85760405162461bcd60e51b815260040161051d9061282c565b60026000556109d5610ff1565b6001146109f45760405162461bcd60e51b815260040161051d9061265b565b60145462010000900460ff1615610a2c57610a10601e33611aaf565b610a2c5760405162461bcd60e51b815260040161051d9061267f565b601b54600c54610a3b9161198a565b421015610afa57604051634a6da48160e01b81526001600160a01b037f00000000000000000000000000000000000000000000000000000000000000001690634a6da48190610a8e9033906004016122c4565b60206040518083038186803b158015610aa657600080fd5b505afa158015610aba573d6000803e3d6000fd5b505050506040513d601f19601f82011682018060405250810190610ade9190612164565b610afa5760405162461bcd60e51b815260040161051d90612448565b336000908152601c60205260408120600e5490919060ff16610b1c5783610b1e565b345b8254600654919250600091610b3291611962565b601654600854919250600091610b4791611962565b9050808211610b565781610b58565b805b915081831115610b66578192505b600554600090610b8890610b8286670de0b6b3a7640000611ac4565b90611afe565b905060008111610baa5760405162461bcd60e51b815260040161051d90612863565b8454610bba57601a805460010190555b8454610bc6908561198a565b85556001850154610bd7908261198a565b60018601556000805b6003811015610c7257610bfa612710610b82856064611ac4565b91506000888260038110610c0a57fe5b602002016020810190610c1d9190611ff3565b6001600160a01b031614610c6a5781601d60008a8460038110610c3c57fe5b602002016020810190610c4f9190611ff3565b6001600160a01b031681526020810191909152604001600020555b600101610be0565b50610c7e816003611ac4565b9050601654610c8d908661198a565b601655601854610c9f9083830161198a565b601855600e5460ff168015610cb357503485105b15610cf057336108fc610cc63488611962565b6040518115909202916000818181858888f19350505050158015610cee573d6000803e3d6000fd5b505b600e5460ff16610d1257600354610d12906001600160a01b0316333088611b30565b50506001600055505050505050565b600f546010546011546012546013546001600160a01b0392831692918216911685565b6000610d51601e83611c21565b92915050565b7f000000000000000000000000000000000000000000000000000000000000000081565b6001546001600160a01b03163314610da55760405162461bcd60e51b815260040161051d906127bb565b8015610ded5760005b8251811015610de757610dde838281518110610dc657fe5b6020026020010151601e611c2d90919063ffffffff16565b50600101610dae565b50610e2b565b60005b8251811015610e2957610e20838281518110610e0857fe5b6020026020010151601e611c4290919063ffffffff16565b50600101610df0565b505b5050565b601c602052600090815260409020805460019091015482565b7f000000000000000000000000000000000000000000000000000000000000000081565b6001546001600160a01b03163314610e965760405162461bcd60e51b815260040161051d906127bb565b610e9e610ff1565b600314610ebd5760405162461bcd60e51b815260040161051d906126cb565b6002546001546040516370a0823160e01b8152610f4d926001600160a01b0390811692169082906370a0823190610ef89030906004016122c4565b60206040518083038186803b158015610f1057600080fd5b505afa158015610f24573d6000803e3d6000fd5b505050506040513d601f19601f82011682018060405250810190610f48919061221b565b6119b6565b565b336001600160a01b037f00000000000000000000000000000000000000000000000000000000000000001614610f975760405162461bcd60e51b815260040161051d906126a8565b600180546001600160a01b0319166001600160a01b039c909c169b909b17909a55600498909855600596909655600694909455600892909255600755600955600a55600c55600d55600b55565b6000610d51601e83611aaf565b60145460009060ff161561100757506003610922565b600d544211801561101b5750600754601654105b1561102857506003610922565b6008546016541061103b57506002610922565b600d5442118015611050575060075460165410155b1561105d57506002610922565b600c5442108015906110715750600d544211155b1561107e57506001610922565b50600090565b601454601554601654601754601854601954601a54601b5460ff8089169861010081048216986201000090910490911696909590949093909290918a565b600260005414156110e55760405162461bcd60e51b815260040161051d9061282c565b60026000556110f2610ff1565b6003146111115760405162461bcd60e51b815260040161051d906126cb565b336000908152601c6020526040902080548061113f5760405162461bcd60e51b815260040161051d90612589565b815460175461114d9161198a565b60175560008255600354600e54611175916001600160a01b0316903390849060ff1615611c57565b50506001600055565b7f000000000000000000000000000000000000000000000000000000000000000081565b600260005414156111c55760405162461bcd60e51b815260040161051d9061282c565b6002600055601454610100900460ff16156111f25760405162461bcd60e51b815260040161051d90612760565b6111fa610ff1565b6002146112195760405162461bcd60e51b815260040161051d9061252d565b60025460035460405163b2b6d1a560e01b81526001600160a01b037f000000000000000000000000000000000000000000000000000000000000000081169363b2b6d1a59361127093918316921690600401612380565b60206040518083038186803b15801561128857600080fd5b505afa15801561129c573d6000803e3d6000fd5b505050506040513d601f19601f820116820180604052508101906112c09190612164565b156112d7576014805460ff191660011790556117a5565b600f546016546000916112f2916103e891610b829190611ac4565b905060006113236103e8610b8260016008015461131d8660146002015461196290919063ffffffff16565b90611ac4565b600e5490915060ff16156113a6577f00000000000000000000000000000000000000000000000000000000000000006001600160a01b031663d0e30db0826040518263ffffffff1660e01b81526004016000604051808303818588803b15801561138c57600080fd5b505af11580156113a0573d6000803e3d6000fd5b50505050505b6003546113dd906001600160a01b03167f000000000000000000000000000000000000000000000000000000000000000083611d85565b600f546018546000916113f8916103e891610b829190611ac4565b600954600a5460185492935060009261142492620186a092610b829261131d9160640390829089611962565b60025490915061145e906001600160a01b03167f000000000000000000000000000000000000000000000000000000000000000083611d85565b600354600254600b546001600160a01b037f0000000000000000000000000000000000000000000000000000000000000000811693632277d0e39390821692911690879086906114af90429061198a565b6001546040516001600160e01b031960e089901b1681526114e19695949392916001600160a01b031690600401612410565b600060405180830381600087803b1580156114fb57600080fd5b505af115801561150f573d6000803e3d6000fd5b50506013546001600160a01b03161591506115cc90505760006115466103e8610b82600f6001015488611ac490919063ffffffff16565b600354601354600e54929350611571926001600160a01b039283169290911690849060ff1615611c57565b61157b8582611962565b9450600061159d6103e8610b82600f6001015487611ac490919063ffffffff16565b6002546013549192506115bd916001600160a01b039182169116836119b6565b6115c78482611962565b935050505b600354601154600e546115f2926001600160a01b03908116921690879060ff1615611c57565b60025460125461160f916001600160a01b039081169116846119b6565b6002546040516370a0823160e01b81526000916001600160a01b0316906370a08231906116409030906004016122c4565b60206040518083038186803b15801561165857600080fd5b505afa15801561166c573d6000803e3d6000fd5b505050506040513d601f19601f82011682018060405250810190611690919061221b565b6018549091508111156116cc576018546000906116ae908390611962565b6002549091506116ca906001600160a01b031661dead836119b6565b505b600e5460009060ff1661175e576003546040516370a0823160e01b81526001600160a01b03909116906370a08231906117099030906004016122c4565b60206040518083038186803b15801561172157600080fd5b505afa158015611735573d6000803e3d6000fd5b505050506040513d601f19601f82011682018060405250810190611759919061221b565b611760565b475b600354600154600e5492935061178b926001600160a01b039283169290911690849060ff1615611c57565b50506014805461ff00191661010017905550504260155550505b6001600055565b601454610100900460ff161580156117c7575060145460ff16155b6117e35760405162461bcd60e51b815260040161051d9061278d565b60025460035460405163b2b6d1a560e01b81526001600160a01b037f000000000000000000000000000000000000000000000000000000000000000081169363b2b6d1a59361183a93918316921690600401612380565b60206040518083038186803b15801561185257600080fd5b505afa158015611866573d6000803e3d6000fd5b505050506040513d601f19601f8201168201806040525081019061188a9190612164565b15610f4d576014805460ff19166001179055565b601d6020526000908152604090205481565b600260005414156118d35760405162461bcd60e51b815260040161051d9061282c565b6002600055601454610100900460ff166118ff5760405162461bcd60e51b815260040161051d906126ef565b336000908152601c602052604090206001810154806119305760405162461bcd60e51b815260040161051d90612589565b60018201546019546119419161198a565b60195560006001830155600254611175906001600160a01b031633836119b6565b6000828211156119845760405162461bcd60e51b815260040161051d906125ed565b50900390565b6000828201838110156119af5760405162461bcd60e51b815260040161051d90612552565b9392505050565b60006060846001600160a01b031663a9059cbb85856040516024016119dc929190612367565b6040516020818303038152906040529060e01b6020820180516001600160e01b038381831617835250505050604051611a15919061228b565b6000604051808303816000865af19150503d8060008114611a52576040519150601f19603f3d011682016040523d82523d6000602084013e611a57565b606091505b5091509150818015611a81575080511580611a81575080806020019051810190611a819190612164565b611a9d5760405162461bcd60e51b815260040161051d906124cb565b5050505050565b6000610d5182611e6c565b60006119af836001600160a01b038416611e70565b600082611ad357506000610d51565b82820282848281611ae057fe5b04146119af5760405162461bcd60e51b815260040161051d9061271f565b6000808211611b1f5760405162461bcd60e51b815260040161051d90612624565b818381611b2857fe5b049392505050565b60006060856001600160a01b03166323b872dd868686604051602401611b589392919061239a565b6040516020818303038152906040529060e01b6020820180516001600160e01b038381831617835250505050604051611b91919061228b565b6000604051808303816000865af19150503d8060008114611bce576040519150601f19603f3d011682016040523d82523d6000602084013e611bd3565b606091505b5091509150818015611bfd575080511580611bfd575080806020019051810190611bfd9190612164565b611c195760405162461bcd60e51b815260040161051d906127e8565b505050505050565b60006119af8383611e88565b60006119af836001600160a01b038416611ecd565b60006119af836001600160a01b038416611f17565b80611c98576040516001600160a01b0384169083156108fc029084906000818181858888f19350505050158015611c92573d6000803e3d6000fd5b50611d7f565b60006060856001600160a01b031663a9059cbb8686604051602401611cbe929190612367565b6040516020818303038152906040529060e01b6020820180516001600160e01b038381831617835250505050604051611cf7919061228b565b6000604051808303816000865af19150503d8060008114611d34576040519150601f19603f3d011682016040523d82523d6000602084013e611d39565b606091505b5091509150818015611d63575080511580611d63575080806020019051810190611d639190612164565b611c195760405162461bcd60e51b815260040161051d906124cb565b50505050565b60006060846001600160a01b031663095ea7b38585604051602401611dab929190612367565b6040516020818303038152906040529060e01b6020820180516001600160e01b038381831617835250505050604051611de4919061228b565b6000604051808303816000865af19150503d8060008114611e21576040519150601f19603f3d011682016040523d82523d6000602084013e611e26565b606091505b5091509150818015611e50575080511580611e50575080806020019051810190611e509190612164565b611a9d5760405162461bcd60e51b815260040161051d906125b6565b5490565b60009081526001919091016020526040902054151590565b81546000908210611eab5760405162461bcd60e51b815260040161051d90612489565b826000018281548110611eba57fe5b9060005260206000200154905092915050565b6000611ed98383611e70565b611f0f57508154600181810184556000848152602080822090930184905584548482528286019093526040902091909155610d51565b506000610d51565b60008181526001830160205260408120548015611fd35783546000198083019190810190600090879083908110611f4a57fe5b9060005260206000200154905080876000018481548110611f6757fe5b600091825260208083209091019290925582815260018981019092526040902090840190558654879080611f9757fe5b60019003818190600052602060002001600090559055866001016000878152602001908152602001600020600090556001945050505050610d51565b6000915050610d51565b8035610d51816128f4565b8035610d518161290c565b600060208284031215612004578081fd5b81356119af816128f4565b60008060008060008060008060008060006101608c8e031215612030578687fd5b8b3561203b816128f4565b9d60208d01359d5060408d01359c60608101359c5060808101359b5060a08101359a5060c0810135995060e08101359850610100810135975061012081013596506101400135945092505050565b6000806040838503121561209b578182fd5b823567ffffffffffffffff808211156120b2578384fd5b818501915085601f8301126120c5578384fd5b8135818111156120d3578485fd5b602091508181026120e58382016128cd565b8281528381019085850183870186018b10156120ff578889fd5b8896505b84871015612129576121158b82611fdd565b835260019690960195918501918501612103565b508097505050505061213d86828701611fe8565b925050509250929050565b600060208284031215612159578081fd5b81356119af8161290c565b600060208284031215612175578081fd5b81516119af8161290c565b600080600080600080600060e0888a03121561219a578283fd5b87356121a5816128f4565b965060208801356121b5816128f4565b9550604088013594506060880135935060808801356121d3816128f4565b925060a08801356121e3816128f4565b915060c08801356121f3816128f4565b8091505092959891949750929550565b600060208284031215612214578081fd5b5035919050565b60006020828403121561222c578081fd5b5051919050565b60008060808385031215612245578182fd5b8235915083608084011115612258578081fd5b50926020919091019150565b60008060408385031215612276578182fd5b50508035926020909101359150565b15159052565b60008251815b818110156122ab5760208186018101518583015201612291565b818111156122b95782828501525b509190910192915050565b6001600160a01b0391909116815260200190565b60006101c08201905060018060a01b03808f168352808e166020840152808d166040840152508a60608301528960808301528860a08301528760c08301528660e083015285610100830152846101208301528351610140830152602084015161016083015260408401516101808301526123566101a0830184612285565b9d9c50505050505050505050505050565b6001600160a01b03929092168252602082015260400190565b6001600160a01b0392831681529116602082015260400190565b6001600160a01b039384168152919092166020820152604081019190915260600190565b901515815260200190565b9915158a5297151560208a015295151560408901526060880194909452608087019290925260a086015260c085015260e08401526101008301526101208201526101400190565b6001600160a01b039687168152948616602086015260408501939093526060840191909152608083015290911660a082015260c00190565b60208082526021908201527f494e535546464943454e5420524f554e44203120544f4b454e2042414c414e436040820152604560f81b606082015260800190565b60208082526022908201527f456e756d657261626c655365743a20696e646578206f7574206f6620626f756e604082015261647360f01b606082015260800190565b6020808252601f908201527f5472616e7366657248656c7065723a205452414e534645525f4641494c454400604082015260600190565b6020808252601190820152704455524154494f4e20544f4f204c4f4e4760781b604082015260600190565b6020808252600b908201526a4e4f54205355434345535360a81b604082015260600190565b6020808252601b908201527f536166654d6174683a206164646974696f6e206f766572666c6f770000000000604082015260600190565b6020808252601390820152724e4f5448494e4720544f20574954484452415760681b604082015260600190565b6020808252601e908201527f5472616e7366657248656c7065723a20415050524f56455f4641494c45440000604082015260600190565b6020808252601e908201527f536166654d6174683a207375627472616374696f6e206f766572666c6f770000604082015260600190565b6020808252601a908201527f536166654d6174683a206469766973696f6e206279207a65726f000000000000604082015260600190565b6020808252600a90820152694e4f542041435449564560b01b604082015260600190565b6020808252600f908201526e1393d50815d2125511531254d51151608a1b604082015260600190565b6020808252600990820152682327a92124a22222a760b91b604082015260600190565b6020808252600a90820152691393d50811905253115160b21b604082015260600190565b60208082526016908201527520aba0a4aa24a7239026281023a2a722a920aa24a7a760511b604082015260600190565b60208082526021908201527f536166654d6174683a206d756c7469706c69636174696f6e206f766572666c6f6040820152607760f81b606082015260800190565b60208082526013908201527247454e45524154494f4e20434f4d504c45544560681b604082015260600190565b6020808252601490820152734c41554e4348504144204e4f542041435449564560601b604082015260600190565b6020808252601390820152722727aa102620aaa721a42820a21027aba722a960691b604082015260600190565b60208082526024908201527f5472616e7366657248656c7065723a205452414e534645525f46524f4d5f46416040820152631253115160e21b606082015260800190565b6020808252601f908201527f5265656e7472616e637947756172643a207265656e7472616e742063616c6c00604082015260600190565b6020808252600b908201526a5a45524f20544f4b454e5360a81b604082015260600190565b90815260200190565b918252602082015260400190565b94855260208501939093526001600160a01b0391821660408501528116606084015216608082015260a00190565b60405181810167ffffffffffffffff811182821017156128ec57600080fd5b604052919050565b6001600160a01b038116811461290957600080fd5b50565b801515811461290957600080fdfea26469706673582212201776cf2c7632b2682ba0484ad49336e64076dc50158a262adbf75a26daa764b364736f6c634300060c0033536166654d6174683a206d756c7469706c69636174696f6e206f766572666c6f775472616e7366657248656c7065723a205452414e534645525f46524f4d5f4641494c4544a26469706673582212207cceed9713bef8fd6559cd33615431b5622dcee2253c4e6b85b224c726bd057564736f6c634300060c0033",
  "immutableReferences": {
    "2870": [
      {
        "length": 32,
        "start": 761
      },
      {
        "length": 32,
        "start": 3664
      }
    ],
    "2872": [
      {
        "length": 32,
        "start": 2556
      },
      {
        "length": 32,
        "start": 3845
      }
    ],
    "2874": [
      {
        "length": 32,
        "start": 448
      },
      {
        "length": 32,
        "start": 2589
      }
    ],
    "2876": [
      {
        "length": 32,
        "start": 725
      },
      {
        "length": 32,
        "start": 2490
      }
    ],
    "2878": [
      {
        "length": 32,
        "start": 487
      },
      {
        "length": 32,
        "start": 1027
      },
      {
        "length": 32,
        "start": 1171
      },
      {
        "length": 32,
        "start": 1310
      },
      {
        "length": 32,
        "start": 1508
      },
      {
        "length": 32,
        "start": 1673
      },
      {
        "length": 32,
        "start": 1848
      },
      {
        "length": 32,
        "start": 2137
      },
      {
        "length": 32,
        "start": 2523
      },
      {
        "length": 32,
        "start": 2970
      },
      {
        "length": 32,
        "start": 3127
      },
      {
        "length": 32,
        "start": 3267
      },
      {
        "length": 32,
        "start": 3407
      },
      {
        "length": 32,
        "start": 3809
      }
    ]
  },
  "source": "// SPDX-License-Identifier: MIT\n\n/**\n * @title Generator of Pancake launchpad enviroment\n * @dev This contract generate new launchpad with the given launchpad params. Launchpad\n * creation charges a fee in BNB which is defined in the launchpad settings.\n */\npragma solidity 0.6.12;\n\nimport \"../interfaces/IERC20Meta.sol\";\nimport \"../interfaces/ILaunchpadFactory.sol\";\nimport \"./Launchpad.sol\";\nimport \"./TransferHelper.sol\";\n\ncontract LaunchpadGenerator {\n    using SafeMath for uint256;\n\n    // struct with parameter needed to create a new launchpad\n    struct LaunchpadParams {\n        uint256 amount; // min 10 000\n        uint256 hardcap; // amount to be reached for successful ilo\n        uint256 softcap; // minimum sold amount reached at end time for successful ilo\n        uint256 liquidityPercent; // min 250(=25%) max 1000(=100%)\n        uint256 listingRate; // listing price of sale token on pancakeswap\n        uint256 maxSpendPerBuyer; // the maximum amount to be spent by a specific buyer\n        uint256 tokenPrice; // the amount of sale tokens for one base token\n        uint256 lockPeriod; // min 1 year in seconds\n        uint256 startTime; // the timestamp to start the launchpad\n        uint256 endTime; // the timestamp to end the launchpad (max length of settings contract must be met)\n    }\n\n    // addresses of dependen contracts\n    address public immutable LAUNCHPAD_FACTORY;\n    address public immutable LAUNCHPAD_LOCK_FORWARDER;\n    address public immutable KINKO_DEV;\n    address public immutable WBNB;\n    ILaunchpadSettings public immutable LAUNCHPAD_SETTINGS;\n\n    /**\n     *@dev sets initially contract dependend addresses\n     *@param _launchpadFactory address of the launchpad factory contract\n     *@param _launchpadSettings address of the settings contract\n     *@param _wbnb address of the wrapped bnb contract\n     *@param _launchpadLockForwarder address of LanchpadLockForwarder contract\n     *@param _pancakeDev address of the developer account\n     */\n    constructor(\n        address _launchpadFactory,\n        address _launchpadSettings,\n        address _wbnb,\n        address _launchpadLockForwarder,\n        address _pancakeDev\n    ) public {\n        require(\n            _launchpadFactory != address(0) &&\n                _launchpadSettings != address(0) &&\n                _wbnb != address(0) &&\n                _launchpadLockForwarder != address(0) &&\n                _pancakeDev != address(0),\n            \"ZERO ADDRESS\"\n        );\n        LAUNCHPAD_FACTORY = _launchpadFactory;\n        LAUNCHPAD_SETTINGS = ILaunchpadSettings(_launchpadSettings);\n        LAUNCHPAD_LOCK_FORWARDER = _launchpadLockForwarder;\n        KINKO_DEV = _pancakeDev;\n        WBNB = _wbnb;\n    }\n\n    /**\n     * @notice creates a new launchpad with the given parameters\n     * @dev requires to receive the creation fee in BNB (defined in settings)\n     * @param _launchpadOwner address of the launchpad owner account\n     * @param _launchpadToken the token to be sold\n     * @param _referralAddress the address to send the referral fee to\n     * @param uint_params the parameters defined in LaunchpadParams struct (order matters)\n     */\n    function createLaunchpad(\n        address payable _launchpadOwner,\n        IERC20 _launchpadToken,\n        IERC20Meta _baseToken,\n        address payable _referralAddress,\n        uint256[9] memory uint_params\n    ) external payable {\n        // read parameter from function call\n        LaunchpadParams memory params;\n        params.amount = uint_params[0];\n        params.hardcap = uint_params[1];\n        params.softcap = uint_params[2];\n        params.liquidityPercent = uint_params[3];\n        params.listingRate = uint_params[4];\n        params.maxSpendPerBuyer = uint_params[5];\n        params.lockPeriod = uint_params[6];\n        params.startTime = uint_params[7];\n        params.endTime = uint_params[8];\n\n        // calculate token price and check precision\n        params.tokenPrice = params.hardcap.mul(10**18).div(\n            params.amount\n        );\n        require(\n            params.tokenPrice.mul(params.amount).div(10**18) ==\n                params.hardcap,\n            \"INVALID PARAMS\"\n        );\n\n        // set locking period to a minimum of one year\n        if (params.lockPeriod < LAUNCHPAD_SETTINGS.getMinLockingDuration()) {\n            params.lockPeriod = LAUNCHPAD_SETTINGS.getMinLockingDuration();\n        }\n\n        // exact amount of creation fee has to be sent by function call\n        require(\n            msg.value == LAUNCHPAD_SETTINGS.getBnbCreationFee(),\n            \"FEE NOT MET\"\n        );\n        // send creation fee to registered address\n        LAUNCHPAD_SETTINGS.getBaseFeeReceiver().transfer(\n            LAUNCHPAD_SETTINGS.getBnbCreationFee()\n        );\n\n        // check for valid referrer address\n        if (_referralAddress != address(0)) {\n            require(\n                LAUNCHPAD_SETTINGS.referrerIsValid(_referralAddress),\n                \"INVALID REFERRAL\"\n            );\n        }\n\n        // check for sufficient amount\n        require(params.amount >= 10000, \"MIN DIVIS\");\n\n        // check if max time length is not met\n        require(\n            params.endTime.sub(params.startTime) <=\n                LAUNCHPAD_SETTINGS.getMaxLaunchpadLength(),\n            \"INVALID TIME PERIOD\"\n        );\n\n        // check for valid liquidity params (min 30% max 100%)\n        require(\n            params.liquidityPercent >= 250 && params.liquidityPercent <= 1000,\n            \"INVALID LIQUIDITY\"\n        );\n\n        // calculate required token amount\n        uint256 tokensRequiredForLaunchpad = calculateAmountRequired(\n            params.amount,\n            params.listingRate,\n            params.liquidityPercent\n        );\n\n        // create launchpad\n        Launchpad newLaunchpad = new Launchpad(\n            address(this),\n            WBNB,\n            address(LAUNCHPAD_SETTINGS),\n            LAUNCHPAD_LOCK_FORWARDER,\n            KINKO_DEV\n        );\n\n        // send required launchpad token amount to launchpad contract\n        TransferHelper.safeTransferFrom(\n            address(_launchpadToken),\n            address(msg.sender),\n            address(newLaunchpad),\n            tokensRequiredForLaunchpad\n        );\n\n        // first part of launchpad initilization\n        newLaunchpad.init1(\n            _launchpadOwner,\n            params.amount,\n            params.tokenPrice,\n            params.maxSpendPerBuyer,\n            params.hardcap,\n            params.softcap,\n            params.liquidityPercent,\n            params.listingRate,\n            params.startTime,\n            params.endTime,\n            params.lockPeriod\n        );\n\n        // second part of launchpad initilization\n        newLaunchpad.init2(\n            _baseToken,\n            _launchpadToken,\n            LAUNCHPAD_SETTINGS.getTokenFee(),\n            LAUNCHPAD_SETTINGS.getReferralFee(),\n            LAUNCHPAD_SETTINGS.getBaseFeeReceiver(),\n            LAUNCHPAD_SETTINGS.getSaleFeeReceiver(),\n            _referralAddress\n        );\n\n        // register the created launchpad in factory\n        ILaunchpadFactory(LAUNCHPAD_FACTORY).registerLaunchpad(\n            address(newLaunchpad)\n        );\n    }\n\n    /**\n     *@notice calculates the amount of launchpad tokens to be required for creating a new launchpad\n     *@dev this amount is sent to the new created launchpad contract\n     */\n    function calculateAmountRequired(\n        uint256 _amount,\n        uint256 _listingRate,\n        uint256 _liquidityRate\n    ) public view returns (uint256) {\n        // calculate sale token fee\n        uint256 tokenFee = LAUNCHPAD_SETTINGS.getTokenFee();\n        uint256 feeAmount = _amount.mul(tokenFee).div(1000);\n\n        // calculate required liquidity amount for locking\n        uint256 liquidityRequired = _amount\n            .mul(100 - _listingRate)\n            .mul(_liquidityRate)\n            .mul(1000 - tokenFee)\n            .div(100000000);\n\n        // calculate total required amount\n        uint256 tokensRequiredForLaunchpad = _amount.add(liquidityRequired).add(\n            feeAmount\n        );\n        return tokensRequiredForLaunchpad;\n    }\n}\n",
  "sourcePath": "/Users/apple/Desktop/datacpoy/BlockChain/kinko-contracts/contracts/LaunchpadGenerator.sol",
  "compiler": {
    "name": "solc",
    "version": "0.6.12+commit.27d51765.Emscripten.clang"
  },
  "schemaVersion": "3.4.6",
  "updatedAt": "2022-07-14T07:54:48.884Z",
  "networkType": "ethereum",
  "devdoc": {
    "kind": "dev",
    "methods": {
      "calculateAmountRequired(uint256,uint256,uint256)": {
        "details": "this amount is sent to the new created launchpad contract"
      },
      "constructor": {
        "details": "sets initially contract dependend addresses",
        "params": {
          "_launchpadFactory": "address of the launchpad factory contract",
          "_launchpadLockForwarder": "address of LanchpadLockForwarder contract",
          "_launchpadSettings": "address of the settings contract",
          "_pancakeDev": "address of the developer account",
          "_wbnb": "address of the wrapped bnb contract"
        }
      },
      "createLaunchpad(address,address,address,address,uint256[9])": {
        "details": "requires to receive the creation fee in BNB (defined in settings)",
        "params": {
          "_launchpadOwner": "address of the launchpad owner account",
          "_launchpadToken": "the token to be sold",
          "_referralAddress": "the address to send the referral fee to",
          "uint_params": "the parameters defined in LaunchpadParams struct (order matters)"
        }
      }
    },
    "version": 1
  },
  "userdoc": {
    "kind": "user",
    "methods": {
      "calculateAmountRequired(uint256,uint256,uint256)": {
        "notice": "calculates the amount of launchpad tokens to be required for creating a new launchpad"
      },
      "createLaunchpad(address,address,address,address,uint256[9])": {
        "notice": "creates a new launchpad with the given parameters"
      }
    },
    "version": 1
  }
}