{
  "contractName": "Launchpad",
  "abi": [
    {
      "inputs": [
        {
          "internalType": "address",
          "name": "_launchpadGenerator",
          "type": "address"
        },
        {
          "internalType": "address",
          "name": "_wbnb",
          "type": "address"
        },
        {
          "internalType": "address",
          "name": "_launchpadSettings",
          "type": "address"
        },
        {
          "internalType": "address",
          "name": "_launchpadLockForwarder",
          "type": "address"
        },
        {
          "internalType": "address",
          "name": "_pancakeDev",
          "type": "address"
        }
      ],
      "stateMutability": "nonpayable",
      "type": "constructor"
    },
    {
      "inputs": [],
      "name": "CONTRACT_VERSION",
      "outputs": [
        {
          "internalType": "uint256",
          "name": "",
          "type": "uint256"
        }
      ],
      "stateMutability": "view",
      "type": "function"
    },
    {
      "inputs": [],
      "name": "LAUNCHPAD_GENERATOR",
      "outputs": [
        {
          "internalType": "address",
          "name": "",
          "type": "address"
        }
      ],
      "stateMutability": "view",
      "type": "function"
    },
    {
      "inputs": [],
      "name": "WBNB",
      "outputs": [
        {
          "internalType": "contract IWBNB",
          "name": "",
          "type": "address"
        }
      ],
      "stateMutability": "view",
      "type": "function"
    },
    {
      "inputs": [
        {
          "internalType": "address",
          "name": "",
          "type": "address"
        }
      ],
      "name": "buyers",
      "outputs": [
        {
          "internalType": "uint256",
          "name": "baseDeposited",
          "type": "uint256"
        },
        {
          "internalType": "uint256",
          "name": "tokensOwed",
          "type": "uint256"
        }
      ],
      "stateMutability": "view",
      "type": "function"
    },
    {
      "inputs": [],
      "name": "launchpadFeeInfo",
      "outputs": [
        {
          "internalType": "uint256",
          "name": "pancakeTokenFee",
          "type": "uint256"
        },
        {
          "internalType": "uint256",
          "name": "referralFee",
          "type": "uint256"
        },
        {
          "internalType": "address payable",
          "name": "baseFeeAddress",
          "type": "address"
        },
        {
          "internalType": "address payable",
          "name": "tokenFeeAddress",
          "type": "address"
        },
        {
          "internalType": "address payable",
          "name": "referralFeeAddress",
          "type": "address"
        }
      ],
      "stateMutability": "view",
      "type": "function"
    },
    {
      "inputs": [],
      "name": "launchpadInfo",
      "outputs": [
        {
          "internalType": "address payable",
          "name": "launchpadOwner",
          "type": "address"
        },
        {
          "internalType": "contract IERC20",
          "name": "sToken",
          "type": "address"
        },
        {
          "internalType": "contract IERC20Meta",
          "name": "bToken",
          "type": "address"
        },
        {
          "internalType": "uint256",
          "name": "amount",
          "type": "uint256"
        },
        {
          "internalType": "uint256",
          "name": "tokenPrice",
          "type": "uint256"
        },
        {
          "internalType": "uint256",
          "name": "maxSpendPerBuyer",
          "type": "uint256"
        },
        {
          "internalType": "uint256",
          "name": "softCap",
          "type": "uint256"
        },
        {
          "internalType": "uint256",
          "name": "hardcap",
          "type": "uint256"
        },
        {
          "internalType": "uint256",
          "name": "liquidityPercentage",
          "type": "uint256"
        },
        {
          "internalType": "uint256",
          "name": "listingRate",
          "type": "uint256"
        },
        {
          "components": [
            {
              "internalType": "uint256",
              "name": "lockPeriod",
              "type": "uint256"
            },
            {
              "internalType": "uint256",
              "name": "startTime",
              "type": "uint256"
            },
            {
              "internalType": "uint256",
              "name": "endTime",
              "type": "uint256"
            }
          ],
          "internalType": "struct Launchpad.LaunchpadTimePeriod",
          "name": "_launchpadTimePeriod",
          "type": "tuple"
        },
        {
          "internalType": "bool",
          "name": "isBNB",
          "type": "bool"
        }
      ],
      "stateMutability": "view",
      "type": "function"
    },
    {
      "inputs": [],
      "name": "launchpadLockForwarder",
      "outputs": [
        {
          "internalType": "contract ILaunchpadLockForwarder",
          "name": "",
          "type": "address"
        }
      ],
      "stateMutability": "view",
      "type": "function"
    },
    {
      "inputs": [],
      "name": "launchpadSettings",
      "outputs": [
        {
          "internalType": "contract ILaunchpadSettings",
          "name": "",
          "type": "address"
        }
      ],
      "stateMutability": "view",
      "type": "function"
    },
    {
      "inputs": [],
      "name": "launchpadStatus",
      "outputs": [
        {
          "internalType": "bool",
          "name": "forceFailed",
          "type": "bool"
        },
        {
          "internalType": "bool",
          "name": "lpGenerationComplete",
          "type": "bool"
        },
        {
          "internalType": "bool",
          "name": "whitelistOnly",
          "type": "bool"
        },
        {
          "internalType": "uint256",
          "name": "lpGenerationTimestamp",
          "type": "uint256"
        },
        {
          "internalType": "uint256",
          "name": "totalBaseCollected",
          "type": "uint256"
        },
        {
          "internalType": "uint256",
          "name": "totalBaseWithdrawn",
          "type": "uint256"
        },
        {
          "internalType": "uint256",
          "name": "totalTokensSold",
          "type": "uint256"
        },
        {
          "internalType": "uint256",
          "name": "totalTokensWithdrawn",
          "type": "uint256"
        },
        {
          "internalType": "uint256",
          "name": "numBuyers",
          "type": "uint256"
        },
        {
          "internalType": "uint256",
          "name": "round1Length",
          "type": "uint256"
        }
      ],
      "stateMutability": "view",
      "type": "function"
    },
    {
      "inputs": [
        {
          "internalType": "address",
          "name": "",
          "type": "address"
        }
      ],
      "name": "rewardTokens",
      "outputs": [
        {
          "internalType": "uint256",
          "name": "",
          "type": "uint256"
        }
      ],
      "stateMutability": "view",
      "type": "function"
    },
    {
      "inputs": [
        {
          "internalType": "address payable",
          "name": "_launchpadOwner",
          "type": "address"
        },
        {
          "internalType": "uint256",
          "name": "_amount",
          "type": "uint256"
        },
        {
          "internalType": "uint256",
          "name": "_tokenPrice",
          "type": "uint256"
        },
        {
          "internalType": "uint256",
          "name": "_maxSpendPerBuyer",
          "type": "uint256"
        },
        {
          "internalType": "uint256",
          "name": "_hardcap",
          "type": "uint256"
        },
        {
          "internalType": "uint256",
          "name": "_softcap",
          "type": "uint256"
        },
        {
          "internalType": "uint256",
          "name": "_liquidityPercent",
          "type": "uint256"
        },
        {
          "internalType": "uint256",
          "name": "_listingRate",
          "type": "uint256"
        },
        {
          "internalType": "uint256",
          "name": "_startTime",
          "type": "uint256"
        },
        {
          "internalType": "uint256",
          "name": "_endTime",
          "type": "uint256"
        },
        {
          "internalType": "uint256",
          "name": "_lockPeriod",
          "type": "uint256"
        }
      ],
      "name": "init1",
      "outputs": [],
      "stateMutability": "nonpayable",
      "type": "function"
    },
    {
      "inputs": [
        {
          "internalType": "contract IERC20Meta",
          "name": "_baseToken",
          "type": "address"
        },
        {
          "internalType": "contract IERC20",
          "name": "_launchpadToken",
          "type": "address"
        },
        {
          "internalType": "uint256",
          "name": "_pancakeTokenFee",
          "type": "uint256"
        },
        {
          "internalType": "uint256",
          "name": "_referralFee",
          "type": "uint256"
        },
        {
          "internalType": "address payable",
          "name": "_baseFeeAddress",
          "type": "address"
        },
        {
          "internalType": "address payable",
          "name": "_tokenFeeAddress",
          "type": "address"
        },
        {
          "internalType": "address payable",
          "name": "_referralAddress",
          "type": "address"
        }
      ],
      "name": "init2",
      "outputs": [],
      "stateMutability": "nonpayable",
      "type": "function"
    },
    {
      "inputs": [],
      "name": "addLiquidity",
      "outputs": [],
      "stateMutability": "nonpayable",
      "type": "function"
    },
    {
      "inputs": [],
      "name": "forceFailIfPairExists",
      "outputs": [],
      "stateMutability": "nonpayable",
      "type": "function"
    },
    {
      "inputs": [
        {
          "internalType": "uint256",
          "name": "_amount",
          "type": "uint256"
        },
        {
          "internalType": "address[3]",
          "name": "reffers",
          "type": "address[3]"
        },
        {
          "internalType": "bytes32[3]",
          "name": "reffersSign",
          "type": "bytes32[3]"
        }
      ],
      "name": "userDeposit",
      "outputs": [],
      "stateMutability": "payable",
      "type": "function"
    },
    {
      "inputs": [],
      "name": "userWithdrawBaseTokens",
      "outputs": [],
      "stateMutability": "nonpayable",
      "type": "function"
    },
    {
      "inputs": [],
      "name": "userWithdrawTokens",
      "outputs": [],
      "stateMutability": "nonpayable",
      "type": "function"
    },
    {
      "inputs": [],
      "name": "withdrawRewardTokens",
      "outputs": [],
      "stateMutability": "nonpayable",
      "type": "function"
    },
    {
      "inputs": [
        {
          "internalType": "address[]",
          "name": "_users",
          "type": "address[]"
        },
        {
          "internalType": "bool",
          "name": "_add",
          "type": "bool"
        }
      ],
      "name": "editWhitelist",
      "outputs": [],
      "stateMutability": "nonpayable",
      "type": "function"
    },
    {
      "inputs": [],
      "name": "ownerWithdrawTokens",
      "outputs": [],
      "stateMutability": "nonpayable",
      "type": "function"
    },
    {
      "inputs": [
        {
          "internalType": "bool",
          "name": "_flag",
          "type": "bool"
        }
      ],
      "name": "setWhitelistFlag",
      "outputs": [],
      "stateMutability": "nonpayable",
      "type": "function"
    },
    {
      "inputs": [
        {
          "internalType": "uint256",
          "name": "_startTime",
          "type": "uint256"
        },
        {
          "internalType": "uint256",
          "name": "_endTime",
          "type": "uint256"
        }
      ],
      "name": "updateDuration",
      "outputs": [],
      "stateMutability": "nonpayable",
      "type": "function"
    },
    {
      "inputs": [
        {
          "internalType": "uint256",
          "name": "_maxSpend",
          "type": "uint256"
        }
      ],
      "name": "updateMaxSpendLimit",
      "outputs": [],
      "stateMutability": "nonpayable",
      "type": "function"
    },
    {
      "inputs": [],
      "name": "forceFailByPancake",
      "outputs": [],
      "stateMutability": "nonpayable",
      "type": "function"
    },
    {
      "inputs": [],
      "name": "getLaunchpadStatus",
      "outputs": [
        {
          "internalType": "uint256",
          "name": "",
          "type": "uint256"
        }
      ],
      "stateMutability": "view",
      "type": "function"
    },
    {
      "inputs": [
        {
          "internalType": "address",
          "name": "_user",
          "type": "address"
        }
      ],
      "name": "getUserWhitelistStatus",
      "outputs": [
        {
          "internalType": "bool",
          "name": "",
          "type": "bool"
        }
      ],
      "stateMutability": "view",
      "type": "function"
    },
    {
      "inputs": [
        {
          "internalType": "uint256",
          "name": "_index",
          "type": "uint256"
        }
      ],
      "name": "getWhitelistedUserAtIndex",
      "outputs": [
        {
          "internalType": "address",
          "name": "",
          "type": "address"
        }
      ],
      "stateMutability": "view",
      "type": "function"
    },
    {
      "inputs": [],
      "name": "getWhitelistedUsersLength",
      "outputs": [
        {
          "internalType": "uint256",
          "name": "",
          "type": "uint256"
        }
      ],
      "stateMutability": "view",
      "type": "function"
    },
    {
      "inputs": [
        {
          "internalType": "address",
          "name": "_reffer",
          "type": "address"
        },
        {
          "internalType": "address",
          "name": "_launchpadAddress",
          "type": "address"
        }
      ],
      "name": "getMessageHash",
      "outputs": [
        {
          "internalType": "bytes32",
          "name": "",
          "type": "bytes32"
        }
      ],
      "stateMutability": "pure",
      "type": "function"
    },
    {
      "inputs": [
        {
          "internalType": "bytes32",
          "name": "_messageHash",
          "type": "bytes32"
        }
      ],
      "name": "getEthSignedMessageHash",
      "outputs": [
        {
          "internalType": "bytes32",
          "name": "",
          "type": "bytes32"
        }
      ],
      "stateMutability": "pure",
      "type": "function"
    },
    {
      "inputs": [
        {
          "internalType": "address",
          "name": "_refferal",
          "type": "address"
        },
        {
          "internalType": "address",
          "name": "_launchpadAddress",
          "type": "address"
        },
        {
          "internalType": "bytes32",
          "name": "signature",
          "type": "bytes32"
        }
      ],
      "name": "verify",
      "outputs": [
        {
          "internalType": "bool",
          "name": "",
          "type": "bool"
        }
      ],
      "stateMutability": "pure",
      "type": "function"
    },
    {
      "inputs": [
        {
          "internalType": "bytes32",
          "name": "_ethSignedMessageHash",
          "type": "bytes32"
        },
        {
          "internalType": "bytes32",
          "name": "_signature",
          "type": "bytes32"
        }
      ],
      "name": "recoverSigner",
      "outputs": [
        {
          "internalType": "address",
          "name": "",
          "type": "address"
        }
      ],
      "stateMutability": "pure",
      "type": "function"
    },
    {
      "inputs": [
        {
          "internalType": "bytes32",
          "name": "sig",
          "type": "bytes32"
        }
      ],
      "name": "splitSignature",
      "outputs": [
        {
          "internalType": "bytes32",
          "name": "r",
          "type": "bytes32"
        },
        {
          "internalType": "bytes32",
          "name": "s",
          "type": "bytes32"
        },
        {
          "internalType": "uint8",
          "name": "v",
          "type": "uint8"
        }
      ],
      "stateMutability": "pure",
      "type": "function"
    }
  ],
  "bytecode": "0x6101206040523480156200001257600080fd5b5060405162002f8938038062002f898339810160408190526200003591620000fa565b60016000556001600160a01b038516158015906200005b57506001600160a01b03841615155b80156200007057506001600160a01b03831615155b80156200008557506001600160a01b03821615155b80156200009a57506001600160a01b03811615155b620000c25760405162461bcd60e51b8152600401620000b99062000179565b60405180910390fd5b6001600160601b0319606095861b811660e05293851b841660c05291841b831660a052831b821660805290911b1661010052620001b8565b600080600080600060a0868803121562000112578081fd5b85516200011f816200019f565b602087015190955062000132816200019f565b604087015190945062000145816200019f565b606087015190935062000158816200019f565b60808701519092506200016b816200019f565b809150509295509295909350565b6020808252600c908201526b5a45524f204144445245535360a01b604082015260600190565b6001600160a01b0381168114620001b557600080fd5b50565b60805160601c60a05160601c60c05160601c60e05160601c6101005160601c612d46620002436000398061097a5250806107fe5280610d7d5280610fa35250806108505280610b7c528061152852508061066f52806108e25280610a0d5280611079525080610c6d528061142b52806115ad528061162e528061166652806119f55250612d466000f3fe6080604052600436106101ee5760003560e01c8063927ac44d1161010d578063c39e7dbb116100a0578063e86e63401161006f578063e86e63401461054f578063ed24aa7214610564578063f5ab16cc14610584578063fa540801146105a4578063fe8121de146105c4576101ee565b8063c39e7dbb146104fd578063d1ab011e14610512578063d74268f314610527578063e8078d941461053a576101ee565b8063b93ac792116100dc578063b93ac79214610470578063b9863a4414610490578063bba88631146104bd578063bff75f53146104d2576101ee565b8063927ac44d146103f857806397a993aa14610418578063a19ab11614610446578063a94e7e801461045b576101ee565b80636933eb151161018557806380e8a1511161015457806380e8a1511461037d578063899548861461039d5780638c301df8146103c35780638dd95002146103e3576101ee565b80636933eb15146102df578063706b63c6146103015780637942e91c1461032e57806379ba61c91461035d576101ee565b806339848cd1116101c157806339848cd1146102755780633d296122146102955780634200e4fc146102aa5780634bb18e3f146102ca576101ee565b806324ef1bc7146101f35780632ad1f1db14610215578063370243dc1461023557806338b903331461024a575b600080fd5b3480156101ff57600080fd5b5061021361020e36600461246d565b6105d9565b005b34801561022157600080fd5b50610213610230366004612485565b610611565b34801561024157600080fd5b50610213610731565b34801561025657600080fd5b5061025f6107ee565b60405161026c9190612761565b60405180910390f35b34801561028157600080fd5b506102136102903660046124a6565b6107f3565b3480156102a157600080fd5b5061021361096f565b3480156102b657600080fd5b506102136102c5366004612435565b6109b3565b3480156102d657600080fd5b5061025f6109f9565b3480156102eb57600080fd5b506102f4610a0b565b60405161026c9190612615565b34801561030d57600080fd5b50610316610a2f565b60405161026c9c9b9a99989796959493929190612629565b34801561033a57600080fd5b5061034e61034936600461246d565b610a8b565b60405161026c9392919061276a565b34801561036957600080fd5b506102f4610378366004612485565b610aa7565b34801561038957600080fd5b5061025f6103983660046122fe565b610b17565b3480156103a957600080fd5b506103b2610b4a565b60405161026c959493929190612c95565b3480156103cf57600080fd5b506102f46103de36600461246d565b610b6d565b3480156103ef57600080fd5b506102f4610b7a565b34801561040457600080fd5b50610213610413366004612376565b610b9e565b34801561042457600080fd5b50610438610433366004612268565b610c52565b60405161026c929190612c87565b34801561045257600080fd5b506102f4610c6b565b34801561046757600080fd5b50610213610c8f565b34801561047c57600080fd5b5061021361048b366004612284565b610d72565b34801561049c57600080fd5b506104b06104ab366004612268565b610e07565b60405161026c919061270f565b3480156104c957600080fd5b5061025f610e14565b3480156104de57600080fd5b506104e7610ea7565b60405161026c9a9998979695949392919061271a565b34801561050957600080fd5b50610213610ee5565b34801561051e57600080fd5b506102f4610fa1565b610213610535366004612541565b610fc5565b34801561054657600080fd5b50610213611397565b34801561055b57600080fd5b506102136119a1565b34801561057057600080fd5b506104b061057f366004612336565b611a93565b34801561059057600080fd5b5061025f61059f366004612268565b611ad7565b3480156105b057600080fd5b5061025f6105bf36600461246d565b611ae9565b3480156105d057600080fd5b50610213611b19565b6001546001600160a01b0316331461060c5760405162461bcd60e51b815260040161060390612b83565b60405180910390fd5b600655565b6001546001600160a01b0316331461063b5760405162461bcd60e51b815260040161060390612b83565b610643610e14565b1580156106515750600c5442105b61066d5760405162461bcd60e51b815260040161060390612b55565b7f00000000000000000000000000000000000000000000000000000000000000006001600160a01b031663cef6fc0b6040518163ffffffff1660e01b815260040160206040518083038186803b1580156106c657600080fd5b505afa1580156106da573d6000803e3d6000fd5b505050506040513d601f19601f820116820180604052508101906106fe9190612529565b6107088284611bcb565b11156107265760405162461bcd60e51b815260040161060390612893565b600c91909155600d55565b600260005414156107545760405162461bcd60e51b815260040161060390612c2b565b6002600055601454610100900460ff166107805760405162461bcd60e51b815260040161060390612ab7565b336000908152601d6020526040902054806107ad5760405162461bcd60e51b815260040161060390612951565b6019546107ba9082611bf3565b601955336000818152601d60205260408120556002546107e6916001600160a01b039091169083611c1f565b506001600055565b600181565b336001600160a01b037f0000000000000000000000000000000000000000000000000000000000000000161461083b5760405162461bcd60e51b815260040161060390612a70565b600e805460ff19166001600160a01b038981167f00000000000000000000000000000000000000000000000000000000000000008216811492909217909255600280548984166001600160a01b031991821617909155600380548216909217909155600f8790556010869055601180548684169083161790556012805485841690831617905560138054848416921691909117905560408051635564890b60e11b815290517f00000000000000000000000000000000000000000000000000000000000000009092169163aac9121691600481810192602092909190829003018186803b15801561092b57600080fd5b505afa15801561093f573d6000803e3d6000fd5b505050506040513d601f19601f820116820180604052508101906109639190612529565b601b5550505050505050565b336001600160a01b037f000000000000000000000000000000000000000000000000000000000000000016146109a457600080fd5b6014805460ff19166001179055565b6001546001600160a01b031633146109dd5760405162461bcd60e51b815260040161060390612b83565b60148054911515620100000262ff000019909216919091179055565b6000610a05601e611d0d565b90505b90565b7f000000000000000000000000000000000000000000000000000000000000000081565b600154600254600354600454600554600654600754600854600954600a5460408051606081018252600b548152600c546020820152600d5491810191909152600e546001600160a01b039b8c169b9a8b169a9099169860ff168c565b6000808060405162461bcd60e51b815260040161060390612bb0565b600080600080610ab685610a8b565b92509250925060018682858560405160008152602001604052604051610adf9493929190612783565b6020604051602081039080840390855afa158015610b01573d6000803e3d6000fd5b5050506020604051035193505050505b92915050565b60008282604051602001610b2c929190612584565b60405160208183030381529060405280519060200120905092915050565b600f546010546011546012546013546001600160a01b0392831692918216911685565b6000610b11601e83611d18565b7f000000000000000000000000000000000000000000000000000000000000000081565b6001546001600160a01b03163314610bc85760405162461bcd60e51b815260040161060390612b83565b8015610c105760005b8251811015610c0a57610c01838281518110610be957fe5b6020026020010151601e611d2490919063ffffffff16565b50600101610bd1565b50610c4e565b60005b8251811015610c4c57610c43838281518110610c2b57fe5b6020026020010151601e611d3990919063ffffffff16565b50600101610c13565b505b5050565b601c602052600090815260409020805460019091015482565b7f000000000000000000000000000000000000000000000000000000000000000081565b6001546001600160a01b03163314610cb95760405162461bcd60e51b815260040161060390612b83565b610cc1610e14565b600314610ce05760405162461bcd60e51b815260040161060390612a93565b6002546001546040516370a0823160e01b8152610d70926001600160a01b0390811692169082906370a0823190610d1b903090600401612615565b60206040518083038186803b158015610d3357600080fd5b505afa158015610d47573d6000803e3d6000fd5b505050506040513d601f19601f82011682018060405250810190610d6b9190612529565b611c1f565b565b336001600160a01b037f00000000000000000000000000000000000000000000000000000000000000001614610dba5760405162461bcd60e51b815260040161060390612a70565b600180546001600160a01b0319166001600160a01b039c909c169b909b17909a55600498909855600596909655600694909455600892909255600755600955600a55600c55600d55600b55565b6000610b11601e83611d4e565b60145460009060ff1615610e2a57506003610a08565b600d5442118015610e3e5750600754601654105b15610e4b57506003610a08565b60085460165410610e5e57506002610a08565b600d5442118015610e73575060075460165410155b15610e8057506002610a08565b600c544210801590610e945750600d544211155b15610ea157506001610a08565b50600090565b601454601554601654601754601854601954601a54601b5460ff8089169861010081048216986201000090910490911696909590949093909290918a565b60026000541415610f085760405162461bcd60e51b815260040161060390612c2b565b6002600055610f15610e14565b600314610f345760405162461bcd60e51b815260040161060390612a93565b336000908152601c60205260409020805480610f625760405162461bcd60e51b815260040161060390612951565b8154601754610f7091611bf3565b60175560008255600354600e54610f98916001600160a01b0316903390849060ff1615611d63565b50506001600055565b7f000000000000000000000000000000000000000000000000000000000000000081565b60026000541415610fe85760405162461bcd60e51b815260040161060390612c2b565b6002600055610ff5610e14565b6001146110145760405162461bcd60e51b815260040161060390612a23565b60145462010000900460ff161561104c57611030601e33611d4e565b61104c5760405162461bcd60e51b815260040161060390612a47565b601b54600c5461105b91611bf3565b42101561111a57604051634a6da48160e01b81526001600160a01b037f00000000000000000000000000000000000000000000000000000000000000001690634a6da481906110ae903390600401612615565b60206040518083038186803b1580156110c657600080fd5b505afa1580156110da573d6000803e3d6000fd5b505050506040513d601f19601f820116820180604052508101906110fe9190612451565b61111a5760405162461bcd60e51b8152600401610603906127d9565b336000908152601c60205260408120600e5490919060ff1661113c578461113e565b345b825460065491925060009161115291611bcb565b60165460085491925060009161116791611bcb565b90508082116111765781611178565b805b915081831115611186578192505b6005546000906111a8906111a286670de0b6b3a7640000611e94565b90611ece565b9050600081116111ca5760405162461bcd60e51b815260040161060390612c62565b84546111da57601a805460010190555b84546111e69085611bf3565b855560018501546111f79082611bf3565b60018601556000805b60038110156112e75761124289826003811061121857fe5b60200201602081019061122b9190612268565b308a846003811061123857fe5b6020020135611a93565b61125e5760405162461bcd60e51b8152600401610603906128e3565b61126f6127106111a2856064611e94565b9150600089826003811061127f57fe5b6020020160208101906112929190612268565b6001600160a01b0316146112df5781601d60008b84600381106112b157fe5b6020020160208101906112c49190612268565b6001600160a01b031681526020810191909152604001600020555b600101611200565b506112f3816003611e94565b90506016546113029086611bf3565b60165560185461131490838301611bf3565b601855600e5460ff16801561132857503485105b1561136557336108fc61133b3488611bcb565b6040518115909202916000818181858888f19350505050158015611363573d6000803e3d6000fd5b505b600e5460ff1661138757600354611387906001600160a01b0316333088611f00565b5050600160005550505050505050565b600260005414156113ba5760405162461bcd60e51b815260040161060390612c2b565b6002600055601454610100900460ff16156113e75760405162461bcd60e51b815260040161060390612b28565b6113ef610e14565b60021461140e5760405162461bcd60e51b8152600401610603906128be565b60025460035460405163b2b6d1a560e01b81526001600160a01b037f000000000000000000000000000000000000000000000000000000000000000081169363b2b6d1a593611465939183169216906004016126d1565b60206040518083038186803b15801561147d57600080fd5b505afa158015611491573d6000803e3d6000fd5b505050506040513d601f19601f820116820180604052508101906114b59190612451565b156114cc576014805460ff1916600117905561199a565b600f546016546000916114e7916103e8916111a29190611e94565b905060006115186103e86111a260016008015461151286601460020154611bcb90919063ffffffff16565b90611e94565b600e5490915060ff161561159b577f00000000000000000000000000000000000000000000000000000000000000006001600160a01b031663d0e30db0826040518263ffffffff1660e01b81526004016000604051808303818588803b15801561158157600080fd5b505af1158015611595573d6000803e3d6000fd5b50505050505b6003546115d2906001600160a01b03167f000000000000000000000000000000000000000000000000000000000000000083611fe9565b600f546018546000916115ed916103e8916111a29190611e94565b600954600a5460185492935060009261161992620186a0926111a2926115129160640390829089611bcb565b600254909150611653906001600160a01b03167f000000000000000000000000000000000000000000000000000000000000000083611fe9565b600354600254600b546001600160a01b037f0000000000000000000000000000000000000000000000000000000000000000811693632277d0e39390821692911690879086906116a4904290611bf3565b6001546040516001600160e01b031960e089901b1681526116d69695949392916001600160a01b0316906004016127a1565b600060405180830381600087803b1580156116f057600080fd5b505af1158015611704573d6000803e3d6000fd5b50506013546001600160a01b03161591506117c1905057600061173b6103e86111a2600f6001015488611e9490919063ffffffff16565b600354601354600e54929350611766926001600160a01b039283169290911690849060ff1615611d63565b6117708582611bcb565b945060006117926103e86111a2600f6001015487611e9490919063ffffffff16565b6002546013549192506117b2916001600160a01b03918216911683611c1f565b6117bc8482611bcb565b935050505b600354601154600e546117e7926001600160a01b03908116921690879060ff1615611d63565b600254601254611804916001600160a01b03908116911684611c1f565b6002546040516370a0823160e01b81526000916001600160a01b0316906370a0823190611835903090600401612615565b60206040518083038186803b15801561184d57600080fd5b505afa158015611861573d6000803e3d6000fd5b505050506040513d601f19601f820116820180604052508101906118859190612529565b6018549091508111156118c1576018546000906118a3908390611bcb565b6002549091506118bf906001600160a01b031661dead83611c1f565b505b600e5460009060ff16611953576003546040516370a0823160e01b81526001600160a01b03909116906370a08231906118fe903090600401612615565b60206040518083038186803b15801561191657600080fd5b505afa15801561192a573d6000803e3d6000fd5b505050506040513d601f19601f8201168201806040525081019061194e9190612529565b611955565b475b600354600154600e54929350611980926001600160a01b039283169290911690849060ff1615611d63565b50506014805461ff00191661010017905550504260155550505b6001600055565b601454610100900460ff161580156119bc575060145460ff16155b6119d85760405162461bcd60e51b815260040161060390612b55565b60025460035460405163b2b6d1a560e01b81526001600160a01b037f000000000000000000000000000000000000000000000000000000000000000081169363b2b6d1a593611a2f939183169216906004016126d1565b60206040518083038186803b158015611a4757600080fd5b505afa158015611a5b573d6000803e3d6000fd5b505050506040513d601f19601f82011682018060405250810190611a7f9190612451565b15610d70576014805460ff19166001179055565b600080611aa08585610b17565b90506000611aad82611ae9565b9050856001600160a01b0316611ac38286610aa7565b6001600160a01b0316149695505050505050565b601d6020526000908152604090205481565b600081604051602001611afc91906125e4565b604051602081830303815290604052805190602001209050919050565b60026000541415611b3c5760405162461bcd60e51b815260040161060390612c2b565b6002600055601454610100900460ff16611b685760405162461bcd60e51b815260040161060390612ab7565b336000908152601c60205260409020600181015480611b995760405162461bcd60e51b815260040161060390612951565b6001820154601954611baa91611bf3565b60195560006001830155600254610f98906001600160a01b03163383611c1f565b600082821115611bed5760405162461bcd60e51b8152600401610603906129b5565b50900390565b600082820183811015611c185760405162461bcd60e51b81526004016106039061291a565b9392505050565b60006060846001600160a01b031663a9059cbb8585604051602401611c459291906126b8565b6040516020818303038152906040529060e01b6020820180516001600160e01b038381831617835250505050604051611c7e91906125ab565b6000604051808303816000865af19150503d8060008114611cbb576040519150601f19603f3d011682016040523d82523d6000602084013e611cc0565b606091505b5091509150818015611cea575080511580611cea575080806020019051810190611cea9190612451565b611d065760405162461bcd60e51b81526004016106039061285c565b5050505050565b6000610b11826120d0565b6000611c1883836120d4565b6000611c18836001600160a01b038416612119565b6000611c18836001600160a01b038416612163565b6000611c18836001600160a01b038416612229565b80611da4576040516001600160a01b0384169083156108fc029084906000818181858888f19350505050158015611d9e573d6000803e3d6000fd5b50611e8e565b60006060856001600160a01b031663a9059cbb8686604051602401611dca9291906126b8565b6040516020818303038152906040529060e01b6020820180516001600160e01b038381831617835250505050604051611e0391906125ab565b6000604051808303816000865af19150503d8060008114611e40576040519150601f19603f3d011682016040523d82523d6000602084013e611e45565b606091505b5091509150818015611e6f575080511580611e6f575080806020019051810190611e6f9190612451565b611e8b5760405162461bcd60e51b81526004016106039061285c565b50505b50505050565b600082611ea357506000610b11565b82820282848281611eb057fe5b0414611c185760405162461bcd60e51b815260040161060390612ae7565b6000808211611eef5760405162461bcd60e51b8152600401610603906129ec565b818381611ef857fe5b049392505050565b60006060856001600160a01b03166323b872dd868686604051602401611f28939291906126eb565b6040516020818303038152906040529060e01b6020820180516001600160e01b038381831617835250505050604051611f6191906125ab565b6000604051808303816000865af19150503d8060008114611f9e576040519150601f19603f3d011682016040523d82523d6000602084013e611fa3565b606091505b5091509150818015611fcd575080511580611fcd575080806020019051810190611fcd9190612451565b611e8b5760405162461bcd60e51b815260040161060390612be7565b60006060846001600160a01b031663095ea7b3858560405160240161200f9291906126b8565b6040516020818303038152906040529060e01b6020820180516001600160e01b03838183161783525050505060405161204891906125ab565b6000604051808303816000865af19150503d8060008114612085576040519150601f19603f3d011682016040523d82523d6000602084013e61208a565b606091505b50915091508180156120b45750805115806120b45750808060200190518101906120b49190612451565b611d065760405162461bcd60e51b81526004016106039061297e565b5490565b815460009082106120f75760405162461bcd60e51b81526004016106039061281a565b82600001828154811061210657fe5b9060005260206000200154905092915050565b60006121258383612229565b61215b57508154600181810184556000848152602080822090930184905584548482528286019093526040902091909155610b11565b506000610b11565b6000818152600183016020526040812054801561221f578354600019808301919081019060009087908390811061219657fe5b90600052602060002001549050808760000184815481106121b357fe5b6000918252602080832090910192909255828152600189810190925260409020908401905586548790806121e357fe5b60019003818190600052602060002001600090559055866001016000878152602001908152602001600020600090556001945050505050610b11565b6000915050610b11565b60009081526001919091016020526040902054151590565b8035610b1181612cea565b8060608101831015610b1157600080fd5b8035610b1181612d02565b600060208284031215612279578081fd5b8135611c1881612cea565b60008060008060008060008060008060006101608c8e0312156122a5578687fd5b8b356122b081612cea565b9d60208d01359d5060408d01359c60608101359c5060808101359b5060a08101359a5060c0810135995060e08101359850610100810135975061012081013596506101400135945092505050565b60008060408385031215612310578182fd5b823561231b81612cea565b9150602083013561232b81612cea565b809150509250929050565b60008060006060848603121561234a578283fd5b833561235581612cea565b9250602084013561236581612cea565b929592945050506040919091013590565b60008060408385031215612388578182fd5b823567ffffffffffffffff8082111561239f578384fd5b818501915085601f8301126123b2578384fd5b8135818111156123c0578485fd5b602091508181026123d2838201612cc3565b8281528381019085850183870186018b10156123ec578889fd5b8896505b84871015612416576124028b82612241565b8352600196909601959185019185016123f0565b508097505050505061242a8682870161225d565b925050509250929050565b600060208284031215612446578081fd5b8135611c1881612d02565b600060208284031215612462578081fd5b8151611c1881612d02565b60006020828403121561247e578081fd5b5035919050565b60008060408385031215612497578182fd5b50508035926020909101359150565b600080600080600080600060e0888a0312156124c0578283fd5b87356124cb81612cea565b965060208801356124db81612cea565b9550604088013594506060880135935060808801356124f981612cea565b925060a088013561250981612cea565b915060c088013561251981612cea565b8091505092959891949750929550565b60006020828403121561253a578081fd5b5051919050565b600080600060e08486031215612555578081fd5b83359250612566856020860161224c565b9150612575856080860161224c565b90509250925092565b15159052565b6bffffffffffffffffffffffff19606093841b811682529190921b16601482015260280190565b60008251815b818110156125cb57602081860181015185830152016125b1565b818111156125d95782828501525b509190910192915050565b7f19457468657265756d205369676e6564204d6573736167653a0a3332000000008152601c810191909152603c0190565b6001600160a01b0391909116815260200190565b60006101c08201905060018060a01b03808f168352808e166020840152808d166040840152508a60608301528960808301528860a08301528760c08301528660e083015285610100830152846101208301528351610140830152602084015161016083015260408401516101808301526126a76101a083018461257e565b9d9c50505050505050505050505050565b6001600160a01b03929092168252602082015260400190565b6001600160a01b0392831681529116602082015260400190565b6001600160a01b039384168152919092166020820152604081019190915260600190565b901515815260200190565b9915158a5297151560208a015295151560408901526060880194909452608087019290925260a086015260c085015260e08401526101008301526101208201526101400190565b90815260200190565b928352602083019190915260ff16604082015260600190565b93845260ff9290921660208401526040830152606082015260800190565b6001600160a01b039687168152948616602086015260408501939093526060840191909152608083015290911660a082015260c00190565b60208082526021908201527f494e535546464943454e5420524f554e44203120544f4b454e2042414c414e436040820152604560f81b606082015260800190565b60208082526022908201527f456e756d657261626c655365743a20696e646578206f7574206f6620626f756e604082015261647360f01b606082015260800190565b6020808252601f908201527f5472616e7366657248656c7065723a205452414e534645525f4641494c454400604082015260600190565b6020808252601190820152704455524154494f4e20544f4f204c4f4e4760781b604082015260600190565b6020808252600b908201526a4e4f54205355434345535360a81b604082015260600190565b6020808252601c908201527f526566666572616c20766572696669636174696f6e206661696c656400000000604082015260600190565b6020808252601b908201527f536166654d6174683a206164646974696f6e206f766572666c6f770000000000604082015260600190565b6020808252601390820152724e4f5448494e4720544f20574954484452415760681b604082015260600190565b6020808252601e908201527f5472616e7366657248656c7065723a20415050524f56455f4641494c45440000604082015260600190565b6020808252601e908201527f536166654d6174683a207375627472616374696f6e206f766572666c6f770000604082015260600190565b6020808252601a908201527f536166654d6174683a206469766973696f6e206279207a65726f000000000000604082015260600190565b6020808252600a90820152694e4f542041435449564560b01b604082015260600190565b6020808252600f908201526e1393d50815d2125511531254d51151608a1b604082015260600190565b6020808252600990820152682327a92124a22222a760b91b604082015260600190565b6020808252600a90820152691393d50811905253115160b21b604082015260600190565b60208082526016908201527520aba0a4aa24a7239026281023a2a722a920aa24a7a760511b604082015260600190565b60208082526021908201527f536166654d6174683a206d756c7469706c69636174696f6e206f766572666c6f6040820152607760f81b606082015260800190565b60208082526013908201527247454e45524154494f4e20434f4d504c45544560681b604082015260600190565b6020808252601490820152734c41554e4348504144204e4f542041435449564560601b604082015260600190565b6020808252601390820152722727aa102620aaa721a42820a21027aba722a960691b604082015260600190565b60208082526018908201527f696e76616c6964207369676e6174757265206c656e6774680000000000000000604082015260600190565b60208082526024908201527f5472616e7366657248656c7065723a205452414e534645525f46524f4d5f46416040820152631253115160e21b606082015260800190565b6020808252601f908201527f5265656e7472616e637947756172643a207265656e7472616e742063616c6c00604082015260600190565b6020808252600b908201526a5a45524f20544f4b454e5360a81b604082015260600190565b918252602082015260400190565b94855260208501939093526001600160a01b0391821660408501528116606084015216608082015260a00190565b60405181810167ffffffffffffffff81118282101715612ce257600080fd5b604052919050565b6001600160a01b0381168114612cff57600080fd5b50565b8015158114612cff57600080fdfea264697066735822122053f6bdbb6d6201ce1d85bbea454d1676a6147a30c5097a510040e0dff4792d5b64736f6c634300060c0033",
  "immutableReferences": {
    "1197": [
      {
        "length": 32,
        "start": 3181
      },
      {
        "length": 32,
        "start": 5163
      },
      {
        "length": 32,
        "start": 5549
      },
      {
        "length": 32,
        "start": 5678
      },
      {
        "length": 32,
        "start": 5734
      },
      {
        "length": 32,
        "start": 6645
      }
    ],
    "1199": [
      {
        "length": 32,
        "start": 1647
      },
      {
        "length": 32,
        "start": 2274
      },
      {
        "length": 32,
        "start": 2573
      },
      {
        "length": 32,
        "start": 4217
      }
    ],
    "1201": [
      {
        "length": 32,
        "start": 2128
      },
      {
        "length": 32,
        "start": 2940
      },
      {
        "length": 32,
        "start": 5416
      }
    ],
    "1203": [
      {
        "length": 32,
        "start": 2046
      },
      {
        "length": 32,
        "start": 3453
      },
      {
        "length": 32,
        "start": 4003
      }
    ],
    "1205": [
      {
        "length": 32,
        "start": 2426
      }
    ]
  },
  "source": "// SPDX-License-Identifier: MIT\n\n/**\n * @title Launchpad of Pancake launchpad enviroment\n * @dev This contract represents a launchpad. A launchpad can be created and initilized by a\n * launchpad generator. Users can deposit base token if the launchpad is active and get an\n * amount of sale token in raltion to the token price. The sale tokens can be withdrawn if the\n * the launchpad is successful. Otherwise the users and the launchpad owner get back their\n * vested tokens. On launchpad success a pancakeswap liquidity pair will be created and the\n * specified amount of liquidity will be locked in pancake locker contract.\n */\n\npragma solidity 0.6.12;\npragma experimental ABIEncoderV2;\nimport \"@openzeppelin/contracts/utils/EnumerableSet.sol\";\nimport \"@openzeppelin/contracts/math/SafeMath.sol\";\nimport \"@openzeppelin/contracts/utils/ReentrancyGuard.sol\";\nimport \"@openzeppelin/contracts/token/ERC20/IERC20.sol\";\nimport \"../interfaces/IERC20Meta.sol\";\nimport \"../interfaces/ILaunchpadLockForwarder.sol\";\nimport \"../interfaces/ILaunchpadSettings.sol\";\nimport \"../interfaces/IWBNB.sol\";\nimport \"./TransferHelper.sol\";\n\n\n\ncontract Launchpad is ReentrancyGuard {\n    using SafeMath for uint256;\n    using EnumerableSet for EnumerableSet.AddressSet;\n\n    uint256 public constant CONTRACT_VERSION = 1;\n\n    /*---------------------------------------------------------------------------------------------\n     * ------------------------------------Structs definitions-------------------------------------\n     */\n\n    // struct holding accounting information about a buyer\n    struct BuyerInfo {\n        uint256 baseDeposited; // amount of deposited base tokens\n        uint256 tokensOwed; // amount of owed sale tokens\n    }\n\n    // struct holding information about the fees during the ilo\n    struct LaunchpadFeeInfo {\n        uint256 pancakeTokenFee; // fee on adding liquidity calculated on sale token (in parts per 1000)\n        uint256 referralFee; // fee on adding liquidity calculated on baseFee and token fee (in parts per 1000)\n        address payable baseFeeAddress; // address receiving base token fee amount\n        address payable tokenFeeAddress; // address receiving sale token fee amount\n        address payable referralFeeAddress; // address receiving referral fee amount in base and sale token\n    }\n\n  \n   struct LaunchpadTimePeriod{\n        uint256 lockPeriod; // duration of the token lock in seconds (min 1 year)\n        uint256 startTime; // the timestamp to start the launchpad\n        uint256 endTime; // the timestamp to end the launchpad (max length of settings contract must be met)\n   }\n    // struct holding information about the launchpad\n    struct LaunchpadInfo {\n        address payable launchpadOwner; // the owner address of the launchpad\n        IERC20 sToken; // token to be sold in the launchpad (sale token)\n        IERC20Meta bToken; // token to purchase the sale token (base token)\n        uint256 amount; // min 10 000\n        uint256 tokenPrice; // the amount of sale tokens received for one base token\n        uint256 maxSpendPerBuyer; // the maximum amount to be spent by a specific buyer\n        uint256 softCap; // minimum sold amount reached at end time for successful ilo\n        uint256 hardcap; // amount to be reached for successful ilo\n        uint256 liquidityPercentage; // min 250(=25%) max 1000(=100%)\n        uint256 listingRate; // listing price of sale token on pancakeswap\n        LaunchpadTimePeriod _launchpadTimePeriod ;\n        bool isBNB; // if the base token is native currency\n    }\n\n    // struct with information about the current launchpad status\n    struct LaunchpadStatus {\n        bool forceFailed; // if the ilo failed (is invalid)\n        bool lpGenerationComplete; // if the lp generation was successful\n        bool whitelistOnly; // allow deposits only for whitelisted users\n        uint256 lpGenerationTimestamp; // set to block.timestamp when lpGenerationComplete is set to true\n        uint256 totalBaseCollected; // tracks total collected amount of base tokens\n        uint256 totalBaseWithdrawn; // tracks withdraws base tokens after failed ilo\n        uint256 totalTokensSold; // tracks the total sold sale tokens\n        uint256 totalTokensWithdrawn; // tracks withdraws sale tokens after successful ilo\n        uint256 numBuyers; // total number of sale token buyers\n        uint256 round1Length; // the length of round 1 in seconds\n    }\n\n    // struct ReffrealDetails {\n    //     address[3] reffers;\n    //     bytes32[3] reffersSign;\n    // }\n\n    /*---------------------------------------------------------------------------------------------\n     * --------------------------------------Global Variables--------------------------------------\n     */\n    // struct variables holding launchpad information\n    LaunchpadInfo public launchpadInfo;\n    LaunchpadFeeInfo public launchpadFeeInfo;\n    LaunchpadStatus public launchpadStatus;\n\n    // interface variables\n    ILaunchpadLockForwarder public immutable launchpadLockForwarder;\n    ILaunchpadSettings public immutable launchpadSettings;\n    IWBNB public immutable WBNB;\n\n    // addresses used for access control\n    address public immutable LAUNCHPAD_GENERATOR;\n    address immutable KINKO_DEV;\n\n    // variables holding information about users\n    mapping(address => BuyerInfo) public buyers;\n    mapping(address => uint256) public rewardTokens;\n\n\n\n    EnumerableSet.AddressSet private whitelist;\n\n    /*---------------------------------------------------------------------------------------------\n     * ------------------------------------Initilize functions-------------------------------------\n     */\n\n    /**\n     * @dev sets initially contract dependend addresses\n     * @param _launchpadGenerator address of the launchpad generator\n     * @param _wbnb address of the wrapped bnb contract\n     * @param _launchpadSettings address of the settings contract\n     * @param _launchpadLockForwarder address of LanchpadLockForwarder contract\n     * @param _pancakeDev address of the developer account\n     */\n    constructor(\n        address _launchpadGenerator,\n        address _wbnb,\n        address _launchpadSettings,\n        address _launchpadLockForwarder,\n        address _pancakeDev\n    ) public {\n        require(\n            _launchpadGenerator != address(0) &&\n                _wbnb != address(0) &&\n                _launchpadSettings != address(0) &&\n                _launchpadLockForwarder != address(0) &&\n                _pancakeDev != address(0),\n            \"ZERO ADDRESS\"\n        );\n        LAUNCHPAD_GENERATOR = _launchpadGenerator;\n        WBNB = IWBNB(_wbnb);\n        launchpadSettings = ILaunchpadSettings(_launchpadSettings);\n        launchpadLockForwarder = ILaunchpadLockForwarder(\n            _launchpadLockForwarder\n        );\n        KINKO_DEV = _pancakeDev;\n    }\n\n    /**\n     * @notice first initilize function sets launchpad information by the launchpad generator\n     * @dev this function can only be called by the launchpad generator\n     * @param _launchpadOwner the owner address of the launchpad\n     * @param _amount the total amount of sale tokens (min 10 000)\n     * @param _tokenPrice the amount of sale tokens for one base token\n     * @param _maxSpendPerBuyer the total amount of base token a specific buyer can spend\n     * @param _hardcap the maximum amount of tokens to be reached for success\n     * @param _softcap the minumum amount of tokens to be reached until end time for success\n     * @param _liquidityPercent the percent of locked liquidity in parts per 1000 (min 250)\n     * @param _listingRate the listing rate on pancakeswap\n     * @param _startTime the timestamp to start launchpad\n     * @param _endTime the timestamp of the launchpad end\n     * @param _lockPeriod the duration of the locking period in seconds\n     */\n     function init1(\n        address payable _launchpadOwner,\n        uint256 _amount,\n        uint256 _tokenPrice,\n        uint256 _maxSpendPerBuyer,\n        uint256 _hardcap,\n        uint256 _softcap,\n        uint256 _liquidityPercent,\n        uint256 _listingRate,\n        uint256 _startTime,\n        uint256 _endTime,\n        uint256 _lockPeriod\n    ) external {\n        require(msg.sender == LAUNCHPAD_GENERATOR, \"FORBIDDEN\");\n        launchpadInfo.launchpadOwner = _launchpadOwner;\n        launchpadInfo.amount = _amount;\n        launchpadInfo.tokenPrice = _tokenPrice;\n        launchpadInfo.maxSpendPerBuyer = _maxSpendPerBuyer;\n        launchpadInfo.hardcap = _hardcap;\n        launchpadInfo.softCap = _softcap;\n        launchpadInfo.liquidityPercentage = _liquidityPercent;\n        launchpadInfo.listingRate = _listingRate;\n        launchpadInfo._launchpadTimePeriod.startTime = _startTime;\n        launchpadInfo._launchpadTimePeriod.endTime = _endTime;\n        launchpadInfo._launchpadTimePeriod.lockPeriod = _lockPeriod;\n    }\n\n    /**\n     * @notice second initilize function sets launchpad information by the launchpad generator\n     * @dev this function can only be called by the launchpad generator\n     * @param _baseToken the token to purchase the sale token\n     * @param _launchpadToken the token to be sold in the launchpad (sale token)\n     * @param _pancakeTokenFee the fee on the sale token by adding liquidity in parts per 1000\n     * @param _referralFee the fee calculated on base fee an token fee in parts per 1000\n     * @param _baseFeeAddress the receiver of the base token fee amount\n     * @param _tokenFeeAddress the receiver of the sale token fee amount\n     * @param _referralAddress the receiver of the sale and base token referral fee amounts\n     */\n    function init2(\n        IERC20Meta _baseToken,\n        IERC20 _launchpadToken,\n        uint256 _pancakeTokenFee,\n        uint256 _referralFee,\n        address payable _baseFeeAddress,\n        address payable _tokenFeeAddress,\n        address payable _referralAddress\n    ) external {\n        require(msg.sender == LAUNCHPAD_GENERATOR, \"FORBIDDEN\");\n\n        launchpadInfo.isBNB = address(_baseToken) == address(WBNB);\n        launchpadInfo.sToken = _launchpadToken;\n        launchpadInfo.bToken = _baseToken;\n        launchpadFeeInfo.pancakeTokenFee = _pancakeTokenFee;\n        launchpadFeeInfo.referralFee = _referralFee;\n\n        launchpadFeeInfo.baseFeeAddress = _baseFeeAddress;\n        launchpadFeeInfo.tokenFeeAddress = _tokenFeeAddress;\n        launchpadFeeInfo.referralFeeAddress = _referralAddress;\n        launchpadStatus.round1Length = launchpadSettings.getRound1Length();\n    }\n\n\n    /*---------------------------------------------------------------------------------------------\n     * -----------------------------------External user functions----------------------------------\n     */\n    /**\n     * @notice has to be called after the launchpad was successful to end the launchpad.\n     * @dev it creates a liquidity pair, locks liquidty and enables the withdraw of users sale tokens.\n     */\n     function addLiquidity() external nonReentrant {\n        require(!launchpadStatus.lpGenerationComplete, \"GENERATION COMPLETE\");\n        require(getLaunchpadStatus() == 2, \"NOT SUCCESS\");\n\n        // abort the launch and set launchpad to failed if a pair already exists on pancakeswap\n        if (\n            launchpadLockForwarder.pancakeswapPairIsInitialised(\n                address(launchpadInfo.sToken),\n                address(launchpadInfo.bToken)\n            )\n        ) {\n            launchpadStatus.forceFailed = true;\n            return;\n        }\n\n        // calculate eneryFi fee on base token\n        uint256 pancakeBaseFee = launchpadStatus\n            .totalBaseCollected\n            .mul(launchpadFeeInfo.pancakeTokenFee)\n            .div(1000);\n\n        // calculate liquidity amount of base token\n        uint256 baseLiquidity = launchpadStatus\n            .totalBaseCollected\n            .sub(pancakeBaseFee)\n            .mul(launchpadInfo.liquidityPercentage)\n            .div(1000);\n\n        // wrap BNB if base token is BNB\n        if (launchpadInfo.isBNB) {\n            WBNB.deposit{value: baseLiquidity}();\n        }\n\n        // approve lock forwarder with base token liquidity amount\n        TransferHelper.safeApprove(\n            address(launchpadInfo.bToken),\n            address(launchpadLockForwarder),\n            baseLiquidity\n        );\n\n        // calculate pancake sale token fee amount\n        uint256 pancakeTokenFee = launchpadStatus\n            .totalTokensSold\n            .mul(launchpadFeeInfo.pancakeTokenFee)\n            .div(1000);\n\n        // calculate equivalent sale token liquidity amount\n        uint256 tokenLiquidity = launchpadStatus\n            .totalTokensSold\n            .sub(pancakeTokenFee)\n            .mul(100 - launchpadInfo.listingRate)\n            .mul(launchpadInfo.liquidityPercentage)\n            .div(100000);\n\n        // approve lock forwarder with sale token liquidity amount\n        TransferHelper.safeApprove(\n            address(launchpadInfo.sToken),\n            address(launchpadLockForwarder),\n            tokenLiquidity\n        );\n\n        // create liquidity pool and lock liquidity\n        launchpadLockForwarder.lockLiquidity(\n            launchpadInfo.bToken,\n            launchpadInfo.sToken,\n            baseLiquidity,\n            tokenLiquidity,\n            block.timestamp.add(launchpadInfo._launchpadTimePeriod.lockPeriod),\n            launchpadInfo.launchpadOwner\n        );\n\n        // calculate referral fee on pancake base fee and kinko token fee\n        if (launchpadFeeInfo.referralFeeAddress != address(0)) {\n            // calculate base token referral fee\n            uint256 referralBaseFee = pancakeBaseFee\n                .mul(launchpadFeeInfo.referralFee)\n                .div(1000);\n            // send base token referral fee to referral receiver address\n            TransferHelper.safeTransferBaseToken(\n                address(launchpadInfo.bToken),\n                launchpadFeeInfo.referralFeeAddress,\n                referralBaseFee,\n                !launchpadInfo.isBNB\n            );\n            pancakeBaseFee = pancakeBaseFee.sub(referralBaseFee);\n\n            // calculate sale token referral fee\n            uint256 referralTokenFee = pancakeTokenFee\n                .mul(launchpadFeeInfo.referralFee)\n                .div(1000);\n            // send sale token referral fee to referral receiver address\n            TransferHelper.safeTransfer(\n                address(launchpadInfo.sToken),\n                launchpadFeeInfo.referralFeeAddress,\n                referralTokenFee\n            );\n            pancakeTokenFee = pancakeTokenFee.sub(referralTokenFee);\n        }\n        // transfer pancake base token fee to base token fee receiver\n        TransferHelper.safeTransferBaseToken(\n            address(launchpadInfo.bToken),\n            launchpadFeeInfo.baseFeeAddress,\n            pancakeBaseFee,\n            !launchpadInfo.isBNB\n        );\n        // transfer pancake sale token fee to sale token fee receiver\n        TransferHelper.safeTransfer(\n            address(launchpadInfo.sToken),\n            launchpadFeeInfo.tokenFeeAddress,\n            pancakeTokenFee\n        );\n\n        uint256 remainingSBalance = launchpadInfo.sToken.balanceOf(\n            address(this)\n        );\n\n        // burn unsold amount of sale tokens\n        if (remainingSBalance > launchpadStatus.totalTokensSold) {\n            uint256 burnAmount = remainingSBalance.sub(\n                launchpadStatus.totalTokensSold\n            );\n            TransferHelper.safeTransfer(\n                address(launchpadInfo.sToken),\n                0x000000000000000000000000000000000000dEaD,\n                burnAmount\n            );\n        }\n\n        // send remaining base token balance to launchpad owner\n        uint256 remainingBaseBalance = launchpadInfo.isBNB\n            ? address(this).balance\n            : launchpadInfo.bToken.balanceOf(address(this));\n        TransferHelper.safeTransferBaseToken(\n            address(launchpadInfo.bToken),\n            launchpadInfo.launchpadOwner,\n            remainingBaseBalance,\n            !launchpadInfo.isBNB\n        );\n\n        // end launchpad by setting pair generation to true\n        launchpadStatus.lpGenerationComplete = true;\n        launchpadStatus.lpGenerationTimestamp = block.timestamp;\n    }\n\n\n    /**\n     * @notice set the status of the launchpad to failed, if a the liquidity pair exists on\n     * pancakeswap before the launchpad is successfully finished\n     * @dev this function can be called by anyone and requires the launchpad to be active\n     */\n    function forceFailIfPairExists() external {\n        require(\n            !launchpadStatus.lpGenerationComplete &&\n                !launchpadStatus.forceFailed,\n            \"LAUNCHPAD NOT ACTIVE\"\n        );\n        if (\n            launchpadLockForwarder.pancakeswapPairIsInitialised(\n                address(launchpadInfo.sToken),\n                address(launchpadInfo.bToken)\n            )\n        ) {\n            launchpadStatus.forceFailed = true;\n        }\n    }\n\n    /**\n     * @notice deposits the given amount of base tokens and calculates the equivalent amount\n     * of sale tokens owed by the caller.\n     * @dev this function uses msg.value and ignores _amount param for BNB as base token.\n     * The correct amount is required for ERC20 base tokens\n     * @param _amount the amount of base token to deposit\n     */\n    function userDeposit(uint256 _amount,  address[3] calldata reffers,\n        bytes32[3] calldata reffersSign)\n        external\n        payable\n        nonReentrant\n    {\n        require(getLaunchpadStatus() == 1, \"NOT ACTIVE\");\n\n        // check for whitelisted auction\n        if (launchpadStatus.whitelistOnly) {\n            require(whitelist.contains(msg.sender), \"NOT WHITELISTED\");\n        }\n\n        // check if token balance for round 1 deposit is met\n        // round 1 deposits require the user to hold a specific token and balance\n        if (\n            block.timestamp <\n            launchpadInfo._launchpadTimePeriod.startTime.add(launchpadStatus.round1Length)\n        ) {\n            require(\n                launchpadSettings.userHoldsSufficientRound1Token(msg.sender),\n                \"INSUFFICENT ROUND 1 TOKEN BALANCE\"\n            );\n        }\n     \n\n        // check if user is allowed to spend the desired token and calculate max amount\n        BuyerInfo storage buyer = buyers[msg.sender];\n        uint256 amount_in = launchpadInfo.isBNB ? msg.value : _amount;\n        uint256 allowance = launchpadInfo.maxSpendPerBuyer.sub(\n            buyer.baseDeposited\n        );\n        uint256 remaining = launchpadInfo.hardcap.sub(\n            launchpadStatus.totalBaseCollected\n        );\n        allowance = allowance > remaining ? remaining : allowance;\n        if (amount_in > allowance) {\n            amount_in = allowance;\n        }\n\n        // calculate amount of sale token for deposit\n        uint256 tokensSold = amount_in.mul(10**18).div(\n            launchpadInfo.tokenPrice\n        );\n        require(tokensSold > 0, \"ZERO TOKENS\");\n\n        // increase total number of buyers\n        if (buyer.baseDeposited == 0) {\n            launchpadStatus.numBuyers++;\n        }\n\n        // update buyer token information\n        buyer.baseDeposited = buyer.baseDeposited.add(amount_in);\n        buyer.tokensOwed = buyer.tokensOwed.add(tokensSold);\n\n        //  calculate and add reward for lauchpad prompts\n        uint256 reward = 0;\n        require(reffers.length<=3,\"reffreal not be more than 3 level\");\n        if (reffers.length != 0) {\n            for (uint256 i = 0; i < reffers.length; i++) {\n                require(verify(reffers[i],address(this),reffersSign[i]),\"Refferal verification failed\");\n                reward = tokensSold.mul(100).div(10000);\n\n                if (reffers[i] != address(0)) {\n                    rewardTokens[reffers[i]] = reward;\n                }\n            }\n            reward = reward.mul(reffers.length);\n        }\n\n        // update launchpad token information\n        launchpadStatus.totalBaseCollected = launchpadStatus\n            .totalBaseCollected\n            .add(amount_in);\n        launchpadStatus.totalTokensSold = launchpadStatus.totalTokensSold.add(\n            tokensSold + reward\n        );\n\n        // transfer unused BNB back to user if base token is BNB\n        if (launchpadInfo.isBNB && amount_in < msg.value) {\n            msg.sender.transfer(msg.value.sub(amount_in));\n        }\n\n        // transfer non BNB base token to launchpad\n        if (!launchpadInfo.isBNB) {\n            TransferHelper.safeTransferFrom(\n                address(launchpadInfo.bToken),\n                msg.sender,\n                address(this),\n                amount_in\n            );\n        }\n    }\n\n    /**\n     * @notice withdraws deposited base tokens of the caller if the launchpad failed\n     */\n    function userWithdrawBaseTokens() external nonReentrant {\n        require(getLaunchpadStatus() == 3, \"NOT FAILED\");\n\n        // calculate user base tokens to be withdrawn\n        BuyerInfo storage buyer = buyers[msg.sender];\n        uint256 baseDeposited = buyer.baseDeposited;\n        require(baseDeposited > 0, \"NOTHING TO WITHDRAW\");\n\n        // update deposited tokens value\n        launchpadStatus.totalBaseWithdrawn = launchpadStatus\n            .totalBaseWithdrawn\n            .add(buyer.baseDeposited);\n        buyer.baseDeposited = 0;\n\n        // tranfer base token back to the depositor\n        TransferHelper.safeTransferBaseToken(\n            address(launchpadInfo.bToken),\n            msg.sender,\n            baseDeposited,\n            !launchpadInfo.isBNB\n        );\n    }\n\n    /**\n     * @notice withdraws users sale token amount if the launchpad was successful and the\n     * liquidity pool creation is completed.\n     */\n    function userWithdrawTokens() external nonReentrant {\n        require(launchpadStatus.lpGenerationComplete, \"AWAITING LP GENERATION\");\n\n        // get sale tokens amount to withdraw\n        BuyerInfo storage buyer = buyers[msg.sender];\n        uint256 tokensOwed = buyer.tokensOwed;\n        require(tokensOwed > 0, \"NOTHING TO WITHDRAW\");\n\n        // update withdrawn sale token amount\n        launchpadStatus.totalTokensWithdrawn = launchpadStatus\n            .totalTokensWithdrawn\n            .add(buyer.tokensOwed);\n        buyer.tokensOwed = 0;\n\n        // transfer sale token to function caller\n        TransferHelper.safeTransfer(\n            address(launchpadInfo.sToken),\n            msg.sender,\n            tokensOwed\n        );\n    }\n\n    function withdrawRewardTokens() external nonReentrant {\n        require(launchpadStatus.lpGenerationComplete, \"AWAITING LP GENERATION\");\n\n        // get sale tokens amount to withdraw\n        uint256 reward = rewardTokens[msg.sender];\n        require(reward > 0, \"NOTHING TO WITHDRAW\");\n\n        // update withdrawn sale token amount\n        launchpadStatus.totalTokensWithdrawn = launchpadStatus\n            .totalTokensWithdrawn\n            .add(reward);\n        rewardTokens[msg.sender] = 0;\n\n        // transfer sale token to function caller\n        TransferHelper.safeTransfer(\n            address(launchpadInfo.sToken),\n            msg.sender,\n            reward\n        );\n    }\n\n    /*---------------------------------------------------------------------------------------------\n     * ------------------------------------Only Owner functions------------------------------------\n     */\n    modifier onlyLaunchpadOwner() {\n        require(\n            launchpadInfo.launchpadOwner == msg.sender,\n            \"NOT LAUNCHPAD OWNER\"\n        );\n        _;\n    }\n\n    /**\n     * @notice update the whitelisted users by owner. Users can be added to or removed from whitelist\n     * @param _users array of user addresses to be added to or removed from whitelist\n     * @param _add indicating if the given user(s) should be added to(=true) or removed from (=false) whitelist\n     */\n    function editWhitelist(address[] memory _users, bool _add)\n        external\n        onlyLaunchpadOwner\n    {\n        if (_add) {\n            for (uint256 i = 0; i < _users.length; i++) {\n                whitelist.add(_users[i]);\n            }\n        } else {\n            for (uint256 i = 0; i < _users.length; i++) {\n                whitelist.remove(_users[i]);\n            }\n        }\n    }\n\n    /**\n     * @notice withdraws all sale tokens by launchpad owner if the launchpad failed\n     * the sale tokens are sent to the launchpad owner address\n     */\n    function ownerWithdrawTokens() external onlyLaunchpadOwner {\n        require(getLaunchpadStatus() == 3, \"NOT FAILED\");\n        TransferHelper.safeTransfer(\n            address(launchpadInfo.sToken),\n            launchpadInfo.launchpadOwner,\n            launchpadInfo.sToken.balanceOf(address(this))\n        );\n    }\n\n    /**\n     * @notice sets if the launchpad is only for whitelisted users by launchpad owner\n     */\n    function setWhitelistFlag(bool _flag) external onlyLaunchpadOwner {\n        launchpadStatus.whitelistOnly = _flag;\n    }\n\n    /**\n     * @notice updates the start and end time of the launchpad by launchpad owner\n     */\n    function updateDuration(uint256 _startTime, uint256 _endTime)\n        external\n        onlyLaunchpadOwner\n    {\n        require(\n            getLaunchpadStatus() == 0 &&\n                launchpadInfo._launchpadTimePeriod.startTime > block.timestamp,\n            \"LAUNCHPAD NOT ACTIVE\"\n        );\n        require(\n            _endTime.sub(_startTime) <=\n                launchpadSettings.getMaxLaunchpadLength(),\n            \"DURATION TOO LONG\"\n        );\n        launchpadInfo._launchpadTimePeriod.startTime = _startTime;\n        launchpadInfo._launchpadTimePeriod.endTime = _endTime;\n    }\n\n    /**\n     * @notice updates the limit a single user can spend on the launchpad\n     */\n    function updateMaxSpendLimit(uint256 _maxSpend)\n        external\n        onlyLaunchpadOwner\n    {\n        launchpadInfo.maxSpendPerBuyer = _maxSpend;\n    }\n\n    /*---------------------------------------------------------------------------------------------\n     * ---------------------------------Only Pancake Dev functions--------------------------------\n     */\n    /**\n     * @notice enegyFi developers can force a fail in case of an unintended behaviour\n     * @dev security function to ensure the launchpad can be cancelled at any time to unlock funds\n     */\n    function forceFailByPancake() external {\n        require(msg.sender == KINKO_DEV);\n        launchpadStatus.forceFailed = true;\n    }\n\n    /*---------------------------------------------------------------------------------------------\n     * --------------------------------------Getter functions--------------------------------------\n     */\n    /**\n     * @notice returns the current status of the launchpad\n     */\n    function getLaunchpadStatus() public view returns (uint256) {\n        if (launchpadStatus.forceFailed) {\n            return 3; // launchpad failed\n        }\n        if (\n            (block.timestamp > launchpadInfo._launchpadTimePeriod.endTime) &&\n            (launchpadStatus.totalBaseCollected < launchpadInfo.softCap)\n        ) {\n            return 3; // launchpad failed - softcap not met\n        }\n        if (launchpadStatus.totalBaseCollected >= launchpadInfo.hardcap) {\n            return 2; // launchpad successful - hardcap met\n        }\n        if (\n            (block.timestamp > launchpadInfo._launchpadTimePeriod.endTime) &&\n            (launchpadStatus.totalBaseCollected >= launchpadInfo.softCap)\n        ) {\n            return 2; // launchpad successful - softcap met\n        }\n        if (\n            (block.timestamp >= launchpadInfo._launchpadTimePeriod.startTime) &&\n            (block.timestamp <= launchpadInfo._launchpadTimePeriod.endTime)\n        ) {\n            return 1; // launchpad active\n        }\n        return 0; // launchpad not active yet\n    }\n\n    /**\n     * @notice returns if a user if whitelisted\n     * @param _user address of the user to be checked\n     */\n    function getUserWhitelistStatus(address _user)\n        external\n        view\n        returns (bool)\n    {\n        return whitelist.contains(_user);\n    }\n\n    /**\n     * @notice returns the users address at the given whitelist index\n     * @param _index whitelist index\n     */\n    function getWhitelistedUserAtIndex(uint256 _index)\n        external\n        view\n        returns (address)\n    {\n        return whitelist.at(_index);\n    }\n\n    /**\n     * @notice returns the total number of whitelisted users\n     */\n    function getWhitelistedUsersLength() external view returns (uint256) {\n        return whitelist.length();\n    }\n\n\n    /*---------------------------------------------------------------------------------------------\n     * ------------------------------------Verify Refferals------------------------------------\n     */\n\n    /* 2. Get message hash to sign\n    getMessageHash(\n        0x14723A09ACff6D2A60DcdF7aA4AFf308FDDC160C,\n        123,\n        \"coffee and donuts\",\n        1\n    )\n\n    hash = \"0xcf36ac4f97dc10d91fc2cbb20d718e94a8cbfe0f82eaedc6a4aa38946fb797cd\"\n    */\n    function getMessageHash(\n        address _reffer,\n        address _launchpadAddress\n    ) public pure returns (bytes32) {\n        return keccak256(abi.encodePacked(_reffer,_launchpadAddress));\n    }   \n\n      function getEthSignedMessageHash(bytes32 _messageHash)\n        public\n        pure\n        returns (bytes32)\n    {\n        /*\n        Signature is produced by signing a keccak256 hash with the following format:\n        \"\\x19Ethereum Signed Message\\n\" + len(msg) + msg\n        */\n        return\n            keccak256(\n                abi.encodePacked(\"\\x19Ethereum Signed Message:\\n32\", _messageHash)\n            );\n    }\n\n\n\n    function verify(\n        address _refferal,\n        address _launchpadAddress,\n        bytes32  signature\n    ) public pure returns (bool) {\n        bytes32 messageHash = getMessageHash(_refferal,_launchpadAddress);\n        bytes32 ethSignedMessageHash = getEthSignedMessageHash(messageHash);\n\n        return recoverSigner(ethSignedMessageHash, signature) == _refferal;\n    }\n\n    function recoverSigner(bytes32 _ethSignedMessageHash, bytes32  _signature)\n        public\n        pure\n        returns (address)\n    {\n        (bytes32 r, bytes32 s, uint8 v) = splitSignature(_signature);\n\n        return ecrecover(_ethSignedMessageHash, v, r, s);\n    }\n\n    function splitSignature(bytes32  sig)\n        public\n        pure\n        returns (\n            bytes32 r,\n            bytes32 s,\n            uint8 v\n        )\n    {\n        require(sig.length == 65, \"invalid signature length\");\n\n        assembly {\n            /*\n            First 32 bytes stores the length of the signature\n\n            add(sig, 32) = pointer of sig + 32\n            effectively, skips first 32 bytes of signature\n\n            mload(p) loads next 32 bytes starting at the memory address p into memory\n            */\n\n            // first 32 bytes, after the length prefix\n            r := mload(add(sig, 32))\n            // second 32 bytes\n            s := mload(add(sig, 64))\n            // final byte (first byte of the next 32 bytes)\n            v := byte(0, mload(add(sig, 96)))\n        }\n\n        // implicitly return (r, s, v)\n    }\n}\n\n",
  "sourcePath": "/Users/apple/Desktop/datacpoy/BlockChain/kinko-contracts/contracts/Launchpad.sol",
  "compiler": {
    "name": "solc",
    "version": "0.6.12+commit.27d51765.Emscripten.clang"
  },
  "schemaVersion": "3.4.6",
  "updatedAt": "2022-07-15T10:58:30.033Z",
  "devdoc": {
    "kind": "dev",
    "methods": {
      "addLiquidity()": {
        "details": "it creates a liquidity pair, locks liquidty and enables the withdraw of users sale tokens."
      },
      "constructor": {
        "details": "sets initially contract dependend addresses",
        "params": {
          "_launchpadGenerator": "address of the launchpad generator",
          "_launchpadLockForwarder": "address of LanchpadLockForwarder contract",
          "_launchpadSettings": "address of the settings contract",
          "_pancakeDev": "address of the developer account",
          "_wbnb": "address of the wrapped bnb contract"
        }
      },
      "editWhitelist(address[],bool)": {
        "params": {
          "_add": "indicating if the given user(s) should be added to(=true) or removed from (=false) whitelist",
          "_users": "array of user addresses to be added to or removed from whitelist"
        }
      },
      "forceFailByPancake()": {
        "details": "security function to ensure the launchpad can be cancelled at any time to unlock funds"
      },
      "forceFailIfPairExists()": {
        "details": "this function can be called by anyone and requires the launchpad to be active"
      },
      "getUserWhitelistStatus(address)": {
        "params": {
          "_user": "address of the user to be checked"
        }
      },
      "getWhitelistedUserAtIndex(uint256)": {
        "params": {
          "_index": "whitelist index"
        }
      },
      "init1(address,uint256,uint256,uint256,uint256,uint256,uint256,uint256,uint256,uint256,uint256)": {
        "details": "this function can only be called by the launchpad generator",
        "params": {
          "_amount": "the total amount of sale tokens (min 10 000)",
          "_endTime": "the timestamp of the launchpad end",
          "_hardcap": "the maximum amount of tokens to be reached for success",
          "_launchpadOwner": "the owner address of the launchpad",
          "_liquidityPercent": "the percent of locked liquidity in parts per 1000 (min 250)",
          "_listingRate": "the listing rate on pancakeswap",
          "_lockPeriod": "the duration of the locking period in seconds",
          "_maxSpendPerBuyer": "the total amount of base token a specific buyer can spend",
          "_softcap": "the minumum amount of tokens to be reached until end time for success",
          "_startTime": "the timestamp to start launchpad",
          "_tokenPrice": "the amount of sale tokens for one base token"
        }
      },
      "init2(address,address,uint256,uint256,address,address,address)": {
        "details": "this function can only be called by the launchpad generator",
        "params": {
          "_baseFeeAddress": "the receiver of the base token fee amount",
          "_baseToken": "the token to purchase the sale token",
          "_launchpadToken": "the token to be sold in the launchpad (sale token)",
          "_pancakeTokenFee": "the fee on the sale token by adding liquidity in parts per 1000",
          "_referralAddress": "the receiver of the sale and base token referral fee amounts",
          "_referralFee": "the fee calculated on base fee an token fee in parts per 1000",
          "_tokenFeeAddress": "the receiver of the sale token fee amount"
        }
      },
      "userDeposit(uint256,address[3],bytes32[3])": {
        "details": "this function uses msg.value and ignores _amount param for BNB as base token. The correct amount is required for ERC20 base tokens",
        "params": {
          "_amount": "the amount of base token to deposit"
        }
      }
    },
    "version": 1
  },
  "userdoc": {
    "kind": "user",
    "methods": {
      "addLiquidity()": {
        "notice": "has to be called after the launchpad was successful to end the launchpad."
      },
      "editWhitelist(address[],bool)": {
        "notice": "update the whitelisted users by owner. Users can be added to or removed from whitelist"
      },
      "forceFailByPancake()": {
        "notice": "enegyFi developers can force a fail in case of an unintended behaviour"
      },
      "forceFailIfPairExists()": {
        "notice": "set the status of the launchpad to failed, if a the liquidity pair exists on pancakeswap before the launchpad is successfully finished"
      },
      "getLaunchpadStatus()": {
        "notice": "returns the current status of the launchpad"
      },
      "getUserWhitelistStatus(address)": {
        "notice": "returns if a user if whitelisted"
      },
      "getWhitelistedUserAtIndex(uint256)": {
        "notice": "returns the users address at the given whitelist index"
      },
      "getWhitelistedUsersLength()": {
        "notice": "returns the total number of whitelisted users"
      },
      "init1(address,uint256,uint256,uint256,uint256,uint256,uint256,uint256,uint256,uint256,uint256)": {
        "notice": "first initilize function sets launchpad information by the launchpad generator"
      },
      "init2(address,address,uint256,uint256,address,address,address)": {
        "notice": "second initilize function sets launchpad information by the launchpad generator"
      },
      "ownerWithdrawTokens()": {
        "notice": "withdraws all sale tokens by launchpad owner if the launchpad failed the sale tokens are sent to the launchpad owner address"
      },
      "setWhitelistFlag(bool)": {
        "notice": "sets if the launchpad is only for whitelisted users by launchpad owner"
      },
      "updateDuration(uint256,uint256)": {
        "notice": "updates the start and end time of the launchpad by launchpad owner"
      },
      "updateMaxSpendLimit(uint256)": {
        "notice": "updates the limit a single user can spend on the launchpad"
      },
      "userDeposit(uint256,address[3],bytes32[3])": {
        "notice": "deposits the given amount of base tokens and calculates the equivalent amount of sale tokens owed by the caller."
      },
      "userWithdrawBaseTokens()": {
        "notice": "withdraws deposited base tokens of the caller if the launchpad failed"
      },
      "userWithdrawTokens()": {
        "notice": "withdraws users sale token amount if the launchpad was successful and the liquidity pool creation is completed."
      }
    },
    "version": 1
  }
}