{
  "contractName": "Launchpad",
  "abi": [
    {
      "inputs": [
        {
          "internalType": "address",
          "name": "_launchpadGenerator",
          "type": "address"
        },
        {
          "internalType": "address",
          "name": "_wbnb",
          "type": "address"
        },
        {
          "internalType": "address",
          "name": "_launchpadSettings",
          "type": "address"
        },
        {
          "internalType": "address",
          "name": "_launchpadLockForwarder",
          "type": "address"
        },
        {
          "internalType": "address",
          "name": "_pancakeDev",
          "type": "address"
        }
      ],
      "stateMutability": "nonpayable",
      "type": "constructor"
    },
    {
      "inputs": [],
      "name": "CONTRACT_VERSION",
      "outputs": [
        {
          "internalType": "uint256",
          "name": "",
          "type": "uint256"
        }
      ],
      "stateMutability": "view",
      "type": "function"
    },
    {
      "inputs": [],
      "name": "LAUNCHPAD_GENERATOR",
      "outputs": [
        {
          "internalType": "address",
          "name": "",
          "type": "address"
        }
      ],
      "stateMutability": "view",
      "type": "function"
    },
    {
      "inputs": [],
      "name": "WBNB",
      "outputs": [
        {
          "internalType": "contract IWBNB",
          "name": "",
          "type": "address"
        }
      ],
      "stateMutability": "view",
      "type": "function"
    },
    {
      "inputs": [
        {
          "internalType": "address",
          "name": "",
          "type": "address"
        }
      ],
      "name": "buyers",
      "outputs": [
        {
          "internalType": "uint256",
          "name": "baseDeposited",
          "type": "uint256"
        },
        {
          "internalType": "uint256",
          "name": "tokensOwed",
          "type": "uint256"
        }
      ],
      "stateMutability": "view",
      "type": "function"
    },
    {
      "inputs": [],
      "name": "launchpadFeeInfo",
      "outputs": [
        {
          "internalType": "uint256",
          "name": "pancakeTokenFee",
          "type": "uint256"
        },
        {
          "internalType": "uint256",
          "name": "referralFee",
          "type": "uint256"
        },
        {
          "internalType": "address payable",
          "name": "baseFeeAddress",
          "type": "address"
        },
        {
          "internalType": "address payable",
          "name": "tokenFeeAddress",
          "type": "address"
        },
        {
          "internalType": "address payable",
          "name": "referralFeeAddress",
          "type": "address"
        }
      ],
      "stateMutability": "view",
      "type": "function"
    },
    {
      "inputs": [],
      "name": "launchpadInfo",
      "outputs": [
        {
          "internalType": "address payable",
          "name": "launchpadOwner",
          "type": "address"
        },
        {
          "internalType": "contract IERC20",
          "name": "sToken",
          "type": "address"
        },
        {
          "internalType": "contract IERC20Meta",
          "name": "bToken",
          "type": "address"
        },
        {
          "internalType": "uint256",
          "name": "amount",
          "type": "uint256"
        },
        {
          "internalType": "uint256",
          "name": "tokenPrice",
          "type": "uint256"
        },
        {
          "internalType": "uint256",
          "name": "maxSpendPerBuyer",
          "type": "uint256"
        },
        {
          "internalType": "uint256",
          "name": "softCap",
          "type": "uint256"
        },
        {
          "internalType": "uint256",
          "name": "hardcap",
          "type": "uint256"
        },
        {
          "internalType": "uint256",
          "name": "liquidityPercentage",
          "type": "uint256"
        },
        {
          "internalType": "uint256",
          "name": "listingRate",
          "type": "uint256"
        },
        {
          "components": [
            {
              "internalType": "uint256",
              "name": "lockPeriod",
              "type": "uint256"
            },
            {
              "internalType": "uint256",
              "name": "startTime",
              "type": "uint256"
            },
            {
              "internalType": "uint256",
              "name": "endTime",
              "type": "uint256"
            }
          ],
          "internalType": "struct Launchpad.LaunchpadTimePeriod",
          "name": "_launchpadTimePeriod",
          "type": "tuple"
        },
        {
          "internalType": "bool",
          "name": "isBNB",
          "type": "bool"
        }
      ],
      "stateMutability": "view",
      "type": "function"
    },
    {
      "inputs": [],
      "name": "launchpadLockForwarder",
      "outputs": [
        {
          "internalType": "contract ILaunchpadLockForwarder",
          "name": "",
          "type": "address"
        }
      ],
      "stateMutability": "view",
      "type": "function"
    },
    {
      "inputs": [],
      "name": "launchpadSettings",
      "outputs": [
        {
          "internalType": "contract ILaunchpadSettings",
          "name": "",
          "type": "address"
        }
      ],
      "stateMutability": "view",
      "type": "function"
    },
    {
      "inputs": [],
      "name": "launchpadStatus",
      "outputs": [
        {
          "internalType": "bool",
          "name": "forceFailed",
          "type": "bool"
        },
        {
          "internalType": "bool",
          "name": "lpGenerationComplete",
          "type": "bool"
        },
        {
          "internalType": "bool",
          "name": "whitelistOnly",
          "type": "bool"
        },
        {
          "internalType": "uint256",
          "name": "lpGenerationTimestamp",
          "type": "uint256"
        },
        {
          "internalType": "uint256",
          "name": "totalBaseCollected",
          "type": "uint256"
        },
        {
          "internalType": "uint256",
          "name": "totalBaseWithdrawn",
          "type": "uint256"
        },
        {
          "internalType": "uint256",
          "name": "totalTokensSold",
          "type": "uint256"
        },
        {
          "internalType": "uint256",
          "name": "totalTokensWithdrawn",
          "type": "uint256"
        },
        {
          "internalType": "uint256",
          "name": "numBuyers",
          "type": "uint256"
        },
        {
          "internalType": "uint256",
          "name": "round1Length",
          "type": "uint256"
        }
      ],
      "stateMutability": "view",
      "type": "function"
    },
    {
      "inputs": [
        {
          "internalType": "address",
          "name": "",
          "type": "address"
        }
      ],
      "name": "rewardTokens",
      "outputs": [
        {
          "internalType": "uint256",
          "name": "",
          "type": "uint256"
        }
      ],
      "stateMutability": "view",
      "type": "function"
    },
    {
      "inputs": [
        {
          "internalType": "address payable",
          "name": "_launchpadOwner",
          "type": "address"
        },
        {
          "internalType": "uint256",
          "name": "_amount",
          "type": "uint256"
        },
        {
          "internalType": "uint256",
          "name": "_tokenPrice",
          "type": "uint256"
        },
        {
          "internalType": "uint256",
          "name": "_maxSpendPerBuyer",
          "type": "uint256"
        },
        {
          "internalType": "uint256",
          "name": "_hardcap",
          "type": "uint256"
        },
        {
          "internalType": "uint256",
          "name": "_softcap",
          "type": "uint256"
        },
        {
          "internalType": "uint256",
          "name": "_liquidityPercent",
          "type": "uint256"
        },
        {
          "internalType": "uint256",
          "name": "_listingRate",
          "type": "uint256"
        },
        {
          "internalType": "uint256",
          "name": "_startTime",
          "type": "uint256"
        },
        {
          "internalType": "uint256",
          "name": "_endTime",
          "type": "uint256"
        },
        {
          "internalType": "uint256",
          "name": "_lockPeriod",
          "type": "uint256"
        }
      ],
      "name": "init1",
      "outputs": [],
      "stateMutability": "nonpayable",
      "type": "function"
    },
    {
      "inputs": [
        {
          "internalType": "contract IERC20Meta",
          "name": "_baseToken",
          "type": "address"
        },
        {
          "internalType": "contract IERC20",
          "name": "_launchpadToken",
          "type": "address"
        },
        {
          "internalType": "uint256",
          "name": "_pancakeTokenFee",
          "type": "uint256"
        },
        {
          "internalType": "uint256",
          "name": "_referralFee",
          "type": "uint256"
        },
        {
          "internalType": "address payable",
          "name": "_baseFeeAddress",
          "type": "address"
        },
        {
          "internalType": "address payable",
          "name": "_tokenFeeAddress",
          "type": "address"
        },
        {
          "internalType": "address payable",
          "name": "_referralAddress",
          "type": "address"
        }
      ],
      "name": "init2",
      "outputs": [],
      "stateMutability": "nonpayable",
      "type": "function"
    },
    {
      "inputs": [],
      "name": "addLiquidity",
      "outputs": [],
      "stateMutability": "nonpayable",
      "type": "function"
    },
    {
      "inputs": [],
      "name": "forceFailIfPairExists",
      "outputs": [],
      "stateMutability": "nonpayable",
      "type": "function"
    },
    {
      "inputs": [
        {
          "internalType": "uint256",
          "name": "_amount",
          "type": "uint256"
        },
        {
          "internalType": "address[]",
          "name": "reffers",
          "type": "address[]"
        },
        {
          "internalType": "bytes[]",
          "name": "reffersSign",
          "type": "bytes[]"
        }
      ],
      "name": "userDeposit",
      "outputs": [],
      "stateMutability": "payable",
      "type": "function"
    },
    {
      "inputs": [],
      "name": "userWithdrawBaseTokens",
      "outputs": [],
      "stateMutability": "nonpayable",
      "type": "function"
    },
    {
      "inputs": [],
      "name": "userWithdrawTokens",
      "outputs": [],
      "stateMutability": "nonpayable",
      "type": "function"
    },
    {
      "inputs": [],
      "name": "withdrawRewardTokens",
      "outputs": [],
      "stateMutability": "nonpayable",
      "type": "function"
    },
    {
      "inputs": [
        {
          "internalType": "address[]",
          "name": "_users",
          "type": "address[]"
        },
        {
          "internalType": "bool",
          "name": "_add",
          "type": "bool"
        }
      ],
      "name": "editWhitelist",
      "outputs": [],
      "stateMutability": "nonpayable",
      "type": "function"
    },
    {
      "inputs": [],
      "name": "ownerWithdrawTokens",
      "outputs": [],
      "stateMutability": "nonpayable",
      "type": "function"
    },
    {
      "inputs": [
        {
          "internalType": "bool",
          "name": "_flag",
          "type": "bool"
        }
      ],
      "name": "setWhitelistFlag",
      "outputs": [],
      "stateMutability": "nonpayable",
      "type": "function"
    },
    {
      "inputs": [
        {
          "internalType": "uint256",
          "name": "_startTime",
          "type": "uint256"
        },
        {
          "internalType": "uint256",
          "name": "_endTime",
          "type": "uint256"
        }
      ],
      "name": "updateDuration",
      "outputs": [],
      "stateMutability": "nonpayable",
      "type": "function"
    },
    {
      "inputs": [
        {
          "internalType": "uint256",
          "name": "_maxSpend",
          "type": "uint256"
        }
      ],
      "name": "updateMaxSpendLimit",
      "outputs": [],
      "stateMutability": "nonpayable",
      "type": "function"
    },
    {
      "inputs": [],
      "name": "forceFailByPancake",
      "outputs": [],
      "stateMutability": "nonpayable",
      "type": "function"
    },
    {
      "inputs": [],
      "name": "getLaunchpadStatus",
      "outputs": [
        {
          "internalType": "uint256",
          "name": "",
          "type": "uint256"
        }
      ],
      "stateMutability": "view",
      "type": "function"
    },
    {
      "inputs": [
        {
          "internalType": "address",
          "name": "_user",
          "type": "address"
        }
      ],
      "name": "getUserWhitelistStatus",
      "outputs": [
        {
          "internalType": "bool",
          "name": "",
          "type": "bool"
        }
      ],
      "stateMutability": "view",
      "type": "function"
    },
    {
      "inputs": [
        {
          "internalType": "uint256",
          "name": "_index",
          "type": "uint256"
        }
      ],
      "name": "getWhitelistedUserAtIndex",
      "outputs": [
        {
          "internalType": "address",
          "name": "",
          "type": "address"
        }
      ],
      "stateMutability": "view",
      "type": "function"
    },
    {
      "inputs": [],
      "name": "getWhitelistedUsersLength",
      "outputs": [
        {
          "internalType": "uint256",
          "name": "",
          "type": "uint256"
        }
      ],
      "stateMutability": "view",
      "type": "function"
    },
    {
      "inputs": [
        {
          "internalType": "address",
          "name": "_reffer",
          "type": "address"
        },
        {
          "internalType": "address",
          "name": "_launchpadAddress",
          "type": "address"
        },
        {
          "internalType": "uint256",
          "name": "_amount",
          "type": "uint256"
        }
      ],
      "name": "getMessageHash",
      "outputs": [
        {
          "internalType": "bytes32",
          "name": "",
          "type": "bytes32"
        }
      ],
      "stateMutability": "pure",
      "type": "function"
    },
    {
      "inputs": [
        {
          "internalType": "bytes32",
          "name": "_messageHash",
          "type": "bytes32"
        }
      ],
      "name": "getEthSignedMessageHash",
      "outputs": [
        {
          "internalType": "bytes32",
          "name": "",
          "type": "bytes32"
        }
      ],
      "stateMutability": "pure",
      "type": "function"
    },
    {
      "inputs": [
        {
          "internalType": "address",
          "name": "_refferal",
          "type": "address"
        },
        {
          "internalType": "address",
          "name": "_launchpadAddress",
          "type": "address"
        },
        {
          "internalType": "uint256",
          "name": "_amount",
          "type": "uint256"
        },
        {
          "internalType": "bytes",
          "name": "signature",
          "type": "bytes"
        }
      ],
      "name": "verify",
      "outputs": [
        {
          "internalType": "bool",
          "name": "",
          "type": "bool"
        }
      ],
      "stateMutability": "pure",
      "type": "function"
    },
    {
      "inputs": [
        {
          "internalType": "bytes32",
          "name": "_ethSignedMessageHash",
          "type": "bytes32"
        },
        {
          "internalType": "bytes",
          "name": "_signature",
          "type": "bytes"
        }
      ],
      "name": "recoverSigner",
      "outputs": [
        {
          "internalType": "address",
          "name": "",
          "type": "address"
        }
      ],
      "stateMutability": "pure",
      "type": "function"
    },
    {
      "inputs": [
        {
          "internalType": "bytes",
          "name": "sig",
          "type": "bytes"
        }
      ],
      "name": "splitSignature",
      "outputs": [
        {
          "internalType": "bytes32",
          "name": "r",
          "type": "bytes32"
        },
        {
          "internalType": "bytes32",
          "name": "s",
          "type": "bytes32"
        },
        {
          "internalType": "uint8",
          "name": "v",
          "type": "uint8"
        }
      ],
      "stateMutability": "pure",
      "type": "function"
    }
  ],
  "bytecode": "0x6101206040523480156200001257600080fd5b5060405162003239380380620032398339810160408190526200003591620000fa565b60016000556001600160a01b038516158015906200005b57506001600160a01b03841615155b80156200007057506001600160a01b03831615155b80156200008557506001600160a01b03821615155b80156200009a57506001600160a01b03811615155b620000c25760405162461bcd60e51b8152600401620000b99062000179565b60405180910390fd5b6001600160601b0319606095861b811660e05293851b841660c05291841b831660a052831b821660805290911b1661010052620001b8565b600080600080600060a0868803121562000112578081fd5b85516200011f816200019f565b602087015190955062000132816200019f565b604087015190945062000145816200019f565b606087015190935062000158816200019f565b60808701519092506200016b816200019f565b809150509295509295909350565b6020808252600c908201526b5a45524f204144445245535360a01b604082015260600190565b6001600160a01b0381168114620001b557600080fd5b50565b60805160601c60a05160601c60c05160601c60e05160601c6101005160601c612ff66200024360003980610d9e525080610c2252806111e1528061143b525080610c745280610ee752806115ee5250806106965280610a935280610d065280610e3152508061108d52806114f1528061167352806116f4528061172c5280611abb5250612ff66000f3fe6080604052600436106101ee5760003560e01c806397a993aa1161010d578063bc577940116100a0578063e8078d941161006f578063e8078d941461055a578063e86e63401461056f578063f5ab16cc14610584578063fa540801146105a4578063fe8121de146105c4576101ee565b8063bc577940146104e5578063bff75f5314610505578063c39e7dbb14610530578063d1ab011e14610545576101ee565b8063a94e7e80116100dc578063a94e7e801461047b578063b93ac79214610490578063b9863a44146104b0578063bba88631146104d0576101ee565b806397a993aa146103e957806397aba7f914610417578063a19ab11614610437578063a7bb58031461044c576101ee565b80634bb18e3f116101855780638c301df8116101545780638c301df8146103675780638dd9500214610387578063927ac44d1461039c57806393e9f8fc146103bc576101ee565b80634bb18e3f146102dd5780636933eb15146102f2578063706b63c6146103145780638995488614610341576101ee565b806338b90333116101c157806338b903331461025d57806339848cd1146102885780633d296122146102a85780634200e4fc146102bd576101ee565b80630d648888146101f357806324ef1bc7146102085780632ad1f1db14610228578063370243dc14610248575b600080fd5b61020661020136600461269b565b6105d9565b005b34801561021457600080fd5b50610206610223366004612568565b610a06565b34801561023457600080fd5b50610206610243366004612783565b610a35565b34801561025457600080fd5b50610206610b55565b34801561026957600080fd5b50610272610c12565b60405161027f9190612987565b60405180910390f35b34801561029457600080fd5b506102066102a3366004612600565b610c17565b3480156102b457600080fd5b50610206610d93565b3480156102c957600080fd5b506102066102d8366004612530565b610dd7565b3480156102e957600080fd5b50610272610e1d565b3480156102fe57600080fd5b50610307610e2f565b60405161027f919061283b565b34801561032057600080fd5b50610329610e53565b60405161027f9c9b9a9998979695949392919061284f565b34801561034d57600080fd5b50610356610eaf565b60405161027f959493929190612f25565b34801561037357600080fd5b50610307610382366004612568565b610ed2565b34801561039357600080fd5b50610307610ee5565b3480156103a857600080fd5b506102066103b736600461247c565b610f09565b3480156103c857600080fd5b506103dc6103d7366004612412565b610fbd565b60405161027f9190612935565b3480156103f557600080fd5b5061040961040436600461233c565b611003565b60405161027f929190612f17565b34801561042357600080fd5b50610307610432366004612580565b61101c565b34801561044357600080fd5b5061030761108b565b34801561045857600080fd5b5061046c6104673660046125c5565b6110af565b60405161027f93929190612990565b34801561048757600080fd5b506102066110f3565b34801561049c57600080fd5b506102066104ab366004612358565b6111d6565b3480156104bc57600080fd5b506103dc6104cb36600461233c565b61126b565b3480156104dc57600080fd5b50610272611278565b3480156104f157600080fd5b506102726105003660046123d2565b61130b565b34801561051157600080fd5b5061051a61133f565b60405161027f9a99989796959493929190612940565b34801561053c57600080fd5b5061020661137d565b34801561055157600080fd5b50610307611439565b34801561056657600080fd5b5061020661145d565b34801561057b57600080fd5b50610206611a67565b34801561059057600080fd5b5061027261059f36600461233c565b611b59565b3480156105b057600080fd5b506102726105bf366004612568565b611b6b565b3480156105d057600080fd5b50610206611b9b565b600260005414156106055760405162461bcd60e51b81526004016105fc90612ebb565b60405180910390fd5b6002600055610612611278565b6001146106315760405162461bcd60e51b81526004016105fc90612cb3565b60145462010000900460ff16156106695761064d601e33611c4d565b6106695760405162461bcd60e51b81526004016105fc90612cd7565b601b54600c5461067891611c69565b42101561073757604051634a6da48160e01b81526001600160a01b037f00000000000000000000000000000000000000000000000000000000000000001690634a6da481906106cb90339060040161283b565b60206040518083038186803b1580156106e357600080fd5b505afa1580156106f7573d6000803e3d6000fd5b505050506040513d601f19601f8201168201806040525081019061071b919061254c565b6107375760405162461bcd60e51b81526004016105fc906129ff565b336000908152601c60205260408120600e5490919060ff16610759578561075b565b345b825460065491925060009161076f91611c8e565b60165460085491925060009161078491611c8e565b90508082116107935781610795565b805b9150818311156107a3578192505b6005546000906107c5906107bf86670de0b6b3a7640000611cb6565b90611cf0565b9050600081116107e75760405162461bcd60e51b81526004016105fc90612ef2565b84546107f757601a805460010190555b84546108039085611c69565b855560018501546108149082611c69565b60018601556000600388111561083c5760405162461bcd60e51b81526004016105fc90612c3b565b8651881461085c5760405162461bcd60e51b81526004016105fc90612a40565b87156109635760005b88811015610955576108ac8a8a8381811061087c57fe5b9050602002016020810190610891919061233c565b308d8b858151811061089f57fe5b6020026020010151610fbd565b6108c85760405162461bcd60e51b81526004016105fc90612b32565b6108d96127106107bf856064611cb6565b915060008a8a838181106108e957fe5b90506020020160208101906108fe919061233c565b6001600160a01b03161461094d5781601d60008c8c8581811061091d57fe5b9050602002016020810190610932919061233c565b6001600160a01b031681526020810191909152604001600020555b600101610865565b506109608189611cb6565b90505b6016546109709086611c69565b60165560185461098290838301611c69565b601855600e5460ff16801561099657503485105b156109d357336108fc6109a93488611c8e565b6040518115909202916000818181858888f193505050501580156109d1573d6000803e3d6000fd5b505b600e5460ff166109f5576003546109f5906001600160a01b0316333088611d22565b505060016000555050505050505050565b6001546001600160a01b03163314610a305760405162461bcd60e51b81526004016105fc90612e13565b600655565b6001546001600160a01b03163314610a5f5760405162461bcd60e51b81526004016105fc90612e13565b610a67611278565b158015610a755750600c5442105b610a915760405162461bcd60e51b81526004016105fc90612de5565b7f00000000000000000000000000000000000000000000000000000000000000006001600160a01b031663cef6fc0b6040518163ffffffff1660e01b815260040160206040518083038186803b158015610aea57600080fd5b505afa158015610afe573d6000803e3d6000fd5b505050506040513d601f19601f82011682018060405250810190610b229190612683565b610b2c8284611c8e565b1115610b4a5760405162461bcd60e51b81526004016105fc90612ae2565b600c91909155600d55565b60026000541415610b785760405162461bcd60e51b81526004016105fc90612ebb565b6002600055601454610100900460ff16610ba45760405162461bcd60e51b81526004016105fc90612d47565b336000908152601d602052604090205480610bd15760405162461bcd60e51b81526004016105fc90612ba0565b601954610bde9082611c69565b601955336000818152601d6020526040812055600254610c0a916001600160a01b039091169083611e13565b506001600055565b600181565b336001600160a01b037f00000000000000000000000000000000000000000000000000000000000000001614610c5f5760405162461bcd60e51b81526004016105fc90612d00565b600e805460ff19166001600160a01b038981167f00000000000000000000000000000000000000000000000000000000000000008216811492909217909255600280548984166001600160a01b031991821617909155600380548216909217909155600f8790556010869055601180548684169083161790556012805485841690831617905560138054848416921691909117905560408051635564890b60e11b815290517f00000000000000000000000000000000000000000000000000000000000000009092169163aac9121691600481810192602092909190829003018186803b158015610d4f57600080fd5b505afa158015610d63573d6000803e3d6000fd5b505050506040513d601f19601f82011682018060405250810190610d879190612683565b601b5550505050505050565b336001600160a01b037f00000000000000000000000000000000000000000000000000000000000000001614610dc857600080fd5b6014805460ff19166001179055565b6001546001600160a01b03163314610e015760405162461bcd60e51b81526004016105fc90612e13565b60148054911515620100000262ff000019909216919091179055565b6000610e29601e611f01565b90505b90565b7f000000000000000000000000000000000000000000000000000000000000000081565b600154600254600354600454600554600654600754600854600954600a5460408051606081018252600b548152600c546020820152600d5491810191909152600e546001600160a01b039b8c169b9a8b169a9099169860ff168c565b600f546010546011546012546013546001600160a01b0392831692918216911685565b6000610edf601e83611f0c565b92915050565b7f000000000000000000000000000000000000000000000000000000000000000081565b6001546001600160a01b03163314610f335760405162461bcd60e51b81526004016105fc90612e13565b8015610f7b5760005b8251811015610f7557610f6c838281518110610f5457fe5b6020026020010151601e611f1890919063ffffffff16565b50600101610f3c565b50610fb9565b60005b8251811015610fb757610fae838281518110610f9657fe5b6020026020010151601e611f2d90919063ffffffff16565b50600101610f7e565b505b5050565b600080610fcb86868661130b565b90506000610fd882611b6b565b9050866001600160a01b0316610fee828661101c565b6001600160a01b031614979650505050505050565b601c602052600090815260409020805460019091015482565b60008060008061102b856110af565b9250925092506001868285856040516000815260200160405260405161105494939291906129a9565b6020604051602081039080840390855afa158015611076573d6000803e3d6000fd5b5050604051601f190151979650505050505050565b7f000000000000000000000000000000000000000000000000000000000000000081565b600080600083516041146110d55760405162461bcd60e51b81526004016105fc90612e40565b50505060208101516040820151606090920151909260009190911a90565b6001546001600160a01b0316331461111d5760405162461bcd60e51b81526004016105fc90612e13565b611125611278565b6003146111445760405162461bcd60e51b81526004016105fc90612d23565b6002546001546040516370a0823160e01b81526111d4926001600160a01b0390811692169082906370a082319061117f90309060040161283b565b60206040518083038186803b15801561119757600080fd5b505afa1580156111ab573d6000803e3d6000fd5b505050506040513d601f19601f820116820180604052508101906111cf9190612683565b611e13565b565b336001600160a01b037f0000000000000000000000000000000000000000000000000000000000000000161461121e5760405162461bcd60e51b81526004016105fc90612d00565b600180546001600160a01b0319166001600160a01b039c909c169b909b17909a55600498909855600596909655600694909455600892909255600755600955600a55600c55600d55600b55565b6000610edf601e83611c4d565b60145460009060ff161561128e57506003610e2c565b600d54421180156112a25750600754601654105b156112af57506003610e2c565b600854601654106112c257506002610e2c565b600d54421180156112d7575060075460165410155b156112e457506002610e2c565b600c5442108015906112f85750600d544211155b1561130557506001610e2c565b50600090565b600083836040516020016113209291906127aa565b6040516020818303038152906040528051906020012090509392505050565b601454601554601654601754601854601954601a54601b5460ff8089169861010081048216986201000090910490911696909590949093909290918a565b600260005414156113a05760405162461bcd60e51b81526004016105fc90612ebb565b60026000556113ad611278565b6003146113cc5760405162461bcd60e51b81526004016105fc90612d23565b336000908152601c602052604090208054806113fa5760405162461bcd60e51b81526004016105fc90612ba0565b815460175461140891611c69565b60175560008255600354600e54611430916001600160a01b0316903390849060ff1615611f42565b50506001600055565b7f000000000000000000000000000000000000000000000000000000000000000081565b600260005414156114805760405162461bcd60e51b81526004016105fc90612ebb565b6002600055601454610100900460ff16156114ad5760405162461bcd60e51b81526004016105fc90612db8565b6114b5611278565b6002146114d45760405162461bcd60e51b81526004016105fc90612b0d565b60025460035460405163b2b6d1a560e01b81526001600160a01b037f000000000000000000000000000000000000000000000000000000000000000081169363b2b6d1a59361152b939183169216906004016128f7565b60206040518083038186803b15801561154357600080fd5b505afa158015611557573d6000803e3d6000fd5b505050506040513d601f19601f8201168201806040525081019061157b919061254c565b15611592576014805460ff19166001179055611a60565b600f546016546000916115ad916103e8916107bf9190611cb6565b905060006115de6103e86107bf6001600801546115d886601460020154611c8e90919063ffffffff16565b90611cb6565b600e5490915060ff1615611661577f00000000000000000000000000000000000000000000000000000000000000006001600160a01b031663d0e30db0826040518263ffffffff1660e01b81526004016000604051808303818588803b15801561164757600080fd5b505af115801561165b573d6000803e3d6000fd5b50505050505b600354611698906001600160a01b03167f000000000000000000000000000000000000000000000000000000000000000083612070565b600f546018546000916116b3916103e8916107bf9190611cb6565b600954600a546018549293506000926116df92620186a0926107bf926115d89160640390829089611c8e565b600254909150611719906001600160a01b03167f000000000000000000000000000000000000000000000000000000000000000083612070565b600354600254600b546001600160a01b037f0000000000000000000000000000000000000000000000000000000000000000811693632277d0e393908216929116908790869061176a904290611c69565b6001546040516001600160e01b031960e089901b16815261179c9695949392916001600160a01b0316906004016129c7565b600060405180830381600087803b1580156117b657600080fd5b505af11580156117ca573d6000803e3d6000fd5b50506013546001600160a01b031615915061188790505760006118016103e86107bf600f6001015488611cb690919063ffffffff16565b600354601354600e5492935061182c926001600160a01b039283169290911690849060ff1615611f42565b6118368582611c8e565b945060006118586103e86107bf600f6001015487611cb690919063ffffffff16565b600254601354919250611878916001600160a01b03918216911683611e13565b6118828482611c8e565b935050505b600354601154600e546118ad926001600160a01b03908116921690879060ff1615611f42565b6002546012546118ca916001600160a01b03908116911684611e13565b6002546040516370a0823160e01b81526000916001600160a01b0316906370a08231906118fb90309060040161283b565b60206040518083038186803b15801561191357600080fd5b505afa158015611927573d6000803e3d6000fd5b505050506040513d601f19601f8201168201806040525081019061194b9190612683565b60185490915081111561198757601854600090611969908390611c8e565b600254909150611985906001600160a01b031661dead83611e13565b505b600e5460009060ff16611a19576003546040516370a0823160e01b81526001600160a01b03909116906370a08231906119c490309060040161283b565b60206040518083038186803b1580156119dc57600080fd5b505afa1580156119f0573d6000803e3d6000fd5b505050506040513d601f19601f82011682018060405250810190611a149190612683565b611a1b565b475b600354600154600e54929350611a46926001600160a01b039283169290911690849060ff1615611f42565b50506014805461ff00191661010017905550504260155550505b6001600055565b601454610100900460ff16158015611a82575060145460ff16155b611a9e5760405162461bcd60e51b81526004016105fc90612de5565b60025460035460405163b2b6d1a560e01b81526001600160a01b037f000000000000000000000000000000000000000000000000000000000000000081169363b2b6d1a593611af5939183169216906004016128f7565b60206040518083038186803b158015611b0d57600080fd5b505afa158015611b21573d6000803e3d6000fd5b505050506040513d601f19601f82011682018060405250810190611b45919061254c565b156111d4576014805460ff19166001179055565b601d6020526000908152604090205481565b600081604051602001611b7e919061280a565b604051602081830303815290604052805190602001209050919050565b60026000541415611bbe5760405162461bcd60e51b81526004016105fc90612ebb565b6002600055601454610100900460ff16611bea5760405162461bcd60e51b81526004016105fc90612d47565b336000908152601c60205260409020600181015480611c1b5760405162461bcd60e51b81526004016105fc90612ba0565b6001820154601954611c2c91611c69565b60195560006001830155600254611430906001600160a01b03163383611e13565b6000611c62836001600160a01b038416612157565b9392505050565b600082820183811015611c625760405162461bcd60e51b81526004016105fc90612b69565b600082821115611cb05760405162461bcd60e51b81526004016105fc90612c04565b50900390565b600082611cc557506000610edf565b82820282848281611cd257fe5b0414611c625760405162461bcd60e51b81526004016105fc90612d77565b6000808211611d115760405162461bcd60e51b81526004016105fc90612c7c565b818381611d1a57fe5b049392505050565b60006060856001600160a01b03166323b872dd868686604051602401611d4a93929190612911565b6040516020818303038152906040529060e01b6020820180516001600160e01b038381831617835250505050604051611d8391906127d1565b6000604051808303816000865af19150503d8060008114611dc0576040519150601f19603f3d011682016040523d82523d6000602084013e611dc5565b606091505b5091509150818015611def575080511580611def575080806020019051810190611def919061254c565b611e0b5760405162461bcd60e51b81526004016105fc90612e77565b505050505050565b60006060846001600160a01b031663a9059cbb8585604051602401611e399291906128de565b6040516020818303038152906040529060e01b6020820180516001600160e01b038381831617835250505050604051611e7291906127d1565b6000604051808303816000865af19150503d8060008114611eaf576040519150601f19603f3d011682016040523d82523d6000602084013e611eb4565b606091505b5091509150818015611ede575080511580611ede575080806020019051810190611ede919061254c565b611efa5760405162461bcd60e51b81526004016105fc90612aab565b5050505050565b6000610edf8261216f565b6000611c628383612173565b6000611c62836001600160a01b0384166121b8565b6000611c62836001600160a01b038416612202565b80611f83576040516001600160a01b0384169083156108fc029084906000818181858888f19350505050158015611f7d573d6000803e3d6000fd5b5061206a565b60006060856001600160a01b031663a9059cbb8686604051602401611fa99291906128de565b6040516020818303038152906040529060e01b6020820180516001600160e01b038381831617835250505050604051611fe291906127d1565b6000604051808303816000865af19150503d806000811461201f576040519150601f19603f3d011682016040523d82523d6000602084013e612024565b606091505b509150915081801561204e57508051158061204e57508080602001905181019061204e919061254c565b611e0b5760405162461bcd60e51b81526004016105fc90612aab565b50505050565b60006060846001600160a01b031663095ea7b385856040516024016120969291906128de565b6040516020818303038152906040529060e01b6020820180516001600160e01b0383818316178352505050506040516120cf91906127d1565b6000604051808303816000865af19150503d806000811461210c576040519150601f19603f3d011682016040523d82523d6000602084013e612111565b606091505b509150915081801561213b57508051158061213b57508080602001905181019061213b919061254c565b611efa5760405162461bcd60e51b81526004016105fc90612bcd565b60009081526001919091016020526040902054151590565b5490565b815460009082106121965760405162461bcd60e51b81526004016105fc90612a69565b8260000182815481106121a557fe5b9060005260206000200154905092915050565b60006121c48383612157565b6121fa57508154600181810184556000848152602080822090930184905584548482528286019093526040902091909155610edf565b506000610edf565b600081815260018301602052604081205480156122be578354600019808301919081019060009087908390811061223557fe5b906000526020600020015490508087600001848154811061225257fe5b60009182526020808320909101929092558281526001898101909252604090209084019055865487908061228257fe5b60019003818190600052602060002001600090559055866001016000878152602001908152602001600020600090556001945050505050610edf565b6000915050610edf565b8035610edf81612fb2565b600082601f8301126122e3578081fd5b813567ffffffffffffffff8111156122f9578182fd5b61230c601f8201601f1916602001612f53565b915080825283602082850101111561232357600080fd5b8060208401602084013760009082016020015292915050565b60006020828403121561234d578081fd5b8135611c6281612f9a565b60008060008060008060008060008060006101608c8e031215612379578687fd5b8b3561238481612f9a565b9d60208d01359d5060408d01359c60608101359c5060808101359b5060a08101359a5060c0810135995060e08101359850610100810135975061012081013596506101400135945092505050565b6000806000606084860312156123e6578283fd5b83356123f181612f9a565b9250602084013561240181612f9a565b929592945050506040919091013590565b60008060008060808587031215612427578384fd5b843561243281612f9a565b9350602085013561244281612f9a565b925060408501359150606085013567ffffffffffffffff811115612464578182fd5b612470878288016122d3565b91505092959194509250565b6000806040838503121561248e578182fd5b823567ffffffffffffffff8111156124a4578283fd5b8301601f810185136124b4578283fd5b80356124c76124c282612f7a565b612f53565b8082825260208083019250808501898283870288010111156124e7578788fd5b8795505b848610156125125780356124fe81612f9a565b8452600195909501949281019281016124eb565b5081965061252289828a016122c8565b955050505050509250929050565b600060208284031215612541578081fd5b8135611c6281612fb2565b60006020828403121561255d578081fd5b8151611c6281612fb2565b600060208284031215612579578081fd5b5035919050565b60008060408385031215612592578182fd5b82359150602083013567ffffffffffffffff8111156125af578182fd5b6125bb858286016122d3565b9150509250929050565b6000602082840312156125d6578081fd5b813567ffffffffffffffff8111156125ec578182fd5b6125f8848285016122d3565b949350505050565b600080600080600080600060e0888a03121561261a578081fd5b873561262581612f9a565b9650602088013561263581612f9a565b95506040880135945060608801359350608088013561265381612f9a565b925060a088013561266381612f9a565b915060c088013561267381612f9a565b8091505092959891949750929550565b600060208284031215612694578081fd5b5051919050565b600080600080606085870312156126b0578182fd5b8435935060208086013567ffffffffffffffff808211156126cf578485fd5b818801915088601f8301126126e2578485fd5b8135818111156126f0578586fd5b89848583028501011115612702578586fd5b91830195509093506040870135908082111561271c578384fd5b508601601f8101881361272d578283fd5b803561273b6124c282612f7a565b81815283810190838501865b848110156127705761275e8d8884358901016122d3565b84529286019290860190600101612747565b5050809550505050505092959194509250565b60008060408385031215612795578182fd5b50508035926020909101359150565b15159052565b6bffffffffffffffffffffffff19606093841b811682529190921b16601482015260280190565b60008251815b818110156127f157602081860181015185830152016127d7565b818111156127ff5782828501525b509190910192915050565b7f19457468657265756d205369676e6564204d6573736167653a0a3332000000008152601c810191909152603c0190565b6001600160a01b0391909116815260200190565b60006101c08201905060018060a01b03808f168352808e166020840152808d166040840152508a60608301528960808301528860a08301528760c08301528660e083015285610100830152846101208301528351610140830152602084015161016083015260408401516101808301526128cd6101a08301846127a4565b9d9c50505050505050505050505050565b6001600160a01b03929092168252602082015260400190565b6001600160a01b0392831681529116602082015260400190565b6001600160a01b039384168152919092166020820152604081019190915260600190565b901515815260200190565b9915158a5297151560208a015295151560408901526060880194909452608087019290925260a086015260c085015260e08401526101008301526101208201526101400190565b90815260200190565b928352602083019190915260ff16604082015260600190565b93845260ff9290921660208401526040830152606082015260800190565b6001600160a01b039687168152948616602086015260408501939093526060840191909152608083015290911660a082015260c00190565b60208082526021908201527f494e535546464943454e5420524f554e44203120544f4b454e2042414c414e436040820152604560f81b606082015260800190565b6020808252600f908201526e0d8cadccee8d040dad2e6dac2e8c6d608b1b604082015260600190565b60208082526022908201527f456e756d657261626c655365743a20696e646578206f7574206f6620626f756e604082015261647360f01b606082015260800190565b6020808252601f908201527f5472616e7366657248656c7065723a205452414e534645525f4641494c454400604082015260600190565b6020808252601190820152704455524154494f4e20544f4f204c4f4e4760781b604082015260600190565b6020808252600b908201526a4e4f54205355434345535360a81b604082015260600190565b6020808252601c908201527f526566666572616c20766572696669636174696f6e206661696c656400000000604082015260600190565b6020808252601b908201527f536166654d6174683a206164646974696f6e206f766572666c6f770000000000604082015260600190565b6020808252601390820152724e4f5448494e4720544f20574954484452415760681b604082015260600190565b6020808252601e908201527f5472616e7366657248656c7065723a20415050524f56455f4641494c45440000604082015260600190565b6020808252601e908201527f536166654d6174683a207375627472616374696f6e206f766572666c6f770000604082015260600190565b60208082526021908201527f726566667265616c206e6f74206265206d6f7265207468616e2033206c6576656040820152601b60fa1b606082015260800190565b6020808252601a908201527f536166654d6174683a206469766973696f6e206279207a65726f000000000000604082015260600190565b6020808252600a90820152694e4f542041435449564560b01b604082015260600190565b6020808252600f908201526e1393d50815d2125511531254d51151608a1b604082015260600190565b6020808252600990820152682327a92124a22222a760b91b604082015260600190565b6020808252600a90820152691393d50811905253115160b21b604082015260600190565b60208082526016908201527520aba0a4aa24a7239026281023a2a722a920aa24a7a760511b604082015260600190565b60208082526021908201527f536166654d6174683a206d756c7469706c69636174696f6e206f766572666c6f6040820152607760f81b606082015260800190565b60208082526013908201527247454e45524154494f4e20434f4d504c45544560681b604082015260600190565b6020808252601490820152734c41554e4348504144204e4f542041435449564560601b604082015260600190565b6020808252601390820152722727aa102620aaa721a42820a21027aba722a960691b604082015260600190565b60208082526018908201527f696e76616c6964207369676e6174757265206c656e6774680000000000000000604082015260600190565b60208082526024908201527f5472616e7366657248656c7065723a205452414e534645525f46524f4d5f46416040820152631253115160e21b606082015260800190565b6020808252601f908201527f5265656e7472616e637947756172643a207265656e7472616e742063616c6c00604082015260600190565b6020808252600b908201526a5a45524f20544f4b454e5360a81b604082015260600190565b918252602082015260400190565b94855260208501939093526001600160a01b0391821660408501528116606084015216608082015260a00190565b60405181810167ffffffffffffffff81118282101715612f7257600080fd5b604052919050565b600067ffffffffffffffff821115612f90578081fd5b5060209081020190565b6001600160a01b0381168114612faf57600080fd5b50565b8015158114612faf57600080fdfea264697066735822122011fccc9ef59b1d17ef9d6de724fa92874749999e3a4e68df7200fa4a619f5caf64736f6c634300060c0033",
  "immutableReferences": {
    "1064": [
      {
        "length": 32,
        "start": 4237
      },
      {
        "length": 32,
        "start": 5361
      },
      {
        "length": 32,
        "start": 5747
      },
      {
        "length": 32,
        "start": 5876
      },
      {
        "length": 32,
        "start": 5932
      },
      {
        "length": 32,
        "start": 6843
      }
    ],
    "1066": [
      {
        "length": 32,
        "start": 1686
      },
      {
        "length": 32,
        "start": 2707
      },
      {
        "length": 32,
        "start": 3334
      },
      {
        "length": 32,
        "start": 3633
      }
    ],
    "1068": [
      {
        "length": 32,
        "start": 3188
      },
      {
        "length": 32,
        "start": 3815
      },
      {
        "length": 32,
        "start": 5614
      }
    ],
    "1070": [
      {
        "length": 32,
        "start": 3106
      },
      {
        "length": 32,
        "start": 4577
      },
      {
        "length": 32,
        "start": 5179
      }
    ],
    "1072": [
      {
        "length": 32,
        "start": 3486
      }
    ]
  },
  "source": "// SPDX-License-Identifier: MIT\n\n/**\n * @title Launchpad of Pancake launchpad enviroment\n * @dev This contract represents a launchpad. A launchpad can be created and initilized by a\n * launchpad generator. Users can deposit base token if the launchpad is active and get an\n * amount of sale token in raltion to the token price. The sale tokens can be withdrawn if the\n * the launchpad is successful. Otherwise the users and the launchpad owner get back their\n * vested tokens. On launchpad success a pancakeswap liquidity pair will be created and the\n * specified amount of liquidity will be locked in pancake locker contract.\n */\n\npragma solidity 0.6.12;\npragma experimental ABIEncoderV2;\nimport \"@openzeppelin/contracts/utils/EnumerableSet.sol\";\nimport \"@openzeppelin/contracts/math/SafeMath.sol\";\nimport \"@openzeppelin/contracts/utils/ReentrancyGuard.sol\";\nimport \"@openzeppelin/contracts/token/ERC20/IERC20.sol\";\nimport \"../interfaces/IERC20Meta.sol\";\nimport \"../interfaces/ILaunchpadLockForwarder.sol\";\nimport \"../interfaces/ILaunchpadSettings.sol\";\nimport \"../interfaces/IWBNB.sol\";\nimport \"./TransferHelper.sol\";\n\n\n\ncontract Launchpad is ReentrancyGuard {\n    using SafeMath for uint256;\n    using EnumerableSet for EnumerableSet.AddressSet;\n\n    uint256 public constant CONTRACT_VERSION = 1;\n\n    /*---------------------------------------------------------------------------------------------\n     * ------------------------------------Structs definitions-------------------------------------\n     */\n\n    // struct holding accounting information about a buyer\n    struct BuyerInfo {\n        uint256 baseDeposited; // amount of deposited base tokens\n        uint256 tokensOwed; // amount of owed sale tokens\n    }\n\n    // struct holding information about the fees during the ilo\n    struct LaunchpadFeeInfo {\n        uint256 pancakeTokenFee; // fee on adding liquidity calculated on sale token (in parts per 1000)\n        uint256 referralFee; // fee on adding liquidity calculated on baseFee and token fee (in parts per 1000)\n        address payable baseFeeAddress; // address receiving base token fee amount\n        address payable tokenFeeAddress; // address receiving sale token fee amount\n        address payable referralFeeAddress; // address receiving referral fee amount in base and sale token\n    }\n\n  \n   struct LaunchpadTimePeriod{\n        uint256 lockPeriod; // duration of the token lock in seconds (min 1 year)\n        uint256 startTime; // the timestamp to start the launchpad\n        uint256 endTime; // the timestamp to end the launchpad (max length of settings contract must be met)\n   }\n    // struct holding information about the launchpad\n    struct LaunchpadInfo {\n        address payable launchpadOwner; // the owner address of the launchpad\n        IERC20 sToken; // token to be sold in the launchpad (sale token)\n        IERC20Meta bToken; // token to purchase the sale token (base token)\n        uint256 amount; // min 10 000\n        uint256 tokenPrice; // the amount of sale tokens received for one base token\n        uint256 maxSpendPerBuyer; // the maximum amount to be spent by a specific buyer\n        uint256 softCap; // minimum sold amount reached at end time for successful ilo\n        uint256 hardcap; // amount to be reached for successful ilo\n        uint256 liquidityPercentage; // min 250(=25%) max 1000(=100%)\n        uint256 listingRate; // listing price of sale token on pancakeswap\n        LaunchpadTimePeriod _launchpadTimePeriod ;\n        bool isBNB; // if the base token is native currency\n    }\n\n    // struct with information about the current launchpad status\n    struct LaunchpadStatus {\n        bool forceFailed; // if the ilo failed (is invalid)\n        bool lpGenerationComplete; // if the lp generation was successful\n        bool whitelistOnly; // allow deposits only for whitelisted users\n        uint256 lpGenerationTimestamp; // set to block.timestamp when lpGenerationComplete is set to true\n        uint256 totalBaseCollected; // tracks total collected amount of base tokens\n        uint256 totalBaseWithdrawn; // tracks withdraws base tokens after failed ilo\n        uint256 totalTokensSold; // tracks the total sold sale tokens\n        uint256 totalTokensWithdrawn; // tracks withdraws sale tokens after successful ilo\n        uint256 numBuyers; // total number of sale token buyers\n        uint256 round1Length; // the length of round 1 in seconds\n    }\n\n    // struct ReffrealDetails {\n    //     address[3] reffers;\n    //     bytes32[3] reffersSign;\n    // }\n\n    /*---------------------------------------------------------------------------------------------\n     * --------------------------------------Global Variables--------------------------------------\n     */\n    // struct variables holding launchpad information\n    LaunchpadInfo public launchpadInfo;\n    LaunchpadFeeInfo public launchpadFeeInfo;\n    LaunchpadStatus public launchpadStatus;\n\n    // interface variables\n    ILaunchpadLockForwarder public immutable launchpadLockForwarder;\n    ILaunchpadSettings public immutable launchpadSettings;\n    IWBNB public immutable WBNB;\n\n    // addresses used for access control\n    address public immutable LAUNCHPAD_GENERATOR;\n    address immutable KINKO_DEV;\n\n    // variables holding information about users\n    mapping(address => BuyerInfo) public buyers;\n    mapping(address => uint256) public rewardTokens;\n\n\n\n    EnumerableSet.AddressSet private whitelist;\n\n    /*---------------------------------------------------------------------------------------------\n     * ------------------------------------Initilize functions-------------------------------------\n     */\n\n    /**\n     * @dev sets initially contract dependend addresses\n     * @param _launchpadGenerator address of the launchpad generator\n     * @param _wbnb address of the wrapped bnb contract\n     * @param _launchpadSettings address of the settings contract\n     * @param _launchpadLockForwarder address of LanchpadLockForwarder contract\n     * @param _pancakeDev address of the developer account\n     */\n    constructor(\n        address _launchpadGenerator,\n        address _wbnb,\n        address _launchpadSettings,\n        address _launchpadLockForwarder,\n        address _pancakeDev\n    ) public {\n        require(\n            _launchpadGenerator != address(0) &&\n                _wbnb != address(0) &&\n                _launchpadSettings != address(0) &&\n                _launchpadLockForwarder != address(0) &&\n                _pancakeDev != address(0),\n            \"ZERO ADDRESS\"\n        );\n        LAUNCHPAD_GENERATOR = _launchpadGenerator;\n        WBNB = IWBNB(_wbnb);\n        launchpadSettings = ILaunchpadSettings(_launchpadSettings);\n        launchpadLockForwarder = ILaunchpadLockForwarder(\n            _launchpadLockForwarder\n        );\n        KINKO_DEV = _pancakeDev;\n    }\n\n    /**\n     * @notice first initilize function sets launchpad information by the launchpad generator\n     * @dev this function can only be called by the launchpad generator\n     * @param _launchpadOwner the owner address of the launchpad\n     * @param _amount the total amount of sale tokens (min 10 000)\n     * @param _tokenPrice the amount of sale tokens for one base token\n     * @param _maxSpendPerBuyer the total amount of base token a specific buyer can spend\n     * @param _hardcap the maximum amount of tokens to be reached for success\n     * @param _softcap the minumum amount of tokens to be reached until end time for success\n     * @param _liquidityPercent the percent of locked liquidity in parts per 1000 (min 250)\n     * @param _listingRate the listing rate on pancakeswap\n     * @param _startTime the timestamp to start launchpad\n     * @param _endTime the timestamp of the launchpad end\n     * @param _lockPeriod the duration of the locking period in seconds\n     */\n     function init1(\n        address payable _launchpadOwner,\n        uint256 _amount,\n        uint256 _tokenPrice,\n        uint256 _maxSpendPerBuyer,\n        uint256 _hardcap,\n        uint256 _softcap,\n        uint256 _liquidityPercent,\n        uint256 _listingRate,\n        uint256 _startTime,\n        uint256 _endTime,\n        uint256 _lockPeriod\n    ) external {\n        require(msg.sender == LAUNCHPAD_GENERATOR, \"FORBIDDEN\");\n        launchpadInfo.launchpadOwner = _launchpadOwner;\n        launchpadInfo.amount = _amount;\n        launchpadInfo.tokenPrice = _tokenPrice;\n        launchpadInfo.maxSpendPerBuyer = _maxSpendPerBuyer;\n        launchpadInfo.hardcap = _hardcap;\n        launchpadInfo.softCap = _softcap;\n        launchpadInfo.liquidityPercentage = _liquidityPercent;\n        launchpadInfo.listingRate = _listingRate;\n        launchpadInfo._launchpadTimePeriod.startTime = _startTime;\n        launchpadInfo._launchpadTimePeriod.endTime = _endTime;\n        launchpadInfo._launchpadTimePeriod.lockPeriod = _lockPeriod;\n    }\n\n    /**\n     * @notice second initilize function sets launchpad information by the launchpad generator\n     * @dev this function can only be called by the launchpad generator\n     * @param _baseToken the token to purchase the sale token\n     * @param _launchpadToken the token to be sold in the launchpad (sale token)\n     * @param _pancakeTokenFee the fee on the sale token by adding liquidity in parts per 1000\n     * @param _referralFee the fee calculated on base fee an token fee in parts per 1000\n     * @param _baseFeeAddress the receiver of the base token fee amount\n     * @param _tokenFeeAddress the receiver of the sale token fee amount\n     * @param _referralAddress the receiver of the sale and base token referral fee amounts\n     */\n    function init2(\n        IERC20Meta _baseToken,\n        IERC20 _launchpadToken,\n        uint256 _pancakeTokenFee,\n        uint256 _referralFee,\n        address payable _baseFeeAddress,\n        address payable _tokenFeeAddress,\n        address payable _referralAddress\n    ) external {\n        require(msg.sender == LAUNCHPAD_GENERATOR, \"FORBIDDEN\");\n\n        launchpadInfo.isBNB = address(_baseToken) == address(WBNB);\n        launchpadInfo.sToken = _launchpadToken;\n        launchpadInfo.bToken = _baseToken;\n        launchpadFeeInfo.pancakeTokenFee = _pancakeTokenFee;\n        launchpadFeeInfo.referralFee = _referralFee;\n\n        launchpadFeeInfo.baseFeeAddress = _baseFeeAddress;\n        launchpadFeeInfo.tokenFeeAddress = _tokenFeeAddress;\n        launchpadFeeInfo.referralFeeAddress = _referralAddress;\n        launchpadStatus.round1Length = launchpadSettings.getRound1Length();\n    }\n\n\n    /*---------------------------------------------------------------------------------------------\n     * -----------------------------------External user functions----------------------------------\n     */\n    /**\n     * @notice has to be called after the launchpad was successful to end the launchpad.\n     * @dev it creates a liquidity pair, locks liquidty and enables the withdraw of users sale tokens.\n     */\n     function addLiquidity() external nonReentrant {\n        require(!launchpadStatus.lpGenerationComplete, \"GENERATION COMPLETE\");\n        require(getLaunchpadStatus() == 2, \"NOT SUCCESS\");\n\n        // abort the launch and set launchpad to failed if a pair already exists on pancakeswap\n        if (\n            launchpadLockForwarder.pancakeswapPairIsInitialised(\n                address(launchpadInfo.sToken),\n                address(launchpadInfo.bToken)\n            )\n        ) {\n            launchpadStatus.forceFailed = true;\n            return;\n        }\n\n        // calculate eneryFi fee on base token\n        uint256 pancakeBaseFee = launchpadStatus\n            .totalBaseCollected\n            .mul(launchpadFeeInfo.pancakeTokenFee)\n            .div(1000);\n\n        // calculate liquidity amount of base token\n        uint256 baseLiquidity = launchpadStatus\n            .totalBaseCollected\n            .sub(pancakeBaseFee)\n            .mul(launchpadInfo.liquidityPercentage)\n            .div(1000);\n\n        // wrap BNB if base token is BNB\n        if (launchpadInfo.isBNB) {\n            WBNB.deposit{value: baseLiquidity}();\n        }\n\n        // approve lock forwarder with base token liquidity amount\n        TransferHelper.safeApprove(\n            address(launchpadInfo.bToken),\n            address(launchpadLockForwarder),\n            baseLiquidity\n        );\n\n        // calculate pancake sale token fee amount\n        uint256 pancakeTokenFee = launchpadStatus\n            .totalTokensSold\n            .mul(launchpadFeeInfo.pancakeTokenFee)\n            .div(1000);\n\n        // calculate equivalent sale token liquidity amount\n        uint256 tokenLiquidity = launchpadStatus\n            .totalTokensSold\n            .sub(pancakeTokenFee)\n            .mul(100 - launchpadInfo.listingRate)\n            .mul(launchpadInfo.liquidityPercentage)\n            .div(100000);\n\n        // approve lock forwarder with sale token liquidity amount\n        TransferHelper.safeApprove(\n            address(launchpadInfo.sToken),\n            address(launchpadLockForwarder),\n            tokenLiquidity\n        );\n\n        // create liquidity pool and lock liquidity\n        launchpadLockForwarder.lockLiquidity(\n            launchpadInfo.bToken,\n            launchpadInfo.sToken,\n            baseLiquidity,\n            tokenLiquidity,\n            block.timestamp.add(launchpadInfo._launchpadTimePeriod.lockPeriod),\n            launchpadInfo.launchpadOwner\n        );\n\n        // calculate referral fee on pancake base fee and kinko token fee\n        if (launchpadFeeInfo.referralFeeAddress != address(0)) {\n            // calculate base token referral fee\n            uint256 referralBaseFee = pancakeBaseFee\n                .mul(launchpadFeeInfo.referralFee)\n                .div(1000);\n            // send base token referral fee to referral receiver address\n            TransferHelper.safeTransferBaseToken(\n                address(launchpadInfo.bToken),\n                launchpadFeeInfo.referralFeeAddress,\n                referralBaseFee,\n                !launchpadInfo.isBNB\n            );\n            pancakeBaseFee = pancakeBaseFee.sub(referralBaseFee);\n\n            // calculate sale token referral fee\n            uint256 referralTokenFee = pancakeTokenFee\n                .mul(launchpadFeeInfo.referralFee)\n                .div(1000);\n            // send sale token referral fee to referral receiver address\n            TransferHelper.safeTransfer(\n                address(launchpadInfo.sToken),\n                launchpadFeeInfo.referralFeeAddress,\n                referralTokenFee\n            );\n            pancakeTokenFee = pancakeTokenFee.sub(referralTokenFee);\n        }\n        // transfer pancake base token fee to base token fee receiver\n        TransferHelper.safeTransferBaseToken(\n            address(launchpadInfo.bToken),\n            launchpadFeeInfo.baseFeeAddress,\n            pancakeBaseFee,\n            !launchpadInfo.isBNB\n        );\n        // transfer pancake sale token fee to sale token fee receiver\n        TransferHelper.safeTransfer(\n            address(launchpadInfo.sToken),\n            launchpadFeeInfo.tokenFeeAddress,\n            pancakeTokenFee\n        );\n\n        uint256 remainingSBalance = launchpadInfo.sToken.balanceOf(\n            address(this)\n        );\n\n        // burn unsold amount of sale tokens\n        if (remainingSBalance > launchpadStatus.totalTokensSold) {\n            uint256 burnAmount = remainingSBalance.sub(\n                launchpadStatus.totalTokensSold\n            );\n            TransferHelper.safeTransfer(\n                address(launchpadInfo.sToken),\n                0x000000000000000000000000000000000000dEaD,\n                burnAmount\n            );\n        }\n\n        // send remaining base token balance to launchpad owner\n        uint256 remainingBaseBalance = launchpadInfo.isBNB\n            ? address(this).balance\n            : launchpadInfo.bToken.balanceOf(address(this));\n        TransferHelper.safeTransferBaseToken(\n            address(launchpadInfo.bToken),\n            launchpadInfo.launchpadOwner,\n            remainingBaseBalance,\n            !launchpadInfo.isBNB\n        );\n\n        // end launchpad by setting pair generation to true\n        launchpadStatus.lpGenerationComplete = true;\n        launchpadStatus.lpGenerationTimestamp = block.timestamp;\n    }\n\n\n    /**\n     * @notice set the status of the launchpad to failed, if a the liquidity pair exists on\n     * pancakeswap before the launchpad is successfully finished\n     * @dev this function can be called by anyone and requires the launchpad to be active\n     */\n    function forceFailIfPairExists() external {\n        require(\n            !launchpadStatus.lpGenerationComplete &&\n                !launchpadStatus.forceFailed,\n            \"LAUNCHPAD NOT ACTIVE\"\n        );\n        if (\n            launchpadLockForwarder.pancakeswapPairIsInitialised(\n                address(launchpadInfo.sToken),\n                address(launchpadInfo.bToken)\n            )\n        ) {\n            launchpadStatus.forceFailed = true;\n        }\n    }\n\n    /**\n     * @notice deposits the given amount of base tokens and calculates the equivalent amount\n     * of sale tokens owed by the caller.\n     * @dev this function uses msg.value and ignores _amount param for BNB as base token.\n     * The correct amount is required for ERC20 base tokens\n     * @param _amount the amount of base token to deposit\n     */\n    function userDeposit(uint256 _amount,  address[] calldata reffers,\n        bytes[] memory reffersSign)\n        external\n        payable\n        nonReentrant\n    {\n        require(getLaunchpadStatus() == 1, \"NOT ACTIVE\");\n\n        // check for whitelisted auction\n        if (launchpadStatus.whitelistOnly) {\n            require(whitelist.contains(msg.sender), \"NOT WHITELISTED\");\n        }\n\n        // check if token balance for round 1 deposit is met\n        // round 1 deposits require the user to hold a specific token and balance\n        if (\n            block.timestamp <\n            launchpadInfo._launchpadTimePeriod.startTime.add(launchpadStatus.round1Length)\n        ) {\n            require(\n                launchpadSettings.userHoldsSufficientRound1Token(msg.sender),\n                \"INSUFFICENT ROUND 1 TOKEN BALANCE\"\n            );\n        }\n     \n\n        // check if user is allowed to spend the desired token and calculate max amount\n        BuyerInfo storage buyer = buyers[msg.sender];\n        uint256 amount_in = launchpadInfo.isBNB ? msg.value : _amount;\n        uint256 allowance = launchpadInfo.maxSpendPerBuyer.sub(\n            buyer.baseDeposited\n        );\n        uint256 remaining = launchpadInfo.hardcap.sub(\n            launchpadStatus.totalBaseCollected\n        );\n        allowance = allowance > remaining ? remaining : allowance;\n        if (amount_in > allowance) {\n            amount_in = allowance;\n        }\n\n        // calculate amount of sale token for deposit\n        uint256 tokensSold = amount_in.mul(10**18).div(\n            launchpadInfo.tokenPrice\n        );\n        require(tokensSold > 0, \"ZERO TOKENS\");\n\n        // increase total number of buyers\n        if (buyer.baseDeposited == 0) {\n            launchpadStatus.numBuyers++;\n        }\n\n        // update buyer token information\n        buyer.baseDeposited = buyer.baseDeposited.add(amount_in);\n        buyer.tokensOwed = buyer.tokensOwed.add(tokensSold);\n\n        //  calculate and add reward for lauchpad prompts\n        uint256 reward = 0;\n        require(reffers.length<=3,\"reffreal not be more than 3 level\");\n        require(reffers.length==reffersSign.length,\"length mismatch\");\n\n        if (reffers.length >0) {\n            for (uint256 i = 0; i < reffers.length; i++) {\n                require(verify(reffers[i],address(this),_amount,reffersSign[i]),\"Refferal verification failed\");\n                reward = tokensSold.mul(100).div(10000);\n\n                if (reffers[i] != address(0)) {\n                    rewardTokens[reffers[i]] = reward;\n                }\n            }\n            reward = reward.mul(reffers.length);\n        }\n\n        // update launchpad token information\n        launchpadStatus.totalBaseCollected = launchpadStatus\n            .totalBaseCollected\n            .add(amount_in);\n        launchpadStatus.totalTokensSold = launchpadStatus.totalTokensSold.add(\n            tokensSold + reward\n        );\n\n        // transfer unused BNB back to user if base token is BNB\n        if (launchpadInfo.isBNB && amount_in < msg.value) {\n            msg.sender.transfer(msg.value.sub(amount_in));\n        }\n\n        // transfer non BNB base token to launchpad\n        if (!launchpadInfo.isBNB) {\n            TransferHelper.safeTransferFrom(\n                address(launchpadInfo.bToken),\n                msg.sender,\n                address(this),\n                amount_in\n            );\n        }\n    }\n\n    /**\n     * @notice withdraws deposited base tokens of the caller if the launchpad failed\n     */\n    function userWithdrawBaseTokens() external nonReentrant {\n        require(getLaunchpadStatus() == 3, \"NOT FAILED\");\n\n        // calculate user base tokens to be withdrawn\n        BuyerInfo storage buyer = buyers[msg.sender];\n        uint256 baseDeposited = buyer.baseDeposited;\n        require(baseDeposited > 0, \"NOTHING TO WITHDRAW\");\n\n        // update deposited tokens value\n        launchpadStatus.totalBaseWithdrawn = launchpadStatus\n            .totalBaseWithdrawn\n            .add(buyer.baseDeposited);\n        buyer.baseDeposited = 0;\n\n        // tranfer base token back to the depositor\n        TransferHelper.safeTransferBaseToken(\n            address(launchpadInfo.bToken),\n            msg.sender,\n            baseDeposited,\n            !launchpadInfo.isBNB\n        );\n    }\n\n    /**\n     * @notice withdraws users sale token amount if the launchpad was successful and the\n     * liquidity pool creation is completed.\n     */\n    function userWithdrawTokens() external nonReentrant {\n        require(launchpadStatus.lpGenerationComplete, \"AWAITING LP GENERATION\");\n\n        // get sale tokens amount to withdraw\n        BuyerInfo storage buyer = buyers[msg.sender];\n        uint256 tokensOwed = buyer.tokensOwed;\n        require(tokensOwed > 0, \"NOTHING TO WITHDRAW\");\n\n        // update withdrawn sale token amount\n        launchpadStatus.totalTokensWithdrawn = launchpadStatus\n            .totalTokensWithdrawn\n            .add(buyer.tokensOwed);\n        buyer.tokensOwed = 0;\n\n        // transfer sale token to function caller\n        TransferHelper.safeTransfer(\n            address(launchpadInfo.sToken),\n            msg.sender,\n            tokensOwed\n        );\n    }\n\n    function withdrawRewardTokens() external nonReentrant {\n        require(launchpadStatus.lpGenerationComplete, \"AWAITING LP GENERATION\");\n\n        // get sale tokens amount to withdraw\n        uint256 reward = rewardTokens[msg.sender];\n        require(reward > 0, \"NOTHING TO WITHDRAW\");\n\n        // update withdrawn sale token amount\n        launchpadStatus.totalTokensWithdrawn = launchpadStatus\n            .totalTokensWithdrawn\n            .add(reward);\n        rewardTokens[msg.sender] = 0;\n\n        // transfer sale token to function caller\n        TransferHelper.safeTransfer(\n            address(launchpadInfo.sToken),\n            msg.sender,\n            reward\n        );\n    }\n\n    /*---------------------------------------------------------------------------------------------\n     * ------------------------------------Only Owner functions------------------------------------\n     */\n    modifier onlyLaunchpadOwner() {\n        require(\n            launchpadInfo.launchpadOwner == msg.sender,\n            \"NOT LAUNCHPAD OWNER\"\n        );\n        _;\n    }\n\n    /**\n     * @notice update the whitelisted users by owner. Users can be added to or removed from whitelist\n     * @param _users array of user addresses to be added to or removed from whitelist\n     * @param _add indicating if the given user(s) should be added to(=true) or removed from (=false) whitelist\n     */\n    function editWhitelist(address[] memory _users, bool _add)\n        external\n        onlyLaunchpadOwner\n    {\n        if (_add) {\n            for (uint256 i = 0; i < _users.length; i++) {\n                whitelist.add(_users[i]);\n            }\n        } else {\n            for (uint256 i = 0; i < _users.length; i++) {\n                whitelist.remove(_users[i]);\n            }\n        }\n    }\n\n    /**\n     * @notice withdraws all sale tokens by launchpad owner if the launchpad failed\n     * the sale tokens are sent to the launchpad owner address\n     */\n    function ownerWithdrawTokens() external onlyLaunchpadOwner {\n        require(getLaunchpadStatus() == 3, \"NOT FAILED\");\n        TransferHelper.safeTransfer(\n            address(launchpadInfo.sToken),\n            launchpadInfo.launchpadOwner,\n            launchpadInfo.sToken.balanceOf(address(this))\n        );\n    }\n\n    /**\n     * @notice sets if the launchpad is only for whitelisted users by launchpad owner\n     */\n    function setWhitelistFlag(bool _flag) external onlyLaunchpadOwner {\n        launchpadStatus.whitelistOnly = _flag;\n    }\n\n    /**\n     * @notice updates the start and end time of the launchpad by launchpad owner\n     */\n    function updateDuration(uint256 _startTime, uint256 _endTime)\n        external\n        onlyLaunchpadOwner\n    {\n        require(\n            getLaunchpadStatus() == 0 &&\n                launchpadInfo._launchpadTimePeriod.startTime > block.timestamp,\n            \"LAUNCHPAD NOT ACTIVE\"\n        );\n        require(\n            _endTime.sub(_startTime) <=\n                launchpadSettings.getMaxLaunchpadLength(),\n            \"DURATION TOO LONG\"\n        );\n        launchpadInfo._launchpadTimePeriod.startTime = _startTime;\n        launchpadInfo._launchpadTimePeriod.endTime = _endTime;\n    }\n\n    /**\n     * @notice updates the limit a single user can spend on the launchpad\n     */\n    function updateMaxSpendLimit(uint256 _maxSpend)\n        external\n        onlyLaunchpadOwner\n    {\n        launchpadInfo.maxSpendPerBuyer = _maxSpend;\n    }\n\n    /*---------------------------------------------------------------------------------------------\n     * ---------------------------------Only Pancake Dev functions--------------------------------\n     */\n    /**\n     * @notice enegyFi developers can force a fail in case of an unintended behaviour\n     * @dev security function to ensure the launchpad can be cancelled at any time to unlock funds\n     */\n    function forceFailByPancake() external {\n        require(msg.sender == KINKO_DEV);\n        launchpadStatus.forceFailed = true;\n    }\n\n    /*---------------------------------------------------------------------------------------------\n     * --------------------------------------Getter functions--------------------------------------\n     */\n    /**\n     * @notice returns the current status of the launchpad\n     */\n    function getLaunchpadStatus() public view returns (uint256) {\n        if (launchpadStatus.forceFailed) {\n            return 3; // launchpad failed\n        }\n        if (\n            (block.timestamp > launchpadInfo._launchpadTimePeriod.endTime) &&\n            (launchpadStatus.totalBaseCollected < launchpadInfo.softCap)\n        ) {\n            return 3; // launchpad failed - softcap not met\n        }\n        if (launchpadStatus.totalBaseCollected >= launchpadInfo.hardcap) {\n            return 2; // launchpad successful - hardcap met\n        }\n        if (\n            (block.timestamp > launchpadInfo._launchpadTimePeriod.endTime) &&\n            (launchpadStatus.totalBaseCollected >= launchpadInfo.softCap)\n        ) {\n            return 2; // launchpad successful - softcap met\n        }\n        if (\n            (block.timestamp >= launchpadInfo._launchpadTimePeriod.startTime) &&\n            (block.timestamp <= launchpadInfo._launchpadTimePeriod.endTime)\n        ) {\n            return 1; // launchpad active\n        }\n        return 0; // launchpad not active yet\n    }\n\n    /**\n     * @notice returns if a user if whitelisted\n     * @param _user address of the user to be checked\n     */\n    function getUserWhitelistStatus(address _user)\n        external\n        view\n        returns (bool)\n    {\n        return whitelist.contains(_user);\n    }\n\n    /**\n     * @notice returns the users address at the given whitelist index\n     * @param _index whitelist index\n     */\n    function getWhitelistedUserAtIndex(uint256 _index)\n        external\n        view\n        returns (address)\n    {\n        return whitelist.at(_index);\n    }\n\n    /**\n     * @notice returns the total number of whitelisted users\n     */\n    function getWhitelistedUsersLength() external view returns (uint256) {\n        return whitelist.length();\n    }\n\n\n    /*---------------------------------------------------------------------------------------------\n     * ------------------------------------Verify Refferals------------------------------------\n     */\n\n    /* 2. Get message hash to sign\n    getMessageHash(\n        0x14723A09ACff6D2A60DcdF7aA4AFf308FDDC160C,\n        123,\n        \"coffee and donuts\",\n        1\n    )\n\n    hash = \"0xcf36ac4f97dc10d91fc2cbb20d718e94a8cbfe0f82eaedc6a4aa38946fb797cd\"\n    */\n    function getMessageHash(\n        address _reffer,\n        address _launchpadAddress,\n        uint256 _amount\n    ) public pure returns (bytes32) {\n        return keccak256(abi.encodePacked(_reffer,_launchpadAddress));\n    }   \n\n      function getEthSignedMessageHash(bytes32 _messageHash)\n        public\n        pure\n        returns (bytes32)\n    {\n        /*\n        Signature is produced by signing a keccak256 hash with the following format:\n        \"\\x19Ethereum Signed Message\\n\" + len(msg) + msg\n        */\n        return\n            keccak256(\n                abi.encodePacked(\"\\x19Ethereum Signed Message:\\n32\", _messageHash)\n            );\n    }\n\n\n\n    function verify(\n        address _refferal,\n        address _launchpadAddress,\n        uint256 _amount,\n        bytes memory signature\n    ) public pure returns (bool) {\n        bytes32 messageHash = getMessageHash(_refferal,_launchpadAddress,_amount);\n        bytes32 ethSignedMessageHash = getEthSignedMessageHash(messageHash);\n\n        return recoverSigner(ethSignedMessageHash, signature) == _refferal;\n    }\n\n    function recoverSigner(bytes32 _ethSignedMessageHash, bytes memory  _signature)\n        public\n        pure\n        returns (address)\n    {\n        (bytes32 r, bytes32 s, uint8 v) = splitSignature(_signature);\n\n        return ecrecover(_ethSignedMessageHash, v, r, s);\n    }\n\n    function splitSignature(bytes memory  sig)\n        public\n        pure\n        returns (\n            bytes32 r,\n            bytes32 s,\n            uint8 v\n        )\n    {\n        require(sig.length == 65, \"invalid signature length\");\n\n        assembly {\n            /*\n            First 32 bytes stores the length of the signature\n\n            add(sig, 32) = pointer of sig + 32\n            effectively, skips first 32 bytes of signature\n\n            mload(p) loads next 32 bytes starting at the memory address p into memory\n            */\n\n            // first 32 bytes, after the length prefix\n            r := mload(add(sig, 32))\n            // second 32 bytes\n            s := mload(add(sig, 64))\n            // final byte (first byte of the next 32 bytes)\n            v := byte(0, mload(add(sig, 96)))\n        }\n\n        // implicitly return (r, s, v)\n    }\n}\n\n",
  "sourcePath": "/Users/apple/Desktop/datacpoy/BlockChain/kinko-contracts/contracts/Launchpad.sol",
  "compiler": {
    "name": "solc",
    "version": "0.6.12+commit.27d51765.Emscripten.clang"
  },
  "schemaVersion": "3.4.6",
  "updatedAt": "2022-07-16T14:50:42.033Z",
  "devdoc": {
    "kind": "dev",
    "methods": {
      "addLiquidity()": {
        "details": "it creates a liquidity pair, locks liquidty and enables the withdraw of users sale tokens."
      },
      "constructor": {
        "details": "sets initially contract dependend addresses",
        "params": {
          "_launchpadGenerator": "address of the launchpad generator",
          "_launchpadLockForwarder": "address of LanchpadLockForwarder contract",
          "_launchpadSettings": "address of the settings contract",
          "_pancakeDev": "address of the developer account",
          "_wbnb": "address of the wrapped bnb contract"
        }
      },
      "editWhitelist(address[],bool)": {
        "params": {
          "_add": "indicating if the given user(s) should be added to(=true) or removed from (=false) whitelist",
          "_users": "array of user addresses to be added to or removed from whitelist"
        }
      },
      "forceFailByPancake()": {
        "details": "security function to ensure the launchpad can be cancelled at any time to unlock funds"
      },
      "forceFailIfPairExists()": {
        "details": "this function can be called by anyone and requires the launchpad to be active"
      },
      "getUserWhitelistStatus(address)": {
        "params": {
          "_user": "address of the user to be checked"
        }
      },
      "getWhitelistedUserAtIndex(uint256)": {
        "params": {
          "_index": "whitelist index"
        }
      },
      "init1(address,uint256,uint256,uint256,uint256,uint256,uint256,uint256,uint256,uint256,uint256)": {
        "details": "this function can only be called by the launchpad generator",
        "params": {
          "_amount": "the total amount of sale tokens (min 10 000)",
          "_endTime": "the timestamp of the launchpad end",
          "_hardcap": "the maximum amount of tokens to be reached for success",
          "_launchpadOwner": "the owner address of the launchpad",
          "_liquidityPercent": "the percent of locked liquidity in parts per 1000 (min 250)",
          "_listingRate": "the listing rate on pancakeswap",
          "_lockPeriod": "the duration of the locking period in seconds",
          "_maxSpendPerBuyer": "the total amount of base token a specific buyer can spend",
          "_softcap": "the minumum amount of tokens to be reached until end time for success",
          "_startTime": "the timestamp to start launchpad",
          "_tokenPrice": "the amount of sale tokens for one base token"
        }
      },
      "init2(address,address,uint256,uint256,address,address,address)": {
        "details": "this function can only be called by the launchpad generator",
        "params": {
          "_baseFeeAddress": "the receiver of the base token fee amount",
          "_baseToken": "the token to purchase the sale token",
          "_launchpadToken": "the token to be sold in the launchpad (sale token)",
          "_pancakeTokenFee": "the fee on the sale token by adding liquidity in parts per 1000",
          "_referralAddress": "the receiver of the sale and base token referral fee amounts",
          "_referralFee": "the fee calculated on base fee an token fee in parts per 1000",
          "_tokenFeeAddress": "the receiver of the sale token fee amount"
        }
      },
      "userDeposit(uint256,address[],bytes[])": {
        "details": "this function uses msg.value and ignores _amount param for BNB as base token. The correct amount is required for ERC20 base tokens",
        "params": {
          "_amount": "the amount of base token to deposit"
        }
      }
    },
    "version": 1
  },
  "userdoc": {
    "kind": "user",
    "methods": {
      "addLiquidity()": {
        "notice": "has to be called after the launchpad was successful to end the launchpad."
      },
      "editWhitelist(address[],bool)": {
        "notice": "update the whitelisted users by owner. Users can be added to or removed from whitelist"
      },
      "forceFailByPancake()": {
        "notice": "enegyFi developers can force a fail in case of an unintended behaviour"
      },
      "forceFailIfPairExists()": {
        "notice": "set the status of the launchpad to failed, if a the liquidity pair exists on pancakeswap before the launchpad is successfully finished"
      },
      "getLaunchpadStatus()": {
        "notice": "returns the current status of the launchpad"
      },
      "getUserWhitelistStatus(address)": {
        "notice": "returns if a user if whitelisted"
      },
      "getWhitelistedUserAtIndex(uint256)": {
        "notice": "returns the users address at the given whitelist index"
      },
      "getWhitelistedUsersLength()": {
        "notice": "returns the total number of whitelisted users"
      },
      "init1(address,uint256,uint256,uint256,uint256,uint256,uint256,uint256,uint256,uint256,uint256)": {
        "notice": "first initilize function sets launchpad information by the launchpad generator"
      },
      "init2(address,address,uint256,uint256,address,address,address)": {
        "notice": "second initilize function sets launchpad information by the launchpad generator"
      },
      "ownerWithdrawTokens()": {
        "notice": "withdraws all sale tokens by launchpad owner if the launchpad failed the sale tokens are sent to the launchpad owner address"
      },
      "setWhitelistFlag(bool)": {
        "notice": "sets if the launchpad is only for whitelisted users by launchpad owner"
      },
      "updateDuration(uint256,uint256)": {
        "notice": "updates the start and end time of the launchpad by launchpad owner"
      },
      "updateMaxSpendLimit(uint256)": {
        "notice": "updates the limit a single user can spend on the launchpad"
      },
      "userDeposit(uint256,address[],bytes[])": {
        "notice": "deposits the given amount of base tokens and calculates the equivalent amount of sale tokens owed by the caller."
      },
      "userWithdrawBaseTokens()": {
        "notice": "withdraws deposited base tokens of the caller if the launchpad failed"
      },
      "userWithdrawTokens()": {
        "notice": "withdraws users sale token amount if the launchpad was successful and the liquidity pool creation is completed."
      }
    },
    "version": 1
  }
}