{
  "contractName": "Launchpad",
  "abi": [
    {
      "inputs": [
        {
          "internalType": "address",
          "name": "_launchpadGenerator",
          "type": "address"
        },
        {
          "internalType": "address",
          "name": "_wbnb",
          "type": "address"
        },
        {
          "internalType": "address",
          "name": "_launchpadSettings",
          "type": "address"
        },
        {
          "internalType": "address",
          "name": "_launchpadLockForwarder",
          "type": "address"
        },
        {
          "internalType": "address",
          "name": "_pancakeDev",
          "type": "address"
        }
      ],
      "stateMutability": "nonpayable",
      "type": "constructor"
    },
    {
      "inputs": [],
      "name": "CONTRACT_VERSION",
      "outputs": [
        {
          "internalType": "uint256",
          "name": "",
          "type": "uint256"
        }
      ],
      "stateMutability": "view",
      "type": "function"
    },
    {
      "inputs": [],
      "name": "LAUNCHPAD_GENERATOR",
      "outputs": [
        {
          "internalType": "address",
          "name": "",
          "type": "address"
        }
      ],
      "stateMutability": "view",
      "type": "function"
    },
    {
      "inputs": [],
      "name": "WBNB",
      "outputs": [
        {
          "internalType": "contract IWBNB",
          "name": "",
          "type": "address"
        }
      ],
      "stateMutability": "view",
      "type": "function"
    },
    {
      "inputs": [
        {
          "internalType": "address",
          "name": "",
          "type": "address"
        }
      ],
      "name": "buyers",
      "outputs": [
        {
          "internalType": "uint256",
          "name": "baseDeposited",
          "type": "uint256"
        },
        {
          "internalType": "uint256",
          "name": "tokensOwed",
          "type": "uint256"
        }
      ],
      "stateMutability": "view",
      "type": "function"
    },
    {
      "inputs": [],
      "name": "launchpadFeeInfo",
      "outputs": [
        {
          "internalType": "uint256",
          "name": "pancakeTokenFee",
          "type": "uint256"
        },
        {
          "internalType": "uint256",
          "name": "referralFee",
          "type": "uint256"
        },
        {
          "internalType": "address payable",
          "name": "baseFeeAddress",
          "type": "address"
        },
        {
          "internalType": "address payable",
          "name": "tokenFeeAddress",
          "type": "address"
        },
        {
          "internalType": "address payable",
          "name": "referralFeeAddress",
          "type": "address"
        }
      ],
      "stateMutability": "view",
      "type": "function"
    },
    {
      "inputs": [],
      "name": "launchpadInfo",
      "outputs": [
        {
          "internalType": "address payable",
          "name": "launchpadOwner",
          "type": "address"
        },
        {
          "internalType": "contract IERC20",
          "name": "sToken",
          "type": "address"
        },
        {
          "internalType": "contract IERC20Meta",
          "name": "bToken",
          "type": "address"
        },
        {
          "internalType": "uint256",
          "name": "amount",
          "type": "uint256"
        },
        {
          "internalType": "uint256",
          "name": "tokenPrice",
          "type": "uint256"
        },
        {
          "internalType": "uint256",
          "name": "maxSpendPerBuyer",
          "type": "uint256"
        },
        {
          "internalType": "uint256",
          "name": "softCap",
          "type": "uint256"
        },
        {
          "internalType": "uint256",
          "name": "hardcap",
          "type": "uint256"
        },
        {
          "internalType": "uint256",
          "name": "liquidityPercentage",
          "type": "uint256"
        },
        {
          "internalType": "uint256",
          "name": "listingRate",
          "type": "uint256"
        },
        {
          "components": [
            {
              "internalType": "uint256",
              "name": "lockPeriod",
              "type": "uint256"
            },
            {
              "internalType": "uint256",
              "name": "startTime",
              "type": "uint256"
            },
            {
              "internalType": "uint256",
              "name": "endTime",
              "type": "uint256"
            }
          ],
          "internalType": "struct Launchpad.LaunchpadTimePeriod",
          "name": "_launchpadTimePeriod",
          "type": "tuple"
        },
        {
          "internalType": "bool",
          "name": "isBNB",
          "type": "bool"
        }
      ],
      "stateMutability": "view",
      "type": "function"
    },
    {
      "inputs": [],
      "name": "launchpadLockForwarder",
      "outputs": [
        {
          "internalType": "contract ILaunchpadLockForwarder",
          "name": "",
          "type": "address"
        }
      ],
      "stateMutability": "view",
      "type": "function"
    },
    {
      "inputs": [],
      "name": "launchpadSettings",
      "outputs": [
        {
          "internalType": "contract ILaunchpadSettings",
          "name": "",
          "type": "address"
        }
      ],
      "stateMutability": "view",
      "type": "function"
    },
    {
      "inputs": [],
      "name": "launchpadStatus",
      "outputs": [
        {
          "internalType": "bool",
          "name": "forceFailed",
          "type": "bool"
        },
        {
          "internalType": "bool",
          "name": "lpGenerationComplete",
          "type": "bool"
        },
        {
          "internalType": "bool",
          "name": "whitelistOnly",
          "type": "bool"
        },
        {
          "internalType": "uint256",
          "name": "lpGenerationTimestamp",
          "type": "uint256"
        },
        {
          "internalType": "uint256",
          "name": "totalBaseCollected",
          "type": "uint256"
        },
        {
          "internalType": "uint256",
          "name": "totalBaseWithdrawn",
          "type": "uint256"
        },
        {
          "internalType": "uint256",
          "name": "totalTokensSold",
          "type": "uint256"
        },
        {
          "internalType": "uint256",
          "name": "totalTokensWithdrawn",
          "type": "uint256"
        },
        {
          "internalType": "uint256",
          "name": "numBuyers",
          "type": "uint256"
        },
        {
          "internalType": "uint256",
          "name": "round1Length",
          "type": "uint256"
        }
      ],
      "stateMutability": "view",
      "type": "function"
    },
    {
      "inputs": [
        {
          "internalType": "address",
          "name": "",
          "type": "address"
        }
      ],
      "name": "rewardTokens",
      "outputs": [
        {
          "internalType": "uint256",
          "name": "",
          "type": "uint256"
        }
      ],
      "stateMutability": "view",
      "type": "function"
    },
    {
      "inputs": [
        {
          "internalType": "address payable",
          "name": "_launchpadOwner",
          "type": "address"
        },
        {
          "internalType": "uint256",
          "name": "_amount",
          "type": "uint256"
        },
        {
          "internalType": "uint256",
          "name": "_tokenPrice",
          "type": "uint256"
        },
        {
          "internalType": "uint256",
          "name": "_maxSpendPerBuyer",
          "type": "uint256"
        },
        {
          "internalType": "uint256",
          "name": "_hardcap",
          "type": "uint256"
        },
        {
          "internalType": "uint256",
          "name": "_softcap",
          "type": "uint256"
        },
        {
          "internalType": "uint256",
          "name": "_liquidityPercent",
          "type": "uint256"
        },
        {
          "internalType": "uint256",
          "name": "_listingRate",
          "type": "uint256"
        },
        {
          "internalType": "uint256",
          "name": "_startTime",
          "type": "uint256"
        },
        {
          "internalType": "uint256",
          "name": "_endTime",
          "type": "uint256"
        },
        {
          "internalType": "uint256",
          "name": "_lockPeriod",
          "type": "uint256"
        }
      ],
      "name": "init1",
      "outputs": [],
      "stateMutability": "nonpayable",
      "type": "function"
    },
    {
      "inputs": [
        {
          "internalType": "contract IERC20Meta",
          "name": "_baseToken",
          "type": "address"
        },
        {
          "internalType": "contract IERC20",
          "name": "_launchpadToken",
          "type": "address"
        },
        {
          "internalType": "uint256",
          "name": "_pancakeTokenFee",
          "type": "uint256"
        },
        {
          "internalType": "uint256",
          "name": "_referralFee",
          "type": "uint256"
        },
        {
          "internalType": "address payable",
          "name": "_baseFeeAddress",
          "type": "address"
        },
        {
          "internalType": "address payable",
          "name": "_tokenFeeAddress",
          "type": "address"
        },
        {
          "internalType": "address payable",
          "name": "_referralAddress",
          "type": "address"
        }
      ],
      "name": "init2",
      "outputs": [],
      "stateMutability": "nonpayable",
      "type": "function"
    },
    {
      "inputs": [],
      "name": "addLiquidity",
      "outputs": [],
      "stateMutability": "nonpayable",
      "type": "function"
    },
    {
      "inputs": [],
      "name": "forceFailIfPairExists",
      "outputs": [],
      "stateMutability": "nonpayable",
      "type": "function"
    },
    {
      "inputs": [
        {
          "internalType": "uint256",
          "name": "_amount",
          "type": "uint256"
        },
        {
          "internalType": "address[3]",
          "name": "reffers",
          "type": "address[3]"
        }
      ],
      "name": "userDeposit",
      "outputs": [],
      "stateMutability": "payable",
      "type": "function"
    },
    {
      "inputs": [],
      "name": "userWithdrawBaseTokens",
      "outputs": [],
      "stateMutability": "nonpayable",
      "type": "function"
    },
    {
      "inputs": [],
      "name": "userWithdrawTokens",
      "outputs": [],
      "stateMutability": "nonpayable",
      "type": "function"
    },
    {
      "inputs": [],
      "name": "withdrawRewardTokens",
      "outputs": [],
      "stateMutability": "nonpayable",
      "type": "function"
    },
    {
      "inputs": [
        {
          "internalType": "address[]",
          "name": "_users",
          "type": "address[]"
        },
        {
          "internalType": "bool",
          "name": "_add",
          "type": "bool"
        }
      ],
      "name": "editWhitelist",
      "outputs": [],
      "stateMutability": "nonpayable",
      "type": "function"
    },
    {
      "inputs": [],
      "name": "ownerWithdrawTokens",
      "outputs": [],
      "stateMutability": "nonpayable",
      "type": "function"
    },
    {
      "inputs": [
        {
          "internalType": "bool",
          "name": "_flag",
          "type": "bool"
        }
      ],
      "name": "setWhitelistFlag",
      "outputs": [],
      "stateMutability": "nonpayable",
      "type": "function"
    },
    {
      "inputs": [
        {
          "internalType": "uint256",
          "name": "_startTime",
          "type": "uint256"
        },
        {
          "internalType": "uint256",
          "name": "_endTime",
          "type": "uint256"
        }
      ],
      "name": "updateDuration",
      "outputs": [],
      "stateMutability": "nonpayable",
      "type": "function"
    },
    {
      "inputs": [
        {
          "internalType": "uint256",
          "name": "_maxSpend",
          "type": "uint256"
        }
      ],
      "name": "updateMaxSpendLimit",
      "outputs": [],
      "stateMutability": "nonpayable",
      "type": "function"
    },
    {
      "inputs": [],
      "name": "forceFailByPancake",
      "outputs": [],
      "stateMutability": "nonpayable",
      "type": "function"
    },
    {
      "inputs": [],
      "name": "getLaunchpadStatus",
      "outputs": [
        {
          "internalType": "uint256",
          "name": "",
          "type": "uint256"
        }
      ],
      "stateMutability": "view",
      "type": "function"
    },
    {
      "inputs": [
        {
          "internalType": "address",
          "name": "_user",
          "type": "address"
        }
      ],
      "name": "getUserWhitelistStatus",
      "outputs": [
        {
          "internalType": "bool",
          "name": "",
          "type": "bool"
        }
      ],
      "stateMutability": "view",
      "type": "function"
    },
    {
      "inputs": [
        {
          "internalType": "uint256",
          "name": "_index",
          "type": "uint256"
        }
      ],
      "name": "getWhitelistedUserAtIndex",
      "outputs": [
        {
          "internalType": "address",
          "name": "",
          "type": "address"
        }
      ],
      "stateMutability": "view",
      "type": "function"
    },
    {
      "inputs": [],
      "name": "getWhitelistedUsersLength",
      "outputs": [
        {
          "internalType": "uint256",
          "name": "",
          "type": "uint256"
        }
      ],
      "stateMutability": "view",
      "type": "function"
    }
  ],
  "bytecode": "0x6101206040523480156200001257600080fd5b5060405162002b9338038062002b938339810160408190526200003591620000fa565b60016000556001600160a01b038516158015906200005b57506001600160a01b03841615155b80156200007057506001600160a01b03831615155b80156200008557506001600160a01b03821615155b80156200009a57506001600160a01b03811615155b620000c25760405162461bcd60e51b8152600401620000b99062000179565b60405180910390fd5b6001600160601b0319606095861b811660e05293851b841660c05291841b831660a052831b821660805290911b1661010052620001b8565b600080600080600060a0868803121562000112578081fd5b85516200011f816200019f565b602087015190955062000132816200019f565b604087015190945062000145816200019f565b606087015190935062000158816200019f565b60808701519092506200016b816200019f565b809150509295509295909350565b6020808252600c908201526b5a45524f204144445245535360a01b604082015260600190565b6001600160a01b0381168114620001b557600080fd5b50565b60805160601c60a05160601c60c05160601c60e05160601c6101005160601c61295062000243600039806108945250806107185280610f5a528061118052508061076a5280610d59528061133352508061058952806107fc52806109275280610a59525080610e4a528061123652806113b852806114395280611471528061180052506129506000f3fe6080604052600436106101b75760003560e01c8063927ac44d116100ec578063bff75f531161008a578063e8078d9411610064578063e8078d9414610494578063e86e6340146104a9578063f5ab16cc146104be578063fe8121de146104de576101b7565b8063bff75f531461043f578063c39e7dbb1461046a578063d1ab011e1461047f576101b7565b8063a94e7e80116100c6578063a94e7e80146103c8578063b93ac792146103dd578063b9863a44146103fd578063bba886311461042a576101b7565b8063927ac44d1461036557806397a993aa14610385578063a19ab116146103b3576101b7565b80634bb18e3f1161015957806376936e531161013357806376936e53146102f7578063899548861461030a5780638c301df8146103305780638dd9500214610350576101b7565b80634bb18e3f146102935780636933eb15146102a8578063706b63c6146102ca576101b7565b806338b903331161019557806338b903331461021357806339848cd11461023e5780633d2961221461025e5780634200e4fc14610273576101b7565b806324ef1bc7146101bc5780632ad1f1db146101de578063370243dc146101fe575b600080fd5b3480156101c857600080fd5b506101dc6101d7366004612203565b6104f3565b005b3480156101ea57600080fd5b506101dc6101f9366004612264565b61052b565b34801561020a57600080fd5b506101dc61064b565b34801561021f57600080fd5b50610228610708565b6040516102359190612888565b60405180910390f35b34801561024a57600080fd5b506101dc610259366004612180565b61070d565b34801561026a57600080fd5b506101dc610889565b34801561027f57600080fd5b506101dc61028e366004612148565b6108cd565b34801561029f57600080fd5b50610228610913565b3480156102b457600080fd5b506102bd610925565b60405161023591906122c4565b3480156102d657600080fd5b506102df610949565b6040516102359c9b9a999897969594939291906122d8565b6101dc610305366004612233565b6109a5565b34801561031657600080fd5b5061031f610d21565b60405161023595949392919061289f565b34801561033c57600080fd5b506102bd61034b366004612203565b610d44565b34801561035c57600080fd5b506102bd610d57565b34801561037157600080fd5b506101dc610380366004612089565b610d7b565b34801561039157600080fd5b506103a56103a0366004611ff3565b610e2f565b604051610235929190612891565b3480156103bf57600080fd5b506102bd610e48565b3480156103d457600080fd5b506101dc610e6c565b3480156103e957600080fd5b506101dc6103f836600461200f565b610f4f565b34801561040957600080fd5b5061041d610418366004611ff3565b610fe4565b60405161023591906123be565b34801561043657600080fd5b50610228610ff1565b34801561044b57600080fd5b50610454611084565b6040516102359a999897969594939291906123c9565b34801561047657600080fd5b506101dc6110c2565b34801561048b57600080fd5b506102bd61117e565b3480156104a057600080fd5b506101dc6111a2565b3480156104b557600080fd5b506101dc6117ac565b3480156104ca57600080fd5b506102286104d9366004611ff3565b61189e565b3480156104ea57600080fd5b506101dc6118b0565b6001546001600160a01b031633146105265760405162461bcd60e51b815260040161051d906127bb565b60405180910390fd5b600655565b6001546001600160a01b031633146105555760405162461bcd60e51b815260040161051d906127bb565b61055d610ff1565b15801561056b5750600c5442105b6105875760405162461bcd60e51b815260040161051d9061278d565b7f00000000000000000000000000000000000000000000000000000000000000006001600160a01b031663cef6fc0b6040518163ffffffff1660e01b815260040160206040518083038186803b1580156105e057600080fd5b505afa1580156105f4573d6000803e3d6000fd5b505050506040513d601f19601f82011682018060405250810190610618919061221b565b6106228284611962565b11156106405760405162461bcd60e51b815260040161051d90612502565b600c91909155600d55565b6002600054141561066e5760405162461bcd60e51b815260040161051d9061282c565b6002600055601454610100900460ff1661069a5760405162461bcd60e51b815260040161051d906126ef565b336000908152601d6020526040902054806106c75760405162461bcd60e51b815260040161051d90612589565b6019546106d4908261198a565b601955336000818152601d6020526040812055600254610700916001600160a01b0390911690836119b6565b506001600055565b600181565b336001600160a01b037f000000000000000000000000000000000000000000000000000000000000000016146107555760405162461bcd60e51b815260040161051d906126a8565b600e805460ff19166001600160a01b038981167f00000000000000000000000000000000000000000000000000000000000000008216811492909217909255600280548984166001600160a01b031991821617909155600380548216909217909155600f8790556010869055601180548684169083161790556012805485841690831617905560138054848416921691909117905560408051635564890b60e11b815290517f00000000000000000000000000000000000000000000000000000000000000009092169163aac9121691600481810192602092909190829003018186803b15801561084557600080fd5b505afa158015610859573d6000803e3d6000fd5b505050506040513d601f19601f8201168201806040525081019061087d919061221b565b601b5550505050505050565b336001600160a01b037f000000000000000000000000000000000000000000000000000000000000000016146108be57600080fd5b6014805460ff19166001179055565b6001546001600160a01b031633146108f75760405162461bcd60e51b815260040161051d906127bb565b60148054911515620100000262ff000019909216919091179055565b600061091f601e611aa4565b90505b90565b7f000000000000000000000000000000000000000000000000000000000000000081565b600154600254600354600454600554600654600754600854600954600a5460408051606081018252600b548152600c546020820152600d5491810191909152600e546001600160a01b039b8c169b9a8b169a9099169860ff168c565b600260005414156109c85760405162461bcd60e51b815260040161051d9061282c565b60026000556109d5610ff1565b6001146109f45760405162461bcd60e51b815260040161051d9061265b565b60145462010000900460ff1615610a2c57610a10601e33611aaf565b610a2c5760405162461bcd60e51b815260040161051d9061267f565b601b54600c54610a3b9161198a565b421015610afa57604051634a6da48160e01b81526001600160a01b037f00000000000000000000000000000000000000000000000000000000000000001690634a6da48190610a8e9033906004016122c4565b60206040518083038186803b158015610aa657600080fd5b505afa158015610aba573d6000803e3d6000fd5b505050506040513d601f19601f82011682018060405250810190610ade9190612164565b610afa5760405162461bcd60e51b815260040161051d90612448565b336000908152601c60205260408120600e5490919060ff16610b1c5783610b1e565b345b8254600654919250600091610b3291611962565b601654600854919250600091610b4791611962565b9050808211610b565781610b58565b805b915081831115610b66578192505b600554600090610b8890610b8286670de0b6b3a7640000611ac4565b90611afe565b905060008111610baa5760405162461bcd60e51b815260040161051d90612863565b8454610bba57601a805460010190555b8454610bc6908561198a565b85556001850154610bd7908261198a565b60018601556000805b6003811015610c7257610bfa612710610b82856064611ac4565b91506000888260038110610c0a57fe5b602002016020810190610c1d9190611ff3565b6001600160a01b031614610c6a5781601d60008a8460038110610c3c57fe5b602002016020810190610c4f9190611ff3565b6001600160a01b031681526020810191909152604001600020555b600101610be0565b50610c7e816003611ac4565b9050601654610c8d908661198a565b601655601854610c9f9083830161198a565b601855600e5460ff168015610cb357503485105b15610cf057336108fc610cc63488611962565b6040518115909202916000818181858888f19350505050158015610cee573d6000803e3d6000fd5b505b600e5460ff16610d1257600354610d12906001600160a01b0316333088611b30565b50506001600055505050505050565b600f546010546011546012546013546001600160a01b0392831692918216911685565b6000610d51601e83611c21565b92915050565b7f000000000000000000000000000000000000000000000000000000000000000081565b6001546001600160a01b03163314610da55760405162461bcd60e51b815260040161051d906127bb565b8015610ded5760005b8251811015610de757610dde838281518110610dc657fe5b6020026020010151601e611c2d90919063ffffffff16565b50600101610dae565b50610e2b565b60005b8251811015610e2957610e20838281518110610e0857fe5b6020026020010151601e611c4290919063ffffffff16565b50600101610df0565b505b5050565b601c602052600090815260409020805460019091015482565b7f000000000000000000000000000000000000000000000000000000000000000081565b6001546001600160a01b03163314610e965760405162461bcd60e51b815260040161051d906127bb565b610e9e610ff1565b600314610ebd5760405162461bcd60e51b815260040161051d906126cb565b6002546001546040516370a0823160e01b8152610f4d926001600160a01b0390811692169082906370a0823190610ef89030906004016122c4565b60206040518083038186803b158015610f1057600080fd5b505afa158015610f24573d6000803e3d6000fd5b505050506040513d601f19601f82011682018060405250810190610f48919061221b565b6119b6565b565b336001600160a01b037f00000000000000000000000000000000000000000000000000000000000000001614610f975760405162461bcd60e51b815260040161051d906126a8565b600180546001600160a01b0319166001600160a01b039c909c169b909b17909a55600498909855600596909655600694909455600892909255600755600955600a55600c55600d55600b55565b6000610d51601e83611aaf565b60145460009060ff161561100757506003610922565b600d544211801561101b5750600754601654105b1561102857506003610922565b6008546016541061103b57506002610922565b600d5442118015611050575060075460165410155b1561105d57506002610922565b600c5442108015906110715750600d544211155b1561107e57506001610922565b50600090565b601454601554601654601754601854601954601a54601b5460ff8089169861010081048216986201000090910490911696909590949093909290918a565b600260005414156110e55760405162461bcd60e51b815260040161051d9061282c565b60026000556110f2610ff1565b6003146111115760405162461bcd60e51b815260040161051d906126cb565b336000908152601c6020526040902080548061113f5760405162461bcd60e51b815260040161051d90612589565b815460175461114d9161198a565b60175560008255600354600e54611175916001600160a01b0316903390849060ff1615611c57565b50506001600055565b7f000000000000000000000000000000000000000000000000000000000000000081565b600260005414156111c55760405162461bcd60e51b815260040161051d9061282c565b6002600055601454610100900460ff16156111f25760405162461bcd60e51b815260040161051d90612760565b6111fa610ff1565b6002146112195760405162461bcd60e51b815260040161051d9061252d565b60025460035460405163b2b6d1a560e01b81526001600160a01b037f000000000000000000000000000000000000000000000000000000000000000081169363b2b6d1a59361127093918316921690600401612380565b60206040518083038186803b15801561128857600080fd5b505afa15801561129c573d6000803e3d6000fd5b505050506040513d601f19601f820116820180604052508101906112c09190612164565b156112d7576014805460ff191660011790556117a5565b600f546016546000916112f2916103e891610b829190611ac4565b905060006113236103e8610b8260016008015461131d8660146002015461196290919063ffffffff16565b90611ac4565b600e5490915060ff16156113a6577f00000000000000000000000000000000000000000000000000000000000000006001600160a01b031663d0e30db0826040518263ffffffff1660e01b81526004016000604051808303818588803b15801561138c57600080fd5b505af11580156113a0573d6000803e3d6000fd5b50505050505b6003546113dd906001600160a01b03167f000000000000000000000000000000000000000000000000000000000000000083611d85565b600f546018546000916113f8916103e891610b829190611ac4565b600954600a5460185492935060009261142492620186a092610b829261131d9160640390829089611962565b60025490915061145e906001600160a01b03167f000000000000000000000000000000000000000000000000000000000000000083611d85565b600354600254600b546001600160a01b037f0000000000000000000000000000000000000000000000000000000000000000811693632277d0e39390821692911690879086906114af90429061198a565b6001546040516001600160e01b031960e089901b1681526114e19695949392916001600160a01b031690600401612410565b600060405180830381600087803b1580156114fb57600080fd5b505af115801561150f573d6000803e3d6000fd5b50506013546001600160a01b03161591506115cc90505760006115466103e8610b82600f6001015488611ac490919063ffffffff16565b600354601354600e54929350611571926001600160a01b039283169290911690849060ff1615611c57565b61157b8582611962565b9450600061159d6103e8610b82600f6001015487611ac490919063ffffffff16565b6002546013549192506115bd916001600160a01b039182169116836119b6565b6115c78482611962565b935050505b600354601154600e546115f2926001600160a01b03908116921690879060ff1615611c57565b60025460125461160f916001600160a01b039081169116846119b6565b6002546040516370a0823160e01b81526000916001600160a01b0316906370a08231906116409030906004016122c4565b60206040518083038186803b15801561165857600080fd5b505afa15801561166c573d6000803e3d6000fd5b505050506040513d601f19601f82011682018060405250810190611690919061221b565b6018549091508111156116cc576018546000906116ae908390611962565b6002549091506116ca906001600160a01b031661dead836119b6565b505b600e5460009060ff1661175e576003546040516370a0823160e01b81526001600160a01b03909116906370a08231906117099030906004016122c4565b60206040518083038186803b15801561172157600080fd5b505afa158015611735573d6000803e3d6000fd5b505050506040513d601f19601f82011682018060405250810190611759919061221b565b611760565b475b600354600154600e5492935061178b926001600160a01b039283169290911690849060ff1615611c57565b50506014805461ff00191661010017905550504260155550505b6001600055565b601454610100900460ff161580156117c7575060145460ff16155b6117e35760405162461bcd60e51b815260040161051d9061278d565b60025460035460405163b2b6d1a560e01b81526001600160a01b037f000000000000000000000000000000000000000000000000000000000000000081169363b2b6d1a59361183a93918316921690600401612380565b60206040518083038186803b15801561185257600080fd5b505afa158015611866573d6000803e3d6000fd5b505050506040513d601f19601f8201168201806040525081019061188a9190612164565b15610f4d576014805460ff19166001179055565b601d6020526000908152604090205481565b600260005414156118d35760405162461bcd60e51b815260040161051d9061282c565b6002600055601454610100900460ff166118ff5760405162461bcd60e51b815260040161051d906126ef565b336000908152601c602052604090206001810154806119305760405162461bcd60e51b815260040161051d90612589565b60018201546019546119419161198a565b60195560006001830155600254611175906001600160a01b031633836119b6565b6000828211156119845760405162461bcd60e51b815260040161051d906125ed565b50900390565b6000828201838110156119af5760405162461bcd60e51b815260040161051d90612552565b9392505050565b60006060846001600160a01b031663a9059cbb85856040516024016119dc929190612367565b6040516020818303038152906040529060e01b6020820180516001600160e01b038381831617835250505050604051611a15919061228b565b6000604051808303816000865af19150503d8060008114611a52576040519150601f19603f3d011682016040523d82523d6000602084013e611a57565b606091505b5091509150818015611a81575080511580611a81575080806020019051810190611a819190612164565b611a9d5760405162461bcd60e51b815260040161051d906124cb565b5050505050565b6000610d5182611e6c565b60006119af836001600160a01b038416611e70565b600082611ad357506000610d51565b82820282848281611ae057fe5b04146119af5760405162461bcd60e51b815260040161051d9061271f565b6000808211611b1f5760405162461bcd60e51b815260040161051d90612624565b818381611b2857fe5b049392505050565b60006060856001600160a01b03166323b872dd868686604051602401611b589392919061239a565b6040516020818303038152906040529060e01b6020820180516001600160e01b038381831617835250505050604051611b91919061228b565b6000604051808303816000865af19150503d8060008114611bce576040519150601f19603f3d011682016040523d82523d6000602084013e611bd3565b606091505b5091509150818015611bfd575080511580611bfd575080806020019051810190611bfd9190612164565b611c195760405162461bcd60e51b815260040161051d906127e8565b505050505050565b60006119af8383611e88565b60006119af836001600160a01b038416611ecd565b60006119af836001600160a01b038416611f17565b80611c98576040516001600160a01b0384169083156108fc029084906000818181858888f19350505050158015611c92573d6000803e3d6000fd5b50611d7f565b60006060856001600160a01b031663a9059cbb8686604051602401611cbe929190612367565b6040516020818303038152906040529060e01b6020820180516001600160e01b038381831617835250505050604051611cf7919061228b565b6000604051808303816000865af19150503d8060008114611d34576040519150601f19603f3d011682016040523d82523d6000602084013e611d39565b606091505b5091509150818015611d63575080511580611d63575080806020019051810190611d639190612164565b611c195760405162461bcd60e51b815260040161051d906124cb565b50505050565b60006060846001600160a01b031663095ea7b38585604051602401611dab929190612367565b6040516020818303038152906040529060e01b6020820180516001600160e01b038381831617835250505050604051611de4919061228b565b6000604051808303816000865af19150503d8060008114611e21576040519150601f19603f3d011682016040523d82523d6000602084013e611e26565b606091505b5091509150818015611e50575080511580611e50575080806020019051810190611e509190612164565b611a9d5760405162461bcd60e51b815260040161051d906125b6565b5490565b60009081526001919091016020526040902054151590565b81546000908210611eab5760405162461bcd60e51b815260040161051d90612489565b826000018281548110611eba57fe5b9060005260206000200154905092915050565b6000611ed98383611e70565b611f0f57508154600181810184556000848152602080822090930184905584548482528286019093526040902091909155610d51565b506000610d51565b60008181526001830160205260408120548015611fd35783546000198083019190810190600090879083908110611f4a57fe5b9060005260206000200154905080876000018481548110611f6757fe5b600091825260208083209091019290925582815260018981019092526040902090840190558654879080611f9757fe5b60019003818190600052602060002001600090559055866001016000878152602001908152602001600020600090556001945050505050610d51565b6000915050610d51565b8035610d51816128f4565b8035610d518161290c565b600060208284031215612004578081fd5b81356119af816128f4565b60008060008060008060008060008060006101608c8e031215612030578687fd5b8b3561203b816128f4565b9d60208d01359d5060408d01359c60608101359c5060808101359b5060a08101359a5060c0810135995060e08101359850610100810135975061012081013596506101400135945092505050565b6000806040838503121561209b578182fd5b823567ffffffffffffffff808211156120b2578384fd5b818501915085601f8301126120c5578384fd5b8135818111156120d3578485fd5b602091508181026120e58382016128cd565b8281528381019085850183870186018b10156120ff578889fd5b8896505b84871015612129576121158b82611fdd565b835260019690960195918501918501612103565b508097505050505061213d86828701611fe8565b925050509250929050565b600060208284031215612159578081fd5b81356119af8161290c565b600060208284031215612175578081fd5b81516119af8161290c565b600080600080600080600060e0888a03121561219a578283fd5b87356121a5816128f4565b965060208801356121b5816128f4565b9550604088013594506060880135935060808801356121d3816128f4565b925060a08801356121e3816128f4565b915060c08801356121f3816128f4565b8091505092959891949750929550565b600060208284031215612214578081fd5b5035919050565b60006020828403121561222c578081fd5b5051919050565b60008060808385031215612245578182fd5b8235915083608084011115612258578081fd5b50926020919091019150565b60008060408385031215612276578182fd5b50508035926020909101359150565b15159052565b60008251815b818110156122ab5760208186018101518583015201612291565b818111156122b95782828501525b509190910192915050565b6001600160a01b0391909116815260200190565b60006101c08201905060018060a01b03808f168352808e166020840152808d166040840152508a60608301528960808301528860a08301528760c08301528660e083015285610100830152846101208301528351610140830152602084015161016083015260408401516101808301526123566101a0830184612285565b9d9c50505050505050505050505050565b6001600160a01b03929092168252602082015260400190565b6001600160a01b0392831681529116602082015260400190565b6001600160a01b039384168152919092166020820152604081019190915260600190565b901515815260200190565b9915158a5297151560208a015295151560408901526060880194909452608087019290925260a086015260c085015260e08401526101008301526101208201526101400190565b6001600160a01b039687168152948616602086015260408501939093526060840191909152608083015290911660a082015260c00190565b60208082526021908201527f494e535546464943454e5420524f554e44203120544f4b454e2042414c414e436040820152604560f81b606082015260800190565b60208082526022908201527f456e756d657261626c655365743a20696e646578206f7574206f6620626f756e604082015261647360f01b606082015260800190565b6020808252601f908201527f5472616e7366657248656c7065723a205452414e534645525f4641494c454400604082015260600190565b6020808252601190820152704455524154494f4e20544f4f204c4f4e4760781b604082015260600190565b6020808252600b908201526a4e4f54205355434345535360a81b604082015260600190565b6020808252601b908201527f536166654d6174683a206164646974696f6e206f766572666c6f770000000000604082015260600190565b6020808252601390820152724e4f5448494e4720544f20574954484452415760681b604082015260600190565b6020808252601e908201527f5472616e7366657248656c7065723a20415050524f56455f4641494c45440000604082015260600190565b6020808252601e908201527f536166654d6174683a207375627472616374696f6e206f766572666c6f770000604082015260600190565b6020808252601a908201527f536166654d6174683a206469766973696f6e206279207a65726f000000000000604082015260600190565b6020808252600a90820152694e4f542041435449564560b01b604082015260600190565b6020808252600f908201526e1393d50815d2125511531254d51151608a1b604082015260600190565b6020808252600990820152682327a92124a22222a760b91b604082015260600190565b6020808252600a90820152691393d50811905253115160b21b604082015260600190565b60208082526016908201527520aba0a4aa24a7239026281023a2a722a920aa24a7a760511b604082015260600190565b60208082526021908201527f536166654d6174683a206d756c7469706c69636174696f6e206f766572666c6f6040820152607760f81b606082015260800190565b60208082526013908201527247454e45524154494f4e20434f4d504c45544560681b604082015260600190565b6020808252601490820152734c41554e4348504144204e4f542041435449564560601b604082015260600190565b6020808252601390820152722727aa102620aaa721a42820a21027aba722a960691b604082015260600190565b60208082526024908201527f5472616e7366657248656c7065723a205452414e534645525f46524f4d5f46416040820152631253115160e21b606082015260800190565b6020808252601f908201527f5265656e7472616e637947756172643a207265656e7472616e742063616c6c00604082015260600190565b6020808252600b908201526a5a45524f20544f4b454e5360a81b604082015260600190565b90815260200190565b918252602082015260400190565b94855260208501939093526001600160a01b0391821660408501528116606084015216608082015260a00190565b60405181810167ffffffffffffffff811182821017156128ec57600080fd5b604052919050565b6001600160a01b038116811461290957600080fd5b50565b801515811461290957600080fdfea26469706673582212201776cf2c7632b2682ba0484ad49336e64076dc50158a262adbf75a26daa764b364736f6c634300060c0033",
  "immutableReferences": {
    "1197": [
      {
        "length": 32,
        "start": 3658
      },
      {
        "length": 32,
        "start": 4662
      },
      {
        "length": 32,
        "start": 5048
      },
      {
        "length": 32,
        "start": 5177
      },
      {
        "length": 32,
        "start": 5233
      },
      {
        "length": 32,
        "start": 6144
      }
    ],
    "1199": [
      {
        "length": 32,
        "start": 1417
      },
      {
        "length": 32,
        "start": 2044
      },
      {
        "length": 32,
        "start": 2343
      },
      {
        "length": 32,
        "start": 2649
      }
    ],
    "1201": [
      {
        "length": 32,
        "start": 1898
      },
      {
        "length": 32,
        "start": 3417
      },
      {
        "length": 32,
        "start": 4915
      }
    ],
    "1203": [
      {
        "length": 32,
        "start": 1816
      },
      {
        "length": 32,
        "start": 3930
      },
      {
        "length": 32,
        "start": 4480
      }
    ],
    "1205": [
      {
        "length": 32,
        "start": 2196
      }
    ]
  },
  "source": "// SPDX-License-Identifier: MIT\n\n/**\n * @title Launchpad of Pancake launchpad enviroment\n * @dev This contract represents a launchpad. A launchpad can be created and initilized by a\n * launchpad generator. Users can deposit base token if the launchpad is active and get an\n * amount of sale token in raltion to the token price. The sale tokens can be withdrawn if the\n * the launchpad is successful. Otherwise the users and the launchpad owner get back their\n * vested tokens. On launchpad success a pancakeswap liquidity pair will be created and the\n * specified amount of liquidity will be locked in pancake locker contract.\n */\n\npragma solidity 0.6.12;\npragma experimental ABIEncoderV2;\nimport \"@openzeppelin/contracts/utils/EnumerableSet.sol\";\nimport \"@openzeppelin/contracts/math/SafeMath.sol\";\nimport \"@openzeppelin/contracts/utils/ReentrancyGuard.sol\";\nimport \"@openzeppelin/contracts/token/ERC20/IERC20.sol\";\nimport \"../interfaces/IERC20Meta.sol\";\nimport \"../interfaces/ILaunchpadLockForwarder.sol\";\nimport \"../interfaces/ILaunchpadSettings.sol\";\nimport \"../interfaces/IWBNB.sol\";\nimport \"./TransferHelper.sol\";\n\n\ncontract Launchpad is ReentrancyGuard {\n    using SafeMath for uint256;\n    using EnumerableSet for EnumerableSet.AddressSet;\n\n    uint256 public constant CONTRACT_VERSION = 1;\n\n    /*---------------------------------------------------------------------------------------------\n     * ------------------------------------Structs definitions-------------------------------------\n     */\n\n    // struct holding accounting information about a buyer\n    struct BuyerInfo {\n        uint256 baseDeposited; // amount of deposited base tokens\n        uint256 tokensOwed; // amount of owed sale tokens\n    }\n\n    // struct holding information about the fees during the ilo\n    struct LaunchpadFeeInfo {\n        uint256 pancakeTokenFee; // fee on adding liquidity calculated on sale token (in parts per 1000)\n        uint256 referralFee; // fee on adding liquidity calculated on baseFee and token fee (in parts per 1000)\n        address payable baseFeeAddress; // address receiving base token fee amount\n        address payable tokenFeeAddress; // address receiving sale token fee amount\n        address payable referralFeeAddress; // address receiving referral fee amount in base and sale token\n    }\n\n\n   struct LaunchpadTimePeriod{\n        uint256 lockPeriod; // duration of the token lock in seconds (min 1 year)\n        uint256 startTime; // the timestamp to start the launchpad\n        uint256 endTime; // the timestamp to end the launchpad (max length of settings contract must be met)\n   }\n    // struct holding information about the launchpad\n    struct LaunchpadInfo {\n        address payable launchpadOwner; // the owner address of the launchpad\n        IERC20 sToken; // token to be sold in the launchpad (sale token)\n        IERC20Meta bToken; // token to purchase the sale token (base token)\n        uint256 amount; // min 10 000\n        uint256 tokenPrice; // the amount of sale tokens received for one base token\n        uint256 maxSpendPerBuyer; // the maximum amount to be spent by a specific buyer\n        uint256 softCap; // minimum sold amount reached at end time for successful ilo\n        uint256 hardcap; // amount to be reached for successful ilo\n        uint256 liquidityPercentage; // min 250(=25%) max 1000(=100%)\n        uint256 listingRate; // listing price of sale token on pancakeswap\n        LaunchpadTimePeriod _launchpadTimePeriod ;\n        bool isBNB; // if the base token is native currency\n    }\n\n    // struct with information about the current launchpad status\n    struct LaunchpadStatus {\n        bool forceFailed; // if the ilo failed (is invalid)\n        bool lpGenerationComplete; // if the lp generation was successful\n        bool whitelistOnly; // allow deposits only for whitelisted users\n        uint256 lpGenerationTimestamp; // set to block.timestamp when lpGenerationComplete is set to true\n        uint256 totalBaseCollected; // tracks total collected amount of base tokens\n        uint256 totalBaseWithdrawn; // tracks withdraws base tokens after failed ilo\n        uint256 totalTokensSold; // tracks the total sold sale tokens\n        uint256 totalTokensWithdrawn; // tracks withdraws sale tokens after successful ilo\n        uint256 numBuyers; // total number of sale token buyers\n        uint256 round1Length; // the length of round 1 in seconds\n    }\n\n\n    \n\n    /*---------------------------------------------------------------------------------------------\n     * --------------------------------------Global Variables--------------------------------------\n     */\n    // struct variables holding launchpad information\n    LaunchpadInfo public launchpadInfo;\n    LaunchpadFeeInfo public launchpadFeeInfo;\n    LaunchpadStatus public launchpadStatus;\n\n    // interface variables\n    ILaunchpadLockForwarder public immutable launchpadLockForwarder;\n    ILaunchpadSettings public immutable launchpadSettings;\n    IWBNB public immutable WBNB;\n\n    // addresses used for access control\n    address public immutable LAUNCHPAD_GENERATOR;\n    address immutable KINKO_DEV;\n\n    // variables holding information about users\n    mapping(address => BuyerInfo) public buyers;\n    mapping(address => uint256) public rewardTokens;\n\n\n\n    EnumerableSet.AddressSet private whitelist;\n\n    /*---------------------------------------------------------------------------------------------\n     * ------------------------------------Initilize functions-------------------------------------\n     */\n\n    /**\n     * @dev sets initially contract dependend addresses\n     * @param _launchpadGenerator address of the launchpad generator\n     * @param _wbnb address of the wrapped bnb contract\n     * @param _launchpadSettings address of the settings contract\n     * @param _launchpadLockForwarder address of LanchpadLockForwarder contract\n     * @param _pancakeDev address of the developer account\n     */\n    constructor(\n        address _launchpadGenerator,\n        address _wbnb,\n        address _launchpadSettings,\n        address _launchpadLockForwarder,\n        address _pancakeDev\n    ) public {\n        require(\n            _launchpadGenerator != address(0) &&\n                _wbnb != address(0) &&\n                _launchpadSettings != address(0) &&\n                _launchpadLockForwarder != address(0) &&\n                _pancakeDev != address(0),\n            \"ZERO ADDRESS\"\n        );\n        LAUNCHPAD_GENERATOR = _launchpadGenerator;\n        WBNB = IWBNB(_wbnb);\n        launchpadSettings = ILaunchpadSettings(_launchpadSettings);\n        launchpadLockForwarder = ILaunchpadLockForwarder(\n            _launchpadLockForwarder\n        );\n        KINKO_DEV = _pancakeDev;\n    }\n\n    /**\n     * @notice first initilize function sets launchpad information by the launchpad generator\n     * @dev this function can only be called by the launchpad generator\n     * @param _launchpadOwner the owner address of the launchpad\n     * @param _amount the total amount of sale tokens (min 10 000)\n     * @param _tokenPrice the amount of sale tokens for one base token\n     * @param _maxSpendPerBuyer the total amount of base token a specific buyer can spend\n     * @param _hardcap the maximum amount of tokens to be reached for success\n     * @param _softcap the minumum amount of tokens to be reached until end time for success\n     * @param _liquidityPercent the percent of locked liquidity in parts per 1000 (min 250)\n     * @param _listingRate the listing rate on pancakeswap\n     * @param _startTime the timestamp to start launchpad\n     * @param _endTime the timestamp of the launchpad end\n     * @param _lockPeriod the duration of the locking period in seconds\n     */\n    function init1(\n        address payable _launchpadOwner,\n        uint256 _amount,\n        uint256 _tokenPrice,\n        uint256 _maxSpendPerBuyer,\n        uint256 _hardcap,\n        uint256 _softcap,\n        uint256 _liquidityPercent,\n        uint256 _listingRate,\n        uint256 _startTime,\n        uint256 _endTime,\n        uint256 _lockPeriod\n    ) external {\n        require(msg.sender == LAUNCHPAD_GENERATOR, \"FORBIDDEN\");\n        launchpadInfo.launchpadOwner = _launchpadOwner;\n        launchpadInfo.amount = _amount;\n        launchpadInfo.tokenPrice = _tokenPrice;\n        launchpadInfo.maxSpendPerBuyer = _maxSpendPerBuyer;\n        launchpadInfo.hardcap = _hardcap;\n        launchpadInfo.softCap = _softcap;\n        launchpadInfo.liquidityPercentage = _liquidityPercent;\n        launchpadInfo.listingRate = _listingRate;\n        launchpadInfo._launchpadTimePeriod.startTime = _startTime;\n        launchpadInfo._launchpadTimePeriod.endTime = _endTime;\n        launchpadInfo._launchpadTimePeriod.lockPeriod = _lockPeriod;\n    }\n\n    /**\n     * @notice second initilize function sets launchpad information by the launchpad generator\n     * @dev this function can only be called by the launchpad generator\n     * @param _baseToken the token to purchase the sale token\n     * @param _launchpadToken the token to be sold in the launchpad (sale token)\n     * @param _pancakeTokenFee the fee on the sale token by adding liquidity in parts per 1000\n     * @param _referralFee the fee calculated on base fee an token fee in parts per 1000\n     * @param _baseFeeAddress the receiver of the base token fee amount\n     * @param _tokenFeeAddress the receiver of the sale token fee amount\n     * @param _referralAddress the receiver of the sale and base token referral fee amounts\n     */\n    function init2(\n        IERC20Meta _baseToken,\n        IERC20 _launchpadToken,\n        uint256 _pancakeTokenFee,\n        uint256 _referralFee,\n        address payable _baseFeeAddress,\n        address payable _tokenFeeAddress,\n        address payable _referralAddress\n    ) external {\n        require(msg.sender == LAUNCHPAD_GENERATOR, \"FORBIDDEN\");\n\n        launchpadInfo.isBNB = address(_baseToken) == address(WBNB);\n        launchpadInfo.sToken = _launchpadToken;\n        launchpadInfo.bToken = _baseToken;\n        launchpadFeeInfo.pancakeTokenFee = _pancakeTokenFee;\n        launchpadFeeInfo.referralFee = _referralFee;\n\n        launchpadFeeInfo.baseFeeAddress = _baseFeeAddress;\n        launchpadFeeInfo.tokenFeeAddress = _tokenFeeAddress;\n        launchpadFeeInfo.referralFeeAddress = _referralAddress;\n        launchpadStatus.round1Length = launchpadSettings.getRound1Length();\n    }\n\n    /*---------------------------------------------------------------------------------------------\n     * -----------------------------------External user functions----------------------------------\n     */\n    /**\n     * @notice has to be called after the launchpad was successful to end the launchpad.\n     * @dev it creates a liquidity pair, locks liquidty and enables the withdraw of users sale tokens.\n     */\n    function addLiquidity() external nonReentrant {\n        require(!launchpadStatus.lpGenerationComplete, \"GENERATION COMPLETE\");\n        require(getLaunchpadStatus() == 2, \"NOT SUCCESS\");\n\n        // abort the launch and set launchpad to failed if a pair already exists on pancakeswap\n        if (\n            launchpadLockForwarder.pancakeswapPairIsInitialised(\n                address(launchpadInfo.sToken),\n                address(launchpadInfo.bToken)\n            )\n        ) {\n            launchpadStatus.forceFailed = true;\n            return;\n        }\n\n        // calculate eneryFi fee on base token\n        uint256 pancakeBaseFee = launchpadStatus\n            .totalBaseCollected\n            .mul(launchpadFeeInfo.pancakeTokenFee)\n            .div(1000);\n\n        // calculate liquidity amount of base token\n        uint256 baseLiquidity = launchpadStatus\n            .totalBaseCollected\n            .sub(pancakeBaseFee)\n            .mul(launchpadInfo.liquidityPercentage)\n            .div(1000);\n\n        // wrap BNB if base token is BNB\n        if (launchpadInfo.isBNB) {\n            WBNB.deposit{value: baseLiquidity}();\n        }\n\n        // approve lock forwarder with base token liquidity amount\n        TransferHelper.safeApprove(\n            address(launchpadInfo.bToken),\n            address(launchpadLockForwarder),\n            baseLiquidity\n        );\n\n        // calculate pancake sale token fee amount\n        uint256 pancakeTokenFee = launchpadStatus\n            .totalTokensSold\n            .mul(launchpadFeeInfo.pancakeTokenFee)\n            .div(1000);\n\n        // calculate equivalent sale token liquidity amount\n        uint256 tokenLiquidity = launchpadStatus\n            .totalTokensSold\n            .sub(pancakeTokenFee)\n            .mul(100 - launchpadInfo.listingRate)\n            .mul(launchpadInfo.liquidityPercentage)\n            .div(100000);\n\n        // approve lock forwarder with sale token liquidity amount\n        TransferHelper.safeApprove(\n            address(launchpadInfo.sToken),\n            address(launchpadLockForwarder),\n            tokenLiquidity\n        );\n\n        // create liquidity pool and lock liquidity\n        launchpadLockForwarder.lockLiquidity(\n            launchpadInfo.bToken,\n            launchpadInfo.sToken,\n            baseLiquidity,\n            tokenLiquidity,\n            block.timestamp.add(launchpadInfo._launchpadTimePeriod.lockPeriod),\n            launchpadInfo.launchpadOwner\n        );\n\n        // calculate referral fee on pancake base fee and kinko token fee\n        if (launchpadFeeInfo.referralFeeAddress != address(0)) {\n            // calculate base token referral fee\n            uint256 referralBaseFee = pancakeBaseFee\n                .mul(launchpadFeeInfo.referralFee)\n                .div(1000);\n            // send base token referral fee to referral receiver address\n            TransferHelper.safeTransferBaseToken(\n                address(launchpadInfo.bToken),\n                launchpadFeeInfo.referralFeeAddress,\n                referralBaseFee,\n                !launchpadInfo.isBNB\n            );\n            pancakeBaseFee = pancakeBaseFee.sub(referralBaseFee);\n\n            // calculate sale token referral fee\n            uint256 referralTokenFee = pancakeTokenFee\n                .mul(launchpadFeeInfo.referralFee)\n                .div(1000);\n            // send sale token referral fee to referral receiver address\n            TransferHelper.safeTransfer(\n                address(launchpadInfo.sToken),\n                launchpadFeeInfo.referralFeeAddress,\n                referralTokenFee\n            );\n            pancakeTokenFee = pancakeTokenFee.sub(referralTokenFee);\n        }\n        // transfer pancake base token fee to base token fee receiver\n        TransferHelper.safeTransferBaseToken(\n            address(launchpadInfo.bToken),\n            launchpadFeeInfo.baseFeeAddress,\n            pancakeBaseFee,\n            !launchpadInfo.isBNB\n        );\n        // transfer pancake sale token fee to sale token fee receiver\n        TransferHelper.safeTransfer(\n            address(launchpadInfo.sToken),\n            launchpadFeeInfo.tokenFeeAddress,\n            pancakeTokenFee\n        );\n\n        uint256 remainingSBalance = launchpadInfo.sToken.balanceOf(\n            address(this)\n        );\n\n        // burn unsold amount of sale tokens\n        if (remainingSBalance > launchpadStatus.totalTokensSold) {\n            uint256 burnAmount = remainingSBalance.sub(\n                launchpadStatus.totalTokensSold\n            );\n            TransferHelper.safeTransfer(\n                address(launchpadInfo.sToken),\n                0x000000000000000000000000000000000000dEaD,\n                burnAmount\n            );\n        }\n\n        // send remaining base token balance to launchpad owner\n        uint256 remainingBaseBalance = launchpadInfo.isBNB\n            ? address(this).balance\n            : launchpadInfo.bToken.balanceOf(address(this));\n        TransferHelper.safeTransferBaseToken(\n            address(launchpadInfo.bToken),\n            launchpadInfo.launchpadOwner,\n            remainingBaseBalance,\n            !launchpadInfo.isBNB\n        );\n\n        // end launchpad by setting pair generation to true\n        launchpadStatus.lpGenerationComplete = true;\n        launchpadStatus.lpGenerationTimestamp = block.timestamp;\n    }\n\n    /**\n     * @notice set the status of the launchpad to failed, if a the liquidity pair exists on\n     * pancakeswap before the launchpad is successfully finished\n     * @dev this function can be called by anyone and requires the launchpad to be active\n     */\n    function forceFailIfPairExists() external {\n        require(\n            !launchpadStatus.lpGenerationComplete &&\n                !launchpadStatus.forceFailed,\n            \"LAUNCHPAD NOT ACTIVE\"\n        );\n        if (\n            launchpadLockForwarder.pancakeswapPairIsInitialised(\n                address(launchpadInfo.sToken),\n                address(launchpadInfo.bToken)\n            )\n        ) {\n            launchpadStatus.forceFailed = true;\n        }\n    }\n\n    /**\n     * @notice deposits the given amount of base tokens and calculates the equivalent amount\n     * of sale tokens owed by the caller.\n     * @dev this function uses msg.value and ignores _amount param for BNB as base token.\n     * The correct amount is required for ERC20 base tokens\n     * @param _amount the amount of base token to deposit\n     */\n    function userDeposit(uint256 _amount, address[3] calldata reffers)\n        external\n        payable\n        nonReentrant\n    {\n        require(getLaunchpadStatus() == 1, \"NOT ACTIVE\");\n\n        // check for whitelisted auction\n        if (launchpadStatus.whitelistOnly) {\n            require(whitelist.contains(msg.sender), \"NOT WHITELISTED\");\n        }\n\n        // check if token balance for round 1 deposit is met\n        // round 1 deposits require the user to hold a specific token and balance\n        if (\n            block.timestamp <\n            launchpadInfo._launchpadTimePeriod.startTime.add(launchpadStatus.round1Length)\n        ) {\n            require(\n                launchpadSettings.userHoldsSufficientRound1Token(msg.sender),\n                \"INSUFFICENT ROUND 1 TOKEN BALANCE\"\n            );\n        }\n\n\n        // check if user is allowed to spend the desired token and calculate max amount\n        BuyerInfo storage buyer = buyers[msg.sender];\n        uint256 amount_in = launchpadInfo.isBNB ? msg.value : _amount;\n        uint256 allowance = launchpadInfo.maxSpendPerBuyer.sub(\n            buyer.baseDeposited\n        );\n        uint256 remaining = launchpadInfo.hardcap.sub(\n            launchpadStatus.totalBaseCollected\n        );\n        allowance = allowance > remaining ? remaining : allowance;\n        if (amount_in > allowance) {\n            amount_in = allowance;\n        }\n\n        // calculate amount of sale token for deposit\n        uint256 tokensSold = amount_in.mul(10**18).div(\n            launchpadInfo.tokenPrice\n        );\n        require(tokensSold > 0, \"ZERO TOKENS\");\n\n        // increase total number of buyers\n        if (buyer.baseDeposited == 0) {\n            launchpadStatus.numBuyers++;\n        }\n\n        // update buyer token information\n        buyer.baseDeposited = buyer.baseDeposited.add(amount_in);\n        buyer.tokensOwed = buyer.tokensOwed.add(tokensSold);\n\n        //  calculate and add reward for lauchpad prompts\n        uint256 reward = 0;\n      \n        require(reffers.length<=3,\"reffreal not be more than 3 level\");\n        \n        if (reffers.length != 0) {\n            for (uint256 i = 0; i < reffers.length; i++) {\n                reward = tokensSold.mul(100).div(10000);\n\n                if (reffers[i] != address(0)) {\n                    rewardTokens[reffers[i]] = reward;\n                }\n            }\n            reward = reward.mul(reffers.length);\n        }\n\n        // update launchpad token information\n        launchpadStatus.totalBaseCollected = launchpadStatus\n            .totalBaseCollected\n            .add(amount_in);\n        launchpadStatus.totalTokensSold = launchpadStatus.totalTokensSold.add(\n            tokensSold + reward\n        );\n\n        // transfer unused BNB back to user if base token is BNB\n        if (launchpadInfo.isBNB && amount_in < msg.value) {\n            msg.sender.transfer(msg.value.sub(amount_in));\n        }\n\n        // transfer non BNB base token to launchpad\n        if (!launchpadInfo.isBNB) {\n            TransferHelper.safeTransferFrom(\n                address(launchpadInfo.bToken),\n                msg.sender,\n                address(this),\n                amount_in\n            );\n        }\n    }\n\n    /**\n     * @notice withdraws deposited base tokens of the caller if the launchpad failed\n     */\n    function userWithdrawBaseTokens() external nonReentrant {\n        require(getLaunchpadStatus() == 3, \"NOT FAILED\");\n\n        // calculate user base tokens to be withdrawn\n        BuyerInfo storage buyer = buyers[msg.sender];\n        uint256 baseDeposited = buyer.baseDeposited;\n        require(baseDeposited > 0, \"NOTHING TO WITHDRAW\");\n\n        // update deposited tokens value\n        launchpadStatus.totalBaseWithdrawn = launchpadStatus\n            .totalBaseWithdrawn\n            .add(buyer.baseDeposited);\n        buyer.baseDeposited = 0;\n\n        // tranfer base token back to the depositor\n        TransferHelper.safeTransferBaseToken(\n            address(launchpadInfo.bToken),\n            msg.sender,\n            baseDeposited,\n            !launchpadInfo.isBNB\n        );\n    }\n\n    /**\n     * @notice withdraws users sale token amount if the launchpad was successful and the\n     * liquidity pool creation is completed.\n     */\n    function userWithdrawTokens() external nonReentrant {\n        require(launchpadStatus.lpGenerationComplete, \"AWAITING LP GENERATION\");\n\n        // get sale tokens amount to withdraw\n        BuyerInfo storage buyer = buyers[msg.sender];\n        uint256 tokensOwed = buyer.tokensOwed;\n        require(tokensOwed > 0, \"NOTHING TO WITHDRAW\");\n\n        // update withdrawn sale token amount\n        launchpadStatus.totalTokensWithdrawn = launchpadStatus\n            .totalTokensWithdrawn\n            .add(buyer.tokensOwed);\n        buyer.tokensOwed = 0;\n\n        // transfer sale token to function caller\n        TransferHelper.safeTransfer(\n            address(launchpadInfo.sToken),\n            msg.sender,\n            tokensOwed\n        );\n    }\n\n    function withdrawRewardTokens() external nonReentrant {\n        require(launchpadStatus.lpGenerationComplete, \"AWAITING LP GENERATION\");\n\n        // get sale tokens amount to withdraw\n        uint256 reward = rewardTokens[msg.sender];\n        require(reward > 0, \"NOTHING TO WITHDRAW\");\n\n        // update withdrawn sale token amount\n        launchpadStatus.totalTokensWithdrawn = launchpadStatus\n            .totalTokensWithdrawn\n            .add(reward);\n        rewardTokens[msg.sender] = 0;\n\n        // transfer sale token to function caller\n        TransferHelper.safeTransfer(\n            address(launchpadInfo.sToken),\n            msg.sender,\n            reward\n        );\n    }\n\n    /*---------------------------------------------------------------------------------------------\n     * ------------------------------------Only Owner functions------------------------------------\n     */\n    modifier onlyLaunchpadOwner() {\n        require(\n            launchpadInfo.launchpadOwner == msg.sender,\n            \"NOT LAUNCHPAD OWNER\"\n        );\n        _;\n    }\n\n    /**\n     * @notice update the whitelisted users by owner. Users can be added to or removed from whitelist\n     * @param _users array of user addresses to be added to or removed from whitelist\n     * @param _add indicating if the given user(s) should be added to(=true) or removed from (=false) whitelist\n     */\n    function editWhitelist(address[] memory _users, bool _add)\n        external\n        onlyLaunchpadOwner\n    {\n        if (_add) {\n            for (uint256 i = 0; i < _users.length; i++) {\n                whitelist.add(_users[i]);\n            }\n        } else {\n            for (uint256 i = 0; i < _users.length; i++) {\n                whitelist.remove(_users[i]);\n            }\n        }\n    }\n\n    /**\n     * @notice withdraws all sale tokens by launchpad owner if the launchpad failed\n     * the sale tokens are sent to the launchpad owner address\n     */\n    function ownerWithdrawTokens() external onlyLaunchpadOwner {\n        require(getLaunchpadStatus() == 3, \"NOT FAILED\");\n        TransferHelper.safeTransfer(\n            address(launchpadInfo.sToken),\n            launchpadInfo.launchpadOwner,\n            launchpadInfo.sToken.balanceOf(address(this))\n        );\n    }\n\n    /**\n     * @notice sets if the launchpad is only for whitelisted users by launchpad owner\n     */\n    function setWhitelistFlag(bool _flag) external onlyLaunchpadOwner {\n        launchpadStatus.whitelistOnly = _flag;\n    }\n\n    /**\n     * @notice updates the start and end time of the launchpad by launchpad owner\n     */\n    function updateDuration(uint256 _startTime, uint256 _endTime)\n        external\n        onlyLaunchpadOwner\n    {\n        require(\n            getLaunchpadStatus() == 0 &&\n                launchpadInfo._launchpadTimePeriod.startTime > block.timestamp,\n            \"LAUNCHPAD NOT ACTIVE\"\n        );\n        require(\n            _endTime.sub(_startTime) <=\n                launchpadSettings.getMaxLaunchpadLength(),\n            \"DURATION TOO LONG\"\n        );\n        launchpadInfo._launchpadTimePeriod.startTime = _startTime;\n        launchpadInfo._launchpadTimePeriod.endTime = _endTime;\n    }\n\n    /**\n     * @notice updates the limit a single user can spend on the launchpad\n     */\n    function updateMaxSpendLimit(uint256 _maxSpend)\n        external\n        onlyLaunchpadOwner\n    {\n        launchpadInfo.maxSpendPerBuyer = _maxSpend;\n    }\n\n    /*---------------------------------------------------------------------------------------------\n     * ---------------------------------Only Pancake Dev functions--------------------------------\n     */\n    /**\n     * @notice enegyFi developers can force a fail in case of an unintended behaviour\n     * @dev security function to ensure the launchpad can be cancelled at any time to unlock funds\n     */\n    function forceFailByPancake() external {\n        require(msg.sender == KINKO_DEV);\n        launchpadStatus.forceFailed = true;\n    }\n\n    /*---------------------------------------------------------------------------------------------\n     * --------------------------------------Getter functions--------------------------------------\n     */\n    /**\n     * @notice returns the current status of the launchpad\n     */\n    function getLaunchpadStatus() public view returns (uint256) {\n        if (launchpadStatus.forceFailed) {\n            return 3; // launchpad failed\n        }\n        if (\n            (block.timestamp > launchpadInfo._launchpadTimePeriod.endTime) &&\n            (launchpadStatus.totalBaseCollected < launchpadInfo.softCap)\n        ) {\n            return 3; // launchpad failed - softcap not met\n        }\n        if (launchpadStatus.totalBaseCollected >= launchpadInfo.hardcap) {\n            return 2; // launchpad successful - hardcap met\n        }\n        if (\n            (block.timestamp > launchpadInfo._launchpadTimePeriod.endTime) &&\n            (launchpadStatus.totalBaseCollected >= launchpadInfo.softCap)\n        ) {\n            return 2; // launchpad successful - softcap met\n        }\n        if (\n            (block.timestamp >= launchpadInfo._launchpadTimePeriod.startTime) &&\n            (block.timestamp <= launchpadInfo._launchpadTimePeriod.endTime)\n        ) {\n            return 1; // launchpad active\n        }\n        return 0; // launchpad not active yet\n    }\n\n    /**\n     * @notice returns if a user if whitelisted\n     * @param _user address of the user to be checked\n     */\n    function getUserWhitelistStatus(address _user)\n        external\n        view\n        returns (bool)\n    {\n        return whitelist.contains(_user);\n    }\n\n    /**\n     * @notice returns the users address at the given whitelist index\n     * @param _index whitelist index\n     */\n    function getWhitelistedUserAtIndex(uint256 _index)\n        external\n        view\n        returns (address)\n    {\n        return whitelist.at(_index);\n    }\n\n    /**\n     * @notice returns the total number of whitelisted users\n     */\n    function getWhitelistedUsersLength() external view returns (uint256) {\n        return whitelist.length();\n    }\n}\n\n",
  "sourcePath": "/Users/apple/Desktop/datacpoy/BlockChain/kinko-contracts/contracts/Launchpad.sol",
  "compiler": {
    "name": "solc",
    "version": "0.6.12+commit.27d51765.Emscripten.clang"
  },
  "schemaVersion": "3.4.6",
  "updatedAt": "2022-07-14T07:45:03.064Z",
  "devdoc": {
    "kind": "dev",
    "methods": {
      "addLiquidity()": {
        "details": "it creates a liquidity pair, locks liquidty and enables the withdraw of users sale tokens."
      },
      "constructor": {
        "details": "sets initially contract dependend addresses",
        "params": {
          "_launchpadGenerator": "address of the launchpad generator",
          "_launchpadLockForwarder": "address of LanchpadLockForwarder contract",
          "_launchpadSettings": "address of the settings contract",
          "_pancakeDev": "address of the developer account",
          "_wbnb": "address of the wrapped bnb contract"
        }
      },
      "editWhitelist(address[],bool)": {
        "params": {
          "_add": "indicating if the given user(s) should be added to(=true) or removed from (=false) whitelist",
          "_users": "array of user addresses to be added to or removed from whitelist"
        }
      },
      "forceFailByPancake()": {
        "details": "security function to ensure the launchpad can be cancelled at any time to unlock funds"
      },
      "forceFailIfPairExists()": {
        "details": "this function can be called by anyone and requires the launchpad to be active"
      },
      "getUserWhitelistStatus(address)": {
        "params": {
          "_user": "address of the user to be checked"
        }
      },
      "getWhitelistedUserAtIndex(uint256)": {
        "params": {
          "_index": "whitelist index"
        }
      },
      "init1(address,uint256,uint256,uint256,uint256,uint256,uint256,uint256,uint256,uint256,uint256)": {
        "details": "this function can only be called by the launchpad generator",
        "params": {
          "_amount": "the total amount of sale tokens (min 10 000)",
          "_endTime": "the timestamp of the launchpad end",
          "_hardcap": "the maximum amount of tokens to be reached for success",
          "_launchpadOwner": "the owner address of the launchpad",
          "_liquidityPercent": "the percent of locked liquidity in parts per 1000 (min 250)",
          "_listingRate": "the listing rate on pancakeswap",
          "_lockPeriod": "the duration of the locking period in seconds",
          "_maxSpendPerBuyer": "the total amount of base token a specific buyer can spend",
          "_softcap": "the minumum amount of tokens to be reached until end time for success",
          "_startTime": "the timestamp to start launchpad",
          "_tokenPrice": "the amount of sale tokens for one base token"
        }
      },
      "init2(address,address,uint256,uint256,address,address,address)": {
        "details": "this function can only be called by the launchpad generator",
        "params": {
          "_baseFeeAddress": "the receiver of the base token fee amount",
          "_baseToken": "the token to purchase the sale token",
          "_launchpadToken": "the token to be sold in the launchpad (sale token)",
          "_pancakeTokenFee": "the fee on the sale token by adding liquidity in parts per 1000",
          "_referralAddress": "the receiver of the sale and base token referral fee amounts",
          "_referralFee": "the fee calculated on base fee an token fee in parts per 1000",
          "_tokenFeeAddress": "the receiver of the sale token fee amount"
        }
      },
      "userDeposit(uint256,address[3])": {
        "details": "this function uses msg.value and ignores _amount param for BNB as base token. The correct amount is required for ERC20 base tokens",
        "params": {
          "_amount": "the amount of base token to deposit"
        }
      }
    },
    "version": 1
  },
  "userdoc": {
    "kind": "user",
    "methods": {
      "addLiquidity()": {
        "notice": "has to be called after the launchpad was successful to end the launchpad."
      },
      "editWhitelist(address[],bool)": {
        "notice": "update the whitelisted users by owner. Users can be added to or removed from whitelist"
      },
      "forceFailByPancake()": {
        "notice": "enegyFi developers can force a fail in case of an unintended behaviour"
      },
      "forceFailIfPairExists()": {
        "notice": "set the status of the launchpad to failed, if a the liquidity pair exists on pancakeswap before the launchpad is successfully finished"
      },
      "getLaunchpadStatus()": {
        "notice": "returns the current status of the launchpad"
      },
      "getUserWhitelistStatus(address)": {
        "notice": "returns if a user if whitelisted"
      },
      "getWhitelistedUserAtIndex(uint256)": {
        "notice": "returns the users address at the given whitelist index"
      },
      "getWhitelistedUsersLength()": {
        "notice": "returns the total number of whitelisted users"
      },
      "init1(address,uint256,uint256,uint256,uint256,uint256,uint256,uint256,uint256,uint256,uint256)": {
        "notice": "first initilize function sets launchpad information by the launchpad generator"
      },
      "init2(address,address,uint256,uint256,address,address,address)": {
        "notice": "second initilize function sets launchpad information by the launchpad generator"
      },
      "ownerWithdrawTokens()": {
        "notice": "withdraws all sale tokens by launchpad owner if the launchpad failed the sale tokens are sent to the launchpad owner address"
      },
      "setWhitelistFlag(bool)": {
        "notice": "sets if the launchpad is only for whitelisted users by launchpad owner"
      },
      "updateDuration(uint256,uint256)": {
        "notice": "updates the start and end time of the launchpad by launchpad owner"
      },
      "updateMaxSpendLimit(uint256)": {
        "notice": "updates the limit a single user can spend on the launchpad"
      },
      "userDeposit(uint256,address[3])": {
        "notice": "deposits the given amount of base tokens and calculates the equivalent amount of sale tokens owed by the caller."
      },
      "userWithdrawBaseTokens()": {
        "notice": "withdraws deposited base tokens of the caller if the launchpad failed"
      },
      "userWithdrawTokens()": {
        "notice": "withdraws users sale token amount if the launchpad was successful and the liquidity pool creation is completed."
      }
    },
    "version": 1
  }
}