{
  "contractName": "PancakeFactory",
  "abi": [
    {
      "inputs": [
        {
          "internalType": "address",
          "name": "_feeToSetter",
          "type": "address"
        }
      ],
      "stateMutability": "nonpayable",
      "type": "constructor"
    },
    {
      "anonymous": false,
      "inputs": [
        {
          "indexed": true,
          "internalType": "address",
          "name": "token0",
          "type": "address"
        },
        {
          "indexed": true,
          "internalType": "address",
          "name": "token1",
          "type": "address"
        },
        {
          "indexed": false,
          "internalType": "address",
          "name": "pair",
          "type": "address"
        },
        {
          "indexed": false,
          "internalType": "uint256",
          "name": "",
          "type": "uint256"
        }
      ],
      "name": "PairCreated",
      "type": "event"
    },
    {
      "inputs": [],
      "name": "INIT_CODE_PAIR_HASH",
      "outputs": [
        {
          "internalType": "bytes32",
          "name": "",
          "type": "bytes32"
        }
      ],
      "stateMutability": "view",
      "type": "function",
      "constant": true
    },
    {
      "inputs": [
        {
          "internalType": "uint256",
          "name": "",
          "type": "uint256"
        }
      ],
      "name": "allPairs",
      "outputs": [
        {
          "internalType": "address",
          "name": "",
          "type": "address"
        }
      ],
      "stateMutability": "view",
      "type": "function",
      "constant": true
    },
    {
      "inputs": [],
      "name": "feeTo",
      "outputs": [
        {
          "internalType": "address",
          "name": "",
          "type": "address"
        }
      ],
      "stateMutability": "view",
      "type": "function",
      "constant": true
    },
    {
      "inputs": [],
      "name": "feeToSetter",
      "outputs": [
        {
          "internalType": "address",
          "name": "",
          "type": "address"
        }
      ],
      "stateMutability": "view",
      "type": "function",
      "constant": true
    },
    {
      "inputs": [
        {
          "internalType": "address",
          "name": "",
          "type": "address"
        },
        {
          "internalType": "address",
          "name": "",
          "type": "address"
        }
      ],
      "name": "getPair",
      "outputs": [
        {
          "internalType": "address",
          "name": "",
          "type": "address"
        }
      ],
      "stateMutability": "view",
      "type": "function",
      "constant": true
    },
    {
      "inputs": [],
      "name": "allPairsLength",
      "outputs": [
        {
          "internalType": "uint256",
          "name": "",
          "type": "uint256"
        }
      ],
      "stateMutability": "view",
      "type": "function",
      "constant": true
    },
    {
      "inputs": [
        {
          "internalType": "address",
          "name": "tokenA",
          "type": "address"
        },
        {
          "internalType": "address",
          "name": "tokenB",
          "type": "address"
        }
      ],
      "name": "createPair",
      "outputs": [
        {
          "internalType": "address",
          "name": "pair",
          "type": "address"
        }
      ],
      "stateMutability": "nonpayable",
      "type": "function"
    },
    {
      "inputs": [
        {
          "internalType": "address",
          "name": "_feeTo",
          "type": "address"
        }
      ],
      "name": "setFeeTo",
      "outputs": [],
      "stateMutability": "nonpayable",
      "type": "function"
    },
    {
      "inputs": [
        {
          "internalType": "address",
          "name": "_feeToSetter",
          "type": "address"
        }
      ],
      "name": "setFeeToSetter",
      "outputs": [],
      "stateMutability": "nonpayable",
      "type": "function"
    }
  ],
  "bytecode": "0x608060405234801561001057600080fd5b50604051612a1a380380612a1a8339818101604052602081101561003357600080fd5b5051600180546001600160a01b0319166001600160a01b039092169190911790556129b7806100636000396000f3fe608060405234801561001057600080fd5b50600436106100935760003560e01c80635855a25a116100665780635855a25a146100fb578063a2e74af614610103578063c9c653961461012b578063e6a4390514610159578063f46901ed1461018757610093565b8063017e7e5814610098578063094b7415146100bc5780631e3dd18b146100c4578063574f2ba3146100e1575b600080fd5b6100a06101ad565b604080516001600160a01b039092168252519081900360200190f35b6100a06101bc565b6100a0600480360360208110156100da57600080fd5b50356101cb565b6100e96101f2565b60408051918252519081900360200190f35b6100e96101f8565b6101296004803603602081101561011957600080fd5b50356001600160a01b031661028b565b005b6100a06004803603604081101561014157600080fd5b506001600160a01b0381358116916020013516610301565b6100a06004803603604081101561016f57600080fd5b506001600160a01b0381358116916020013516610622565b6101296004803603602081101561019d57600080fd5b50356001600160a01b0316610648565b6000546001600160a01b031681565b6001546001600160a01b031681565b600381815481106101d857fe5b6000918252602090912001546001600160a01b0316905081565b60035490565b604051610207602082016106be565b6020820181038252601f19601f820116604052506040516020018082805190602001908083835b6020831061024d5780518252601f19909201916020918201910161022e565b6001836020036101000a0380198251168184511680821785525050505050509050019150506040516020818303038152906040528051906020012081565b6001546001600160a01b031633146102df576040805162461bcd60e51b81526020600482015260126024820152712830b731b0b5b29d102327a92124a22222a760711b604482015290519081900360640190fd5b600180546001600160a01b0319166001600160a01b0392909216919091179055565b6000816001600160a01b0316836001600160a01b0316141561036a576040805162461bcd60e51b815260206004820152601c60248201527f50616e63616b653a204944454e544943414c5f41444452455353455300000000604482015290519081900360640190fd5b600080836001600160a01b0316856001600160a01b03161061038d578385610390565b84845b90925090506001600160a01b0382166103e8576040805162461bcd60e51b815260206004820152601560248201527450616e63616b653a205a45524f5f4144445245535360581b604482015290519081900360640190fd5b6001600160a01b03828116600090815260026020908152604080832085851684529091529020541615610459576040805162461bcd60e51b815260206004820152601460248201527350616e63616b653a20504149525f45584953545360601b604482015290519081900360640190fd5b60606040518060200161046b906106be565b6020820181038252601f19601f8201166040525090506000838360405160200180836001600160a01b031660601b8152601401826001600160a01b031660601b815260140192505050604051602081830303815290604052805190602001209050808251602084016000f59450846001600160a01b031663485cc95585856040518363ffffffff1660e01b815260040180836001600160a01b03168152602001826001600160a01b0316815260200192505050600060405180830381600087803b15801561053857600080fd5b505af115801561054c573d6000803e3d6000fd5b505050506001600160a01b0384811660008181526002602081815260408084208987168086529083528185208054978d166001600160a01b031998891681179091559383528185208686528352818520805488168517905560038054600181018255958190527fc2575a0e9e593c00f959f8c92f12db2869c3395a3b0502d05e2516446f71f85b90950180549097168417909655925483519283529082015281517f0d3648bd0f6ba80134a33ba9275ac585d9d315f0ad8355cddefde31afa28d0e9929181900390910190a35050505092915050565b60026020908152600092835260408084209091529082529020546001600160a01b031681565b6001546001600160a01b0316331461069c576040805162461bcd60e51b81526020600482015260126024820152712830b731b0b5b29d102327a92124a22222a760711b604482015290519081900360640190fd5b600080546001600160a01b0319166001600160a01b0392909216919091179055565b6122b6806106cc8339019056fe60806040526001600c5534801561001557600080fd5b50604080518082018252600b81526a50616e63616b65204c507360a81b6020918201528151808301835260018152603160f81b9082015281517f8b73c3c69bb8fe3d512ecc4cf759cc79239f7b179b0ffacaa9a75d522b39400f818301527fe87cb5a4dc26cf9451529a20899fcee996799afd48d7c0db7c25e150b364661d818401527fc89efdaa54c0f20c7adf612882df0950f5a951637e0307cdcb4c672f298b8bc660608201524660808201523060a0808301919091528351808303909101815260c09091019092528151910120600355600580546001600160a01b031916331790556121ad806101096000396000f3fe608060405234801561001057600080fd5b50600436106101a95760003560e01c80636a627842116100f9578063ba9a7a5611610097578063d21220a711610071578063d21220a714610534578063d505accf1461053c578063dd62ed3e1461058d578063fff6cae9146105bb576101a9565b8063ba9a7a56146104fe578063bc25cf7714610506578063c45a01551461052c576101a9565b80637ecebe00116100d35780637ecebe001461046557806389afcb441461048b57806395d89b41146104ca578063a9059cbb146104d2576101a9565b80636a6278421461041157806370a08231146104375780637464fc3d1461045d576101a9565b806323b872dd116101665780633644e515116101405780633644e515146103cb578063485cc955146103d35780635909c0d5146104015780635a3d549314610409576101a9565b806323b872dd1461036f57806330adf81f146103a5578063313ce567146103ad576101a9565b8063022c0d9f146101ae57806306fdde031461023c5780630902f1ac146102b9578063095ea7b3146102f15780630dfe16811461033157806318160ddd14610355575b600080fd5b61023a600480360360808110156101c457600080fd5b8135916020810135916001600160a01b0360408301351691908101906080810160608201356401000000008111156101fb57600080fd5b82018360208201111561020d57600080fd5b8035906020019184600183028401116401000000008311171561022f57600080fd5b5090925090506105c3565b005b610244610adb565b6040805160208082528351818301528351919283929083019185019080838360005b8381101561027e578181015183820152602001610266565b50505050905090810190601f1680156102ab5780820380516001836020036101000a031916815260200191505b509250505060405180910390f35b6102c1610b02565b604080516001600160701b03948516815292909316602083015263ffffffff168183015290519081900360600190f35b61031d6004803603604081101561030757600080fd5b506001600160a01b038135169060200135610b2c565b604080519115158252519081900360200190f35b610339610b43565b604080516001600160a01b039092168252519081900360200190f35b61035d610b52565b60408051918252519081900360200190f35b61031d6004803603606081101561038557600080fd5b506001600160a01b03813581169160208101359091169060400135610b58565b61035d610bec565b6103b5610c10565b6040805160ff9092168252519081900360200190f35b61035d610c15565b61023a600480360360408110156103e957600080fd5b506001600160a01b0381358116916020013516610c1b565b61035d610c9d565b61035d610ca3565b61035d6004803603602081101561042757600080fd5b50356001600160a01b0316610ca9565b61035d6004803603602081101561044d57600080fd5b50356001600160a01b0316610f83565b61035d610f95565b61035d6004803603602081101561047b57600080fd5b50356001600160a01b0316610f9b565b6104b1600480360360208110156104a157600080fd5b50356001600160a01b0316610fad565b6040805192835260208301919091528051918290030190f35b61024461133f565b61031d600480360360408110156104e857600080fd5b506001600160a01b038135169060200135611362565b61035d61136f565b61023a6004803603602081101561051c57600080fd5b50356001600160a01b0316611375565b6103396114e5565b6103396114f4565b61023a600480360360e081101561055257600080fd5b506001600160a01b03813581169160208101359091169060408101359060608101359060ff6080820135169060a08101359060c00135611503565b61035d600480360360408110156105a357600080fd5b506001600160a01b0381358116916020013516611703565b61023a611720565b600c5460011461060c576040805162461bcd60e51b815260206004820152600f60248201526e14185b98d85ad94e881313d0d2d151608a1b604482015290519081900360640190fd5b6000600c558415158061061f5750600084115b61065a5760405162461bcd60e51b815260040180806020018281038252602381526020018061212f6023913960400191505060405180910390fd5b600080610665610b02565b5091509150816001600160701b03168710801561068a5750806001600160701b031686105b6106db576040805162461bcd60e51b815260206004820152601f60248201527f50616e63616b653a20494e53554646494349454e545f4c495155494449545900604482015290519081900360640190fd5b60065460075460009182916001600160a01b039182169190811690891682148015906107195750806001600160a01b0316896001600160a01b031614155b610760576040805162461bcd60e51b815260206004820152601360248201527250616e63616b653a20494e56414c49445f544f60681b604482015290519081900360640190fd5b8a1561077157610771828a8d611880565b891561078257610782818a8c611880565b861561083457886001600160a01b03166384800812338d8d8c8c6040518663ffffffff1660e01b815260040180866001600160a01b03168152602001858152602001848152602001806020018281038252848482818152602001925080828437600081840152601f19601f8201169050808301925050509650505050505050600060405180830381600087803b15801561081b57600080fd5b505af115801561082f573d6000803e3d6000fd5b505050505b604080516370a0823160e01b815230600482015290516001600160a01b038416916370a08231916024808301926020929190829003018186803b15801561087a57600080fd5b505afa15801561088e573d6000803e3d6000fd5b505050506040513d60208110156108a457600080fd5b5051604080516370a0823160e01b815230600482015290519195506001600160a01b038316916370a0823191602480820192602092909190829003018186803b1580156108f057600080fd5b505afa158015610904573d6000803e3d6000fd5b505050506040513d602081101561091a57600080fd5b5051925060009150506001600160701b0385168a9003831161093d57600061094c565b89856001600160701b03160383035b9050600089856001600160701b0316038311610969576000610978565b89856001600160701b03160383035b905060008211806109895750600081115b6109c45760405162461bcd60e51b81526004018080602001828103825260228152602001806120e76022913960400191505060405180910390fd5b60006109e66109d4846002611a1a565b6109e0876103e8611a1a565b90611a7d565b905060006109f86109d4846002611a1a565b9050610a1d620f4240610a176001600160701b038b8116908b16611a1a565b90611a1a565b610a278383611a1a565b1015610a67576040805162461bcd60e51b815260206004820152600a60248201526950616e63616b653a204b60b01b604482015290519081900360640190fd5b5050610a7584848888611acd565b60408051838152602081018390528082018d9052606081018c905290516001600160a01b038b169133917fd78ad95fa46c994b6551d0da85fc275fe613ce37657fb8d5e3d130840159d8229181900360800190a350506001600c55505050505050505050565b6040518060400160405280600b81526020016a50616e63616b65204c507360a81b81525081565b6008546001600160701b0380821692600160701b830490911691600160e01b900463ffffffff1690565b6000610b39338484611c8a565b5060015b92915050565b6006546001600160a01b031681565b60005481565b6001600160a01b038316600090815260026020908152604080832033845290915281205460001914610bd7576001600160a01b0384166000908152600260209081526040808320338452909152902054610bb29083611a7d565b6001600160a01b03851660009081526002602090815260408083203384529091529020555b610be2848484611cec565b5060019392505050565b7f6e71edae12b1b97f4d1f60370fef10105fa2faae0126114a169c64845d6126c981565b601281565b60035481565b6005546001600160a01b03163314610c6f576040805162461bcd60e51b81526020600482015260126024820152712830b731b0b5b29d102327a92124a22222a760711b604482015290519081900360640190fd5b600680546001600160a01b039384166001600160a01b03199182161790915560078054929093169116179055565b60095481565b600a5481565b6000600c54600114610cf4576040805162461bcd60e51b815260206004820152600f60248201526e14185b98d85ad94e881313d0d2d151608a1b604482015290519081900360640190fd5b6000600c81905580610d04610b02565b50600654604080516370a0823160e01b815230600482015290519395509193506000926001600160a01b03909116916370a08231916024808301926020929190829003018186803b158015610d5857600080fd5b505afa158015610d6c573d6000803e3d6000fd5b505050506040513d6020811015610d8257600080fd5b5051600754604080516370a0823160e01b815230600482015290519293506000926001600160a01b03909216916370a0823191602480820192602092909190829003018186803b158015610dd557600080fd5b505afa158015610de9573d6000803e3d6000fd5b505050506040513d6020811015610dff57600080fd5b505190506000610e18836001600160701b038716611a7d565b90506000610e2f836001600160701b038716611a7d565b90506000610e3d8787611d9a565b60005490915080610e7457610e606103e86109e0610e5b8787611a1a565b611eda565b9850610e6f60006103e8611f2c565b610eb7565b610eb46001600160701b038916610e8b8684611a1a565b81610e9257fe5b046001600160701b038916610ea78685611a1a565b81610eae57fe5b04611fb6565b98505b60008911610ef65760405162461bcd60e51b81526004018080602001828103825260268152602001806121526026913960400191505060405180910390fd5b610f008a8a611f2c565b610f0c86868a8a611acd565b8115610f3657600854610f32906001600160701b0380821691600160701b900416611a1a565b600b555b6040805185815260208101859052815133927f4c209b5fc8ad50758f13e2e1088ba56a560dff690a1c6fef26394f4c03821c4f928290030190a250506001600c5550949695505050505050565b60016020526000908152604090205481565b600b5481565b60046020526000908152604090205481565b600080600c54600114610ff9576040805162461bcd60e51b815260206004820152600f60248201526e14185b98d85ad94e881313d0d2d151608a1b604482015290519081900360640190fd5b6000600c81905580611009610b02565b50600654600754604080516370a0823160e01b815230600482015290519496509294506001600160a01b039182169391169160009184916370a08231916024808301926020929190829003018186803b15801561106557600080fd5b505afa158015611079573d6000803e3d6000fd5b505050506040513d602081101561108f57600080fd5b5051604080516370a0823160e01b815230600482015290519192506000916001600160a01b038516916370a08231916024808301926020929190829003018186803b1580156110dd57600080fd5b505afa1580156110f1573d6000803e3d6000fd5b505050506040513d602081101561110757600080fd5b5051306000908152600160205260408120549192506111268888611d9a565b600054909150806111378487611a1a565b8161113e57fe5b049a508061114c8486611a1a565b8161115357fe5b04995060008b118015611166575060008a115b6111a15760405162461bcd60e51b81526004018080602001828103825260268152602001806121096026913960400191505060405180910390fd5b6111ab3084611fce565b6111b6878d8d611880565b6111c1868d8c611880565b604080516370a0823160e01b815230600482015290516001600160a01b038916916370a08231916024808301926020929190829003018186803b15801561120757600080fd5b505afa15801561121b573d6000803e3d6000fd5b505050506040513d602081101561123157600080fd5b5051604080516370a0823160e01b815230600482015290519196506001600160a01b038816916370a0823191602480820192602092909190829003018186803b15801561127d57600080fd5b505afa158015611291573d6000803e3d6000fd5b505050506040513d60208110156112a757600080fd5b505193506112b785858b8b611acd565b81156112e1576008546112dd906001600160701b0380821691600160701b900416611a1a565b600b555b604080518c8152602081018c905281516001600160a01b038f169233927fdccd412f0b1252819cb1fd330b93224ca42612892bb3f4f789976e6d81936496929081900390910190a35050505050505050506001600c81905550915091565b60405180604001604052806007815260200166043616b652d4c560cc1b81525081565b6000610b39338484611cec565b6103e881565b600c546001146113be576040805162461bcd60e51b815260206004820152600f60248201526e14185b98d85ad94e881313d0d2d151608a1b604482015290519081900360640190fd5b6000600c55600654600754600854604080516370a0823160e01b815230600482015290516001600160a01b0394851694909316926114679285928792611462926001600160701b03169185916370a0823191602480820192602092909190829003018186803b15801561143057600080fd5b505afa158015611444573d6000803e3d6000fd5b505050506040513d602081101561145a57600080fd5b505190611a7d565b611880565b6114db81846114626008600e9054906101000a90046001600160701b03166001600160701b0316856001600160a01b03166370a08231306040518263ffffffff1660e01b815260040180826001600160a01b0316815260200191505060206040518083038186803b15801561143057600080fd5b50506001600c5550565b6005546001600160a01b031681565b6007546001600160a01b031681565b4284101561154b576040805162461bcd60e51b815260206004820152601060248201526f14185b98d85ad94e881156141254915160821b604482015290519081900360640190fd5b6003546001600160a01b0380891660008181526004602090815260408083208054600180820190925582517f6e71edae12b1b97f4d1f60370fef10105fa2faae0126114a169c64845d6126c98186015280840196909652958d166060860152608085018c905260a085019590955260c08085018b90528151808603909101815260e08501825280519083012061190160f01b6101008601526101028501969096526101228085019690965280518085039096018652610142840180825286519683019690962095839052610162840180825286905260ff89166101828501526101a284018890526101c28401879052519193926101e280820193601f1981019281900390910190855afa158015611666573d6000803e3d6000fd5b5050604051601f1901519150506001600160a01b0381161580159061169c5750886001600160a01b0316816001600160a01b0316145b6116ed576040805162461bcd60e51b815260206004820152601a60248201527f50616e63616b653a20494e56414c49445f5349474e4154555245000000000000604482015290519081900360640190fd5b6116f8898989611c8a565b505050505050505050565b600260209081526000928352604080842090915290825290205481565b600c54600114611769576040805162461bcd60e51b815260206004820152600f60248201526e14185b98d85ad94e881313d0d2d151608a1b604482015290519081900360640190fd5b6000600c55600654604080516370a0823160e01b81523060048201529051611879926001600160a01b0316916370a08231916024808301926020929190829003018186803b1580156117ba57600080fd5b505afa1580156117ce573d6000803e3d6000fd5b505050506040513d60208110156117e457600080fd5b5051600754604080516370a0823160e01b815230600482015290516001600160a01b03909216916370a0823191602480820192602092909190829003018186803b15801561183157600080fd5b505afa158015611845573d6000803e3d6000fd5b505050506040513d602081101561185b57600080fd5b50516008546001600160701b0380821691600160701b900416611acd565b6001600c55565b604080518082018252601981527f7472616e7366657228616464726573732c75696e74323536290000000000000060209182015281516001600160a01b0385811660248301526044808301869052845180840390910181526064909201845291810180516001600160e01b031663a9059cbb60e01b1781529251815160009460609489169392918291908083835b6020831061192d5780518252601f19909201916020918201910161190e565b6001836020036101000a0380198251168184511680821785525050505050509050019150506000604051808303816000865af19150503d806000811461198f576040519150601f19603f3d011682016040523d82523d6000602084013e611994565b606091505b50915091508180156119c25750805115806119c257508080602001905160208110156119bf57600080fd5b50515b611a13576040805162461bcd60e51b815260206004820152601860248201527f50616e63616b653a205452414e534645525f4641494c45440000000000000000604482015290519081900360640190fd5b5050505050565b6000811580611a3557505080820282828281611a3257fe5b04145b610b3d576040805162461bcd60e51b815260206004820152601460248201527364732d6d6174682d6d756c2d6f766572666c6f7760601b604482015290519081900360640190fd5b80820382811115610b3d576040805162461bcd60e51b815260206004820152601560248201527464732d6d6174682d7375622d756e646572666c6f7760581b604482015290519081900360640190fd5b6001600160701b038411801590611aeb57506001600160701b038311155b611b30576040805162461bcd60e51b815260206004820152601160248201527050616e63616b653a204f564552464c4f5760781b604482015290519081900360640190fd5b60085463ffffffff42811691600160e01b90048116820390811615801590611b6057506001600160701b03841615155b8015611b7457506001600160701b03831615155b15611bdf578063ffffffff16611b9c85611b8d86612060565b6001600160e01b031690612072565b600980546001600160e01b03929092169290920201905563ffffffff8116611bc784611b8d87612060565b600a80546001600160e01b0392909216929092020190555b600880546dffffffffffffffffffffffffffff19166001600160701b03888116919091176dffffffffffffffffffffffffffff60701b1916600160701b8883168102919091176001600160e01b0316600160e01b63ffffffff871602179283905560408051848416815291909304909116602082015281517f1c411e9a96e071241c2f21f7726b17ae89e3cab4c78be50e062b03a9fffbbad1929181900390910190a1505050505050565b6001600160a01b03808416600081815260026020908152604080832094871680845294825291829020859055815185815291517f8c5be1e5ebec7d5bd14f71427d1e84f3dd0314c0f7b2291e5b200ac8c7c3b9259281900390910190a3505050565b6001600160a01b038316600090815260016020526040902054611d0f9082611a7d565b6001600160a01b038085166000908152600160205260408082209390935590841681522054611d3e9082612097565b6001600160a01b0380841660008181526001602090815260409182902094909455805185815290519193928716927fddf252ad1be2c89b69c2b068fc378daa952ba7f163c4a11628f55a4df523b3ef92918290030190a3505050565b600080600560009054906101000a90046001600160a01b03166001600160a01b031663017e7e586040518163ffffffff1660e01b815260040160206040518083038186803b158015611deb57600080fd5b505afa158015611dff573d6000803e3d6000fd5b505050506040513d6020811015611e1557600080fd5b5051600b546001600160a01b038216158015945091925090611ec6578015611ec1576000611e52610e5b6001600160701b03888116908816611a1a565b90506000611e5f83611eda565b905080821115611ebe576000611e81611e788484611a7d565b60005490611a1a565b90506000611e9a83611e94866003611a1a565b90612097565b90506000818381611ea757fe5b0490508015611eba57611eba8782611f2c565b5050505b50505b611ed2565b8015611ed2576000600b555b505092915050565b60006003821115611f1d575080600160028204015b81811015611f1757809150600281828581611f0657fe5b040181611f0f57fe5b049050611eef565b50611f27565b8115611f27575060015b919050565b600054611f399082612097565b60009081556001600160a01b038316815260016020526040902054611f5e9082612097565b6001600160a01b03831660008181526001602090815260408083209490945583518581529351929391927fddf252ad1be2c89b69c2b068fc378daa952ba7f163c4a11628f55a4df523b3ef9281900390910190a35050565b6000818310611fc55781611fc7565b825b9392505050565b6001600160a01b038216600090815260016020526040902054611ff19082611a7d565b6001600160a01b038316600090815260016020526040812091909155546120189082611a7d565b60009081556040805183815290516001600160a01b038516917fddf252ad1be2c89b69c2b068fc378daa952ba7f163c4a11628f55a4df523b3ef919081900360200190a35050565b6001600160701b0316600160701b0290565b60006001600160701b0382166001600160e01b0384168161208f57fe5b049392505050565b80820182811015610b3d576040805162461bcd60e51b815260206004820152601460248201527364732d6d6174682d6164642d6f766572666c6f7760601b604482015290519081900360640190fdfe50616e63616b653a20494e53554646494349454e545f494e5055545f414d4f554e5450616e63616b653a20494e53554646494349454e545f4c49515549444954595f4255524e454450616e63616b653a20494e53554646494349454e545f4f55545055545f414d4f554e5450616e63616b653a20494e53554646494349454e545f4c49515549444954595f4d494e544544a2646970667358221220d8d0b3f608e35303dcf2635ea81164270bc9e8c25bb050d01e20efd8cada1da164736f6c634300060c0033a26469706673582212205193295ea42bf90704896219ed36b72b23bbb1c576ef2948b4ac09c878b9b41064736f6c634300060c0033",
  "immutableReferences": {},
  "source": "// SPDX-License-Identifier: MIT\n\n// File: interfaces/IPancakeFactory.sol\n\npragma solidity 0.6.12;\n\ninterface IPancakeFactory {\n    event PairCreated(\n        address indexed token0,\n        address indexed token1,\n        address pair,\n        uint256\n    );\n\n    function feeTo() external view returns (address);\n\n    function feeToSetter() external view returns (address);\n\n    function getPair(address tokenA, address tokenB)\n        external\n        view\n        returns (address pair);\n\n    function allPairs(uint256) external view returns (address pair);\n\n    function allPairsLength() external view returns (uint256);\n\n    function createPair(address tokenA, address tokenB)\n        external\n        returns (address pair);\n\n    function setFeeTo(address) external;\n\n    function setFeeToSetter(address) external;\n}\n\n// File: interfaces/IPancakePair.sol\n\npragma solidity 0.6.12;\n\ninterface IPancakePair {\n    event Approval(\n        address indexed owner,\n        address indexed spender,\n        uint256 value\n    );\n    event Transfer(address indexed from, address indexed to, uint256 value);\n\n    event Mint(address indexed sender, uint256 amount0, uint256 amount1);\n    event Burn(\n        address indexed sender,\n        uint256 amount0,\n        uint256 amount1,\n        address indexed to\n    );\n    event Swap(\n        address indexed sender,\n        uint256 amount0In,\n        uint256 amount1In,\n        uint256 amount0Out,\n        uint256 amount1Out,\n        address indexed to\n    );\n    event Sync(uint112 reserve0, uint112 reserve1);\n\n    function MINIMUM_LIQUIDITY() external pure returns (uint256);\n\n    function factory() external view returns (address);\n\n    function token0() external view returns (address);\n\n    function token1() external view returns (address);\n\n    function getReserves()\n        external\n        view\n        returns (\n            uint112 reserve0,\n            uint112 reserve1,\n            uint32 blockTimestampLast\n        );\n\n    function price0CumulativeLast() external view returns (uint256);\n\n    function price1CumulativeLast() external view returns (uint256);\n\n    function kLast() external view returns (uint256);\n\n    function mint(address to) external returns (uint256 liquidity);\n\n    function burn(address to)\n        external\n        returns (uint256 amount0, uint256 amount1);\n\n    function swap(\n        uint256 amount0Out,\n        uint256 amount1Out,\n        address to,\n        bytes calldata data\n    ) external;\n\n    function skim(address to) external;\n\n    function sync() external;\n\n    function initialize(address, address) external;\n}\n\n// File: interfaces/IPancakeERC20.sol\n\npragma solidity 0.6.12;\n\ninterface IPancakeERC20 {\n    event Approval(\n        address indexed owner,\n        address indexed spender,\n        uint256 value\n    );\n    event Transfer(address indexed from, address indexed to, uint256 value);\n\n    function name() external pure returns (string memory);\n\n    function symbol() external pure returns (string memory);\n\n    function decimals() external pure returns (uint8);\n\n    function totalSupply() external view returns (uint256);\n\n    function balanceOf(address owner) external view returns (uint256);\n\n    function allowance(address owner, address spender)\n        external\n        view\n        returns (uint256);\n\n    function approve(address spender, uint256 value) external returns (bool);\n\n    function transfer(address to, uint256 value) external returns (bool);\n\n    function transferFrom(\n        address from,\n        address to,\n        uint256 value\n    ) external returns (bool);\n\n    function DOMAIN_SEPARATOR() external view returns (bytes32);\n\n    function PERMIT_TYPEHASH() external pure returns (bytes32);\n\n    function nonces(address owner) external view returns (uint256);\n\n    function permit(\n        address owner,\n        address spender,\n        uint256 value,\n        uint256 deadline,\n        uint8 v,\n        bytes32 r,\n        bytes32 s\n    ) external;\n}\n\n// File: libraries/SafeMath.sol\n\npragma solidity 0.6.12;\n\n// a library for performing overflow-safe math, courtesy of DappHub (https://github.com/dapphub/ds-math)\n\nlibrary SafeMath {\n    function add(uint256 x, uint256 y) internal pure returns (uint256 z) {\n        require((z = x + y) >= x, \"ds-math-add-overflow\");\n    }\n\n    function sub(uint256 x, uint256 y) internal pure returns (uint256 z) {\n        require((z = x - y) <= x, \"ds-math-sub-underflow\");\n    }\n\n    function mul(uint256 x, uint256 y) internal pure returns (uint256 z) {\n        require(y == 0 || (z = x * y) / y == x, \"ds-math-mul-overflow\");\n    }\n}\n\n// File: PancakeERC20.sol\n\npragma solidity 0.6.12;\n\ncontract PancakeERC20 is IPancakeERC20 {\n    using SafeMath for uint256;\n\n    string public constant override name = \"Pancake LPs\";\n    string public constant override symbol = \"Cake-LP\";\n    uint8 public constant override decimals = 18;\n    uint256 public override totalSupply;\n    mapping(address => uint256) public override balanceOf;\n    mapping(address => mapping(address => uint256)) public override allowance;\n\n    bytes32 public override DOMAIN_SEPARATOR;\n    // keccak256(\"Permit(address owner,address spender,uint256 value,uint256 nonce,uint256 deadline)\");\n    bytes32 public constant override PERMIT_TYPEHASH =\n        0x6e71edae12b1b97f4d1f60370fef10105fa2faae0126114a169c64845d6126c9;\n    mapping(address => uint256) public override nonces;\n\n    event Approval(\n        address indexed owner,\n        address indexed spender,\n        uint256 value\n    );\n    event Transfer(address indexed from, address indexed to, uint256 value);\n\n    constructor() public {\n        uint256 chainId;\n        assembly {\n            chainId := chainid()\n        }\n        DOMAIN_SEPARATOR = keccak256(\n            abi.encode(\n                keccak256(\n                    \"EIP712Domain(string name,string version,uint256 chainId,address verifyingContract)\"\n                ),\n                keccak256(bytes(name)),\n                keccak256(bytes(\"1\")),\n                chainId,\n                address(this)\n            )\n        );\n    }\n\n    function _mint(address to, uint256 value) internal {\n        totalSupply = totalSupply.add(value);\n        balanceOf[to] = balanceOf[to].add(value);\n        emit Transfer(address(0), to, value);\n    }\n\n    function _burn(address from, uint256 value) internal {\n        balanceOf[from] = balanceOf[from].sub(value);\n        totalSupply = totalSupply.sub(value);\n        emit Transfer(from, address(0), value);\n    }\n\n    function _approve(\n        address owner,\n        address spender,\n        uint256 value\n    ) private {\n        allowance[owner][spender] = value;\n        emit Approval(owner, spender, value);\n    }\n\n    function _transfer(\n        address from,\n        address to,\n        uint256 value\n    ) private {\n        balanceOf[from] = balanceOf[from].sub(value);\n        balanceOf[to] = balanceOf[to].add(value);\n        emit Transfer(from, to, value);\n    }\n\n    function approve(address spender, uint256 value)\n        external\n        override\n        returns (bool)\n    {\n        _approve(msg.sender, spender, value);\n        return true;\n    }\n\n    function transfer(address to, uint256 value)\n        external\n        override\n        returns (bool)\n    {\n        _transfer(msg.sender, to, value);\n        return true;\n    }\n\n    function transferFrom(\n        address from,\n        address to,\n        uint256 value\n    ) external override returns (bool) {\n        if (allowance[from][msg.sender] != uint256(-1)) {\n            allowance[from][msg.sender] = allowance[from][msg.sender].sub(\n                value\n            );\n        }\n        _transfer(from, to, value);\n        return true;\n    }\n\n    function permit(\n        address owner,\n        address spender,\n        uint256 value,\n        uint256 deadline,\n        uint8 v,\n        bytes32 r,\n        bytes32 s\n    ) external override {\n        require(deadline >= block.timestamp, \"Pancake: EXPIRED\");\n        bytes32 digest = keccak256(\n            abi.encodePacked(\n                \"\\x19\\x01\",\n                DOMAIN_SEPARATOR,\n                keccak256(\n                    abi.encode(\n                        PERMIT_TYPEHASH,\n                        owner,\n                        spender,\n                        value,\n                        nonces[owner]++,\n                        deadline\n                    )\n                )\n            )\n        );\n        address recoveredAddress = ecrecover(digest, v, r, s);\n        require(\n            recoveredAddress != address(0) && recoveredAddress == owner,\n            \"Pancake: INVALID_SIGNATURE\"\n        );\n        _approve(owner, spender, value);\n    }\n}\n\n// File: libraries/Math.sol\n\npragma solidity 0.6.12;\n\n// a library for performing various math operations\n\nlibrary Math {\n    function min(uint256 x, uint256 y) internal pure returns (uint256 z) {\n        z = x < y ? x : y;\n    }\n\n    // babylonian method (https://en.wikipedia.org/wiki/Methods_of_computing_square_roots#Babylonian_method)\n    function sqrt(uint256 y) internal pure returns (uint256 z) {\n        if (y > 3) {\n            z = y;\n            uint256 x = y / 2 + 1;\n            while (x < z) {\n                z = x;\n                x = (y / x + x) / 2;\n            }\n        } else if (y != 0) {\n            z = 1;\n        }\n    }\n}\n\n// File: libraries/UQ112x112.sol\n\npragma solidity 0.6.12;\n\n// a library for handling binary fixed point numbers (https://en.wikipedia.org/wiki/Q_(number_format))\n\n// range: [0, 2**112 - 1]\n// resolution: 1 / 2**112\n\nlibrary UQ112x112 {\n    uint224 constant Q112 = 2**112;\n\n    // encode a uint112 as a UQ112x112\n    function encode(uint112 y) internal pure returns (uint224 z) {\n        z = uint224(y) * Q112; // never overflows\n    }\n\n    // divide a UQ112x112 by a uint112, returning a UQ112x112\n    function uqdiv(uint224 x, uint112 y) internal pure returns (uint224 z) {\n        z = x / uint224(y);\n    }\n}\n\n// File: interfaces/IERC20.sol\n\npragma solidity 0.6.12;\n\ninterface IERC20 {\n    event Approval(\n        address indexed owner,\n        address indexed spender,\n        uint256 value\n    );\n    event Transfer(address indexed from, address indexed to, uint256 value);\n\n    function name() external view returns (string memory);\n\n    function symbol() external view returns (string memory);\n\n    function decimals() external view returns (uint8);\n\n    function totalSupply() external view returns (uint256);\n\n    function balanceOf(address owner) external view returns (uint256);\n\n    function allowance(address owner, address spender)\n        external\n        view\n        returns (uint256);\n\n    function approve(address spender, uint256 value) external returns (bool);\n\n    function transfer(address to, uint256 value) external returns (bool);\n\n    function transferFrom(\n        address from,\n        address to,\n        uint256 value\n    ) external returns (bool);\n}\n\n// File: interfaces/IPancakeCallee.sol\n\npragma solidity 0.6.12;\n\ninterface IPancakeCallee {\n    function pancakeCall(\n        address sender,\n        uint256 amount0,\n        uint256 amount1,\n        bytes calldata data\n    ) external;\n}\n\n// File: PancakePair.sol\n\npragma solidity 0.6.12;\n\ncontract PancakePair is IPancakePair, PancakeERC20 {\n    using SafeMath for uint256;\n    using UQ112x112 for uint224;\n\n    uint256 public constant override MINIMUM_LIQUIDITY = 10**3;\n    bytes4 private constant SELECTOR =\n        bytes4(keccak256(bytes(\"transfer(address,uint256)\")));\n\n    address public override factory;\n    address public override token0;\n    address public override token1;\n\n    uint112 private reserve0; // uses single storage slot, accessible via getReserves\n    uint112 private reserve1; // uses single storage slot, accessible via getReserves\n    uint32 private blockTimestampLast; // uses single storage slot, accessible via getReserves\n\n    uint256 public override price0CumulativeLast;\n    uint256 public override price1CumulativeLast;\n    uint256 public override kLast; // reserve0 * reserve1, as of immediately after the most recent liquidity event\n\n    uint256 private unlocked = 1;\n    modifier lock() {\n        require(unlocked == 1, \"Pancake: LOCKED\");\n        unlocked = 0;\n        _;\n        unlocked = 1;\n    }\n\n    function getReserves()\n        public\n        view\n        override\n        returns (\n            uint112 _reserve0,\n            uint112 _reserve1,\n            uint32 _blockTimestampLast\n        )\n    {\n        _reserve0 = reserve0;\n        _reserve1 = reserve1;\n        _blockTimestampLast = blockTimestampLast;\n    }\n\n    function _safeTransfer(\n        address token,\n        address to,\n        uint256 value\n    ) private {\n        (bool success, bytes memory data) = token.call(\n            abi.encodeWithSelector(SELECTOR, to, value)\n        );\n        require(\n            success && (data.length == 0 || abi.decode(data, (bool))),\n            \"Pancake: TRANSFER_FAILED\"\n        );\n    }\n\n    event Mint(address indexed sender, uint256 amount0, uint256 amount1);\n    event Burn(\n        address indexed sender,\n        uint256 amount0,\n        uint256 amount1,\n        address indexed to\n    );\n    event Swap(\n        address indexed sender,\n        uint256 amount0In,\n        uint256 amount1In,\n        uint256 amount0Out,\n        uint256 amount1Out,\n        address indexed to\n    );\n    event Sync(uint112 reserve0, uint112 reserve1);\n\n    constructor() public {\n        factory = msg.sender;\n    }\n\n    // called once by the factory at time of deployment\n    function initialize(address _token0, address _token1) external override {\n        require(msg.sender == factory, \"Pancake: FORBIDDEN\"); // sufficient check\n        token0 = _token0;\n        token1 = _token1;\n    }\n\n    // update reserves and, on the first call per block, price accumulators\n    function _update(\n        uint256 balance0,\n        uint256 balance1,\n        uint112 _reserve0,\n        uint112 _reserve1\n    ) private {\n        require(\n            balance0 <= uint112(-1) && balance1 <= uint112(-1),\n            \"Pancake: OVERFLOW\"\n        );\n        uint32 blockTimestamp = uint32(block.timestamp % 2**32);\n        uint32 timeElapsed = blockTimestamp - blockTimestampLast; // overflow is desired\n        if (timeElapsed > 0 && _reserve0 != 0 && _reserve1 != 0) {\n            // * never overflows, and + overflow is desired\n            price0CumulativeLast +=\n                uint256(UQ112x112.encode(_reserve1).uqdiv(_reserve0)) *\n                timeElapsed;\n            price1CumulativeLast +=\n                uint256(UQ112x112.encode(_reserve0).uqdiv(_reserve1)) *\n                timeElapsed;\n        }\n        reserve0 = uint112(balance0);\n        reserve1 = uint112(balance1);\n        blockTimestampLast = blockTimestamp;\n        emit Sync(reserve0, reserve1);\n    }\n\n    // if fee is on, mint liquidity equivalent to 1/6th of the growth in sqrt(k)\n    function _mintFee(uint112 _reserve0, uint112 _reserve1)\n        private\n        returns (bool feeOn)\n    {\n        address feeTo = IPancakeFactory(factory).feeTo();\n        feeOn = feeTo != address(0);\n        uint256 _kLast = kLast; // gas savings\n        if (feeOn) {\n            if (_kLast != 0) {\n                uint256 rootK = Math.sqrt(uint256(_reserve0).mul(_reserve1));\n                uint256 rootKLast = Math.sqrt(_kLast);\n                if (rootK > rootKLast) {\n                    uint256 numerator = totalSupply.mul(rootK.sub(rootKLast));\n                    uint256 denominator = rootK.mul(3).add(rootKLast);\n                    uint256 liquidity = numerator / denominator;\n                    if (liquidity > 0) _mint(feeTo, liquidity);\n                }\n            }\n        } else if (_kLast != 0) {\n            kLast = 0;\n        }\n    }\n\n    // this low-level function should be called from a contract which performs important safety checks\n    function mint(address to)\n        external\n        override\n        lock\n        returns (uint256 liquidity)\n    {\n        (uint112 _reserve0, uint112 _reserve1, ) = getReserves(); // gas savings\n        uint256 balance0 = IERC20(token0).balanceOf(address(this));\n        uint256 balance1 = IERC20(token1).balanceOf(address(this));\n        uint256 amount0 = balance0.sub(_reserve0);\n        uint256 amount1 = balance1.sub(_reserve1);\n\n        bool feeOn = _mintFee(_reserve0, _reserve1);\n        uint256 _totalSupply = totalSupply; // gas savings, must be defined here since totalSupply can update in _mintFee\n        if (_totalSupply == 0) {\n            liquidity = Math.sqrt(amount0.mul(amount1)).sub(MINIMUM_LIQUIDITY);\n            _mint(address(0), MINIMUM_LIQUIDITY); // permanently lock the first MINIMUM_LIQUIDITY tokens\n        } else {\n            liquidity = Math.min(\n                amount0.mul(_totalSupply) / _reserve0,\n                amount1.mul(_totalSupply) / _reserve1\n            );\n        }\n        require(liquidity > 0, \"Pancake: INSUFFICIENT_LIQUIDITY_MINTED\");\n        _mint(to, liquidity);\n\n        _update(balance0, balance1, _reserve0, _reserve1);\n        if (feeOn) kLast = uint256(reserve0).mul(reserve1); // reserve0 and reserve1 are up-to-date\n        emit Mint(msg.sender, amount0, amount1);\n    }\n\n    // this low-level function should be called from a contract which performs important safety checks\n    function burn(address to)\n        external\n        override\n        lock\n        returns (uint256 amount0, uint256 amount1)\n    {\n        (uint112 _reserve0, uint112 _reserve1, ) = getReserves(); // gas savings\n        address _token0 = token0; // gas savings\n        address _token1 = token1; // gas savings\n        uint256 balance0 = IERC20(_token0).balanceOf(address(this));\n        uint256 balance1 = IERC20(_token1).balanceOf(address(this));\n        uint256 liquidity = balanceOf[address(this)];\n\n        bool feeOn = _mintFee(_reserve0, _reserve1);\n        uint256 _totalSupply = totalSupply; // gas savings, must be defined here since totalSupply can update in _mintFee\n        amount0 = liquidity.mul(balance0) / _totalSupply; // using balances ensures pro-rata distribution\n        amount1 = liquidity.mul(balance1) / _totalSupply; // using balances ensures pro-rata distribution\n        require(\n            amount0 > 0 && amount1 > 0,\n            \"Pancake: INSUFFICIENT_LIQUIDITY_BURNED\"\n        );\n        _burn(address(this), liquidity);\n        _safeTransfer(_token0, to, amount0);\n        _safeTransfer(_token1, to, amount1);\n        balance0 = IERC20(_token0).balanceOf(address(this));\n        balance1 = IERC20(_token1).balanceOf(address(this));\n\n        _update(balance0, balance1, _reserve0, _reserve1);\n        if (feeOn) kLast = uint256(reserve0).mul(reserve1); // reserve0 and reserve1 are up-to-date\n        emit Burn(msg.sender, amount0, amount1, to);\n    }\n\n    // this low-level function should be called from a contract which performs important safety checks\n    function swap(\n        uint256 amount0Out,\n        uint256 amount1Out,\n        address to,\n        bytes calldata data\n    ) external override lock {\n        require(\n            amount0Out > 0 || amount1Out > 0,\n            \"Pancake: INSUFFICIENT_OUTPUT_AMOUNT\"\n        );\n        (uint112 _reserve0, uint112 _reserve1, ) = getReserves(); // gas savings\n        require(\n            amount0Out < _reserve0 && amount1Out < _reserve1,\n            \"Pancake: INSUFFICIENT_LIQUIDITY\"\n        );\n\n        uint256 balance0;\n        uint256 balance1;\n        {\n            // scope for _token{0,1}, avoids stack too deep errors\n            address _token0 = token0;\n            address _token1 = token1;\n            require(to != _token0 && to != _token1, \"Pancake: INVALID_TO\");\n            if (amount0Out > 0) _safeTransfer(_token0, to, amount0Out); // optimistically transfer tokens\n            if (amount1Out > 0) _safeTransfer(_token1, to, amount1Out); // optimistically transfer tokens\n            if (data.length > 0)\n                IPancakeCallee(to).pancakeCall(\n                    msg.sender,\n                    amount0Out,\n                    amount1Out,\n                    data\n                );\n            balance0 = IERC20(_token0).balanceOf(address(this));\n            balance1 = IERC20(_token1).balanceOf(address(this));\n        }\n        uint256 amount0In = balance0 > _reserve0 - amount0Out\n            ? balance0 - (_reserve0 - amount0Out)\n            : 0;\n        uint256 amount1In = balance1 > _reserve1 - amount1Out\n            ? balance1 - (_reserve1 - amount1Out)\n            : 0;\n        require(\n            amount0In > 0 || amount1In > 0,\n            \"Pancake: INSUFFICIENT_INPUT_AMOUNT\"\n        );\n        {\n            // scope for reserve{0,1}Adjusted, avoids stack too deep errors\n            uint256 balance0Adjusted = balance0.mul(1000).sub(amount0In.mul(2));\n            uint256 balance1Adjusted = balance1.mul(1000).sub(amount1In.mul(2));\n            require(\n                balance0Adjusted.mul(balance1Adjusted) >=\n                    uint256(_reserve0).mul(_reserve1).mul(1000**2),\n                \"Pancake: K\"\n            );\n        }\n\n        _update(balance0, balance1, _reserve0, _reserve1);\n        emit Swap(msg.sender, amount0In, amount1In, amount0Out, amount1Out, to);\n    }\n\n    // force balances to match reserves\n    function skim(address to) external override lock {\n        address _token0 = token0; // gas savings\n        address _token1 = token1; // gas savings\n        _safeTransfer(\n            _token0,\n            to,\n            IERC20(_token0).balanceOf(address(this)).sub(reserve0)\n        );\n        _safeTransfer(\n            _token1,\n            to,\n            IERC20(_token1).balanceOf(address(this)).sub(reserve1)\n        );\n    }\n\n    // force reserves to match balances\n    function sync() external override lock {\n        _update(\n            IERC20(token0).balanceOf(address(this)),\n            IERC20(token1).balanceOf(address(this)),\n            reserve0,\n            reserve1\n        );\n    }\n}\n\n// File: PancakeFactory.sol\n\npragma solidity 0.6.12;\n\ncontract PancakeFactory is IPancakeFactory {\n    bytes32 public constant INIT_CODE_PAIR_HASH =\n        keccak256(abi.encodePacked(type(PancakePair).creationCode));\n\n    address public override feeTo;\n    address public override feeToSetter;\n\n    mapping(address => mapping(address => address)) public override getPair;\n    address[] public override allPairs;\n\n    event PairCreated(\n        address indexed token0,\n        address indexed token1,\n        address pair,\n        uint256\n    );\n\n    constructor(address _feeToSetter) public {\n        feeToSetter = _feeToSetter;\n    }\n\n    function allPairsLength() external view override returns (uint256) {\n        return allPairs.length;\n    }\n\n    function createPair(address tokenA, address tokenB)\n        external\n        override\n        returns (address pair)\n    {\n        require(tokenA != tokenB, \"Pancake: IDENTICAL_ADDRESSES\");\n        (address token0, address token1) = tokenA < tokenB\n            ? (tokenA, tokenB)\n            : (tokenB, tokenA);\n        require(token0 != address(0), \"Pancake: ZERO_ADDRESS\");\n        require(getPair[token0][token1] == address(0), \"Pancake: PAIR_EXISTS\"); // single check is sufficient\n        bytes memory bytecode = type(PancakePair).creationCode;\n        bytes32 salt = keccak256(abi.encodePacked(token0, token1));\n        assembly {\n            pair := create2(0, add(bytecode, 32), mload(bytecode), salt)\n        }\n        IPancakePair(pair).initialize(token0, token1);\n        getPair[token0][token1] = pair;\n        getPair[token1][token0] = pair; // populate mapping in the reverse direction\n        allPairs.push(pair);\n        emit PairCreated(token0, token1, pair, allPairs.length);\n    }\n\n    function setFeeTo(address _feeTo) external override {\n        require(msg.sender == feeToSetter, \"Pancake: FORBIDDEN\");\n        feeTo = _feeTo;\n    }\n\n    function setFeeToSetter(address _feeToSetter) external override {\n        require(msg.sender == feeToSetter, \"Pancake: FORBIDDEN\");\n        feeToSetter = _feeToSetter;\n    }\n}\n",
  "sourcePath": "/Users/apple/Desktop/datacpoy/BlockChain/kinko-contracts/contracts/test/EnergyFiFactory.sol",
  "compiler": {
    "name": "solc",
    "version": "0.6.12+commit.27d51765.Emscripten.clang"
  },
  "schemaVersion": "3.4.6",
  "updatedAt": "2022-07-14T07:54:48.853Z",
  "networkType": "ethereum",
  "devdoc": {
    "kind": "dev",
    "methods": {},
    "version": 1
  },
  "userdoc": {
    "kind": "user",
    "methods": {},
    "version": 1
  }
}